:020000040000fa
:080000000022040000000000d2
:020000040000fa
:1000080004200000082000000c2000001020000040
:1000180014200000182000001c200000e821000027
:100028002020000024200000282000002c200000b0
:100038003020000034200000382000003c20000060
:100048004020000044200000482000004c20000010
:100058005020000054200000582000005c200000c0
:100068006020000064200000682000006c20000070
:100078007020000074200000782000007c20000020
:100088008020000084200000882000008c200000d0
:100098009020000094200000982000009c20000080
:1000a800a0200000a4200000a8200000ac20000030
:1000b800b0200000b4200000b8200000bc200000e0
:1000c800c0200000c4200000c8200000cc20000090
:1000d800d0200000d4200000d8200000dc20000040
:1000e800e0200000e4200000e8200000ec200000f0
:1000f800f0200000f4200000f8200000fc200000a0
:100108000021000004210000082100000c2100004b
:10011800102100001421000018210000e82100002f
:10012800e82100001c2100002021000024210000fb
:10013800282100002c21000030210000342100007b
:10014800e821000038210000e82100003c210000df
:10015800e8210000e8210000e8210000e821000073
:10016800e82100004021000044210000482100004f
:10017800e8210000e82100004c2100005021000087
:1001880054210000582100005c210000602100007b
:1001980064210000682100006c210000702100002b
:1001a80074210000782100007c21000080210000db
:1001b800e8210000e8210000e8210000e821000013
:1001c800e8210000e8210000e8210000e821000003
:1001d800e8210000e8210000e8210000e8210000f3
:1001e800e8210000e8210000e8210000e8210000e3
:1001f800e8210000e8210000842100008821000097
:100208008c2100009021000094210000982100001a
:100218009c210000a0210000a4210000a8210000ca
:10022800ac210000b0210000b4210000b82100007a
:10023800bc210000e8210000c0210000c42100000a
:10024800c8210000cc210000d0210000d4210000ea
:10025800d8210000dc210000e0210000e42100009a
:020000040000fa
:104000000022040000000000c63c04000000000084
:10401000c63c040000000000c63c04000000000094
:10402000c63c040000000000c63c04000000000084
:10403000c63c040000000000c63c04000000000074
:10404000c63c040000000000c63c04000000000064
:10405000b237040000000000c63c0400000000006d
:10406000c63c040000000000c63c04000000000044
:10407000c63c040000000000c63c04000000000034
:104080006424040000000000c63c0400000000009e
:10409000c63c040000000000c63c04000000000014
:1040a000c63c040000000000fa22040000000000ea
:1040b000c63c040000000000c63c040000000000f4
:1040c000c63c040000000000c63c040000000000e4
:1040d000c63c040000000000382a04000000000074
:1040e000c63c040000000000d837040000000000b7
:1040f000c63c040000000000c63c040000000000b4
:10410000c63c040000000000c63c040000000000a3
:10411000c231040000000000c63c040000000000a2
:10412000d235040000000000c63c0400000000007e
:10413000c63c040000000000c63c04000000000073
:10414000c63c040000000000c63c04000000000063
:10415000c63c040000000000c63c04000000000053
:10416000c63c040000000000c63c04000000000043
:10417000c63c040000000000c63c04000000000033
:10418000c63c040000000000c63c04000000000023
:10419000c63c040000000000c63c04000000000013
:1041a000c63c040000000000c63c04000000000003
:1041b000c63c040000000000fc35040000000000c4
:1041c0002636040000000000c63c04000000000089
:1041d000c63c040000000000ac36040000000000f3
:1041e0003c24040000000000c63c04000000000065
:1041f000c63c040000000000c63c040000000000b3
:10420000c63c040000000000c63c040000000000a2
:10421000c63c040000000000c63c04000000000092
:10422000c63c040000000000c63c04000000000082
:10423000c63c040000000000c63c04000000000072
:10424000c63c040000000000c63c04000000000062
:10425000c63c040000000000c63c04000000000052
:10426000c63c040000000000c63c04000000000042
:10427000c63c040000000000c63c04000000000032
:10428000c63c0400000000007c3004000000000078
:104290002e30040000000000c63c040000000000b6
:1042a000c63c04000000000086340400000000004a
:1042b0001234040000000000c63c040000000000ae
:1042c0004632040000000000c63c0400000000006c
:1042d000c63c040000000000c63c040000000000d2
:1042e000c63c040000000000c63c040000000000c2
:1042f000c63c040000000000c63c040000000000b2
:10430000c63c040000000000c63c040000000000a1
:10431000c63c040000000000c63c04000000000091
:10432000c63c040000000000c63c04000000000081
:10433000fe31040000000000c63c04000000000044
:10434000c63c040000000000c63c04000000000061
:10435000c63c040000000000c63c04000000000051
:10436000c63c040000000000c63c04000000000041
:10437000c63c040000000000c63c04000000000031
:10438000c63c040000000000c63c04000000000021
:10439000c63c040000000000c63c04000000000011
:1043a000c63c040000000000c63c04000000000001
:1043b000c63c040000000000c63c040000000000f1
:1043c000c63c040000000000c63c040000000000e1
:0843d000c63c040000000000df
:020000040000fa
:104400002f5425000eff27000e0188000000000039
:10441000000020000000e000020032000001200047
:1044200020028800140007005a0d07000000e00079
:1044300003003a00c05d2100210020000200370087
:104440000000200001002000810f700001003200f8
:104450000f000700000020000000e0000200320012
:104460000000020000000000d24c0200000000002a
:104470000040da000000fe00809820000000e0000c
:104480000200320000202000900188000000060099
:10449000a1028800800478000000eb001f003700b4
:1044a000e284440054a0b4009905ba00e2844400b8
:1044b00054a0b4009906ba00e284440054a0b400a9
:1044c0000006eb00476fde00fd07b200ae0188007a
:1044d000636ce10003003a000ad801000000eb0021
:1044e0000e003700606ce10008003a00004deb0060
:1044f0000a05e800020039003420ec000af0a000b0
:104500008b05e900f9ff3e00040037006168e10017
:10451000010032000086eb000b00070019c7ba004b
:104520000e04e0001905ba0003003a000a00e0009a
:10453000dbff3a0000000600fe07b200ae02880072
:104540008a047800f5ff37000cd0a300e20f4d007d
:104550001c00390089027800354dba000a05e800d0
:10456000020039003420ec000af0a0008b05e900bd
:104570000f003200254dba000a05e800020039009c
:104580003420ec000af0a0008b05e900080032009e
:104590000c00e0000600320015cdba000a05e80064
:1045a000020039003420ec000af0a0008b05e9007d
:1045b0008984e80054a0b4000b00e000e2ff3a0058
:1045c000000006009902ba00055d78008b05e9003d
:1045d000f7ff3200c82ade00055d78008b05e90090
:1045e000f3ff32000c00e000f1ff320019ddba00e9
:1045f000eeff3700809fbe00829fbe003200f800b1
:104600003400f80010002000a001880000202000e5
:1046100090018800000000000200fa0001a8a90033
:10462000119e800000022000008060000000e00079
:10463000030032002093800070928800020037004f
:10464000001880007092880010188000909c8800ec
:104650002018800070ca88003018800080ca880046
:104660004018800090ca880050188000a0ca8800b6
:1046700060188000b0ca880070188000c0ca880026
:1046800080188000d0ca880090188000e00b8a0053
:10469000a018800070118a00b01880001093880064
:1046a00051958200f0032000808f500033003e00bf
:1046b000c01880006101b800b0948200c1948200eb
:1046c0000200400083804800b0948a00c1948a00b0
:1046d000d01880006101b80090948200a1948200fb
:1046e000020040008380480090948a00a1948a00d0
:1046f00090ca80006101b900e0ca8000f1ca800060
:104700000200400083804800e0ca8800f1ca8800a7
:10471000a0ca80006101b90000cb800011cb8000ed
:10472000020040008380480000cb880011cb880045
:10473000b0ca80006101b90020cb800031cb80007d
:10474000020040008380480020cb880031cb8800e5
:10475000c0ca80006101b90040cb800051cb80000d
:10476000020040008380480040cb880051cb880085
:10477000509582000000e80050958a00709d8000ee
:10478000610060000000e00002003a00e00b8200df
:10479000f00b8a00f028240010407800e24f50000f
:1047a0000e003a00f19e80000002200000806000b0
:1047b0000000e00005003a0080e18100709288006e
:1047c00090e18100009388000400370090e18100af
:1047d000709288000000eb0000938800f02824000d
:1047e00010407800e14f500010003a00f19e800028
:1047f00000022000008060000000e0000b0032009a
:10480000f19e800000082000008060000000e000b1
:104810000600320070928000000f78000093800044
:10482000709288001e00780000938800801082003b
:104830008000780070928000808f5000030031006b
:104840000000eb008092880002003700c0122000b8
:1048500080928800209e80000060a000209e88003a
:104860000080fa003400f9003200f9004f01be0068
:104870004f00be00004006003200f8003400f8008f
:10488000881f780018002000a80188000820200058
:1048900098018800000000004f0478000000fa0032
:1048a0000688a9002688a90000000000000000007a
:1048b00000000000000000000080fa003400f90051
:1048c0003200f900004006003600f800809fbe006c
:1048d000829fbe00849fbe00869fbe00881f780016
:1048e0003200f8003400f80010002000a001880019
:1048f0000020200090018800000000000000fa0065
:104900000108a900b0c080000000e00003003200f0
:10491000b0c080000000e900b0c08800409e800068
:10492000700060000000e0000f003200a072800004
:104930007000600000f0a7000000ea000000e9003d
:104940004f00de00004078000080fb006100600046
:104950004400dd00a17280000140a1000100700050
:10496000a072880001003700548ea900119e8000bb
:1049700000802000008060000000e0000c00320099
:10498000442ea900440ea900446ea900444ea9007b
:1049900044aea900448ea90023eca90023cca900b1
:1049a00043eca90043cca90063eca90063cca900a7
:1049b00050a482000000e0000900320050a48200f0
:1049c0000000e90050a48a0050a482000000e0002a
:1049d00003003a00c09d80000000a100c09d880037
:1049e000d19e800000022000008060000000e000f6
:1049f0009f003200b09d8000700060000000e00069
:104a00009b003200119e80000000240000806000a6
:104a10000000e00096003200b09182000000e0004b
:104a200003003200b09182000000e900b0918a00da
:104a3000e09d80000040a100e09d8800b0918200d0
:104a40000000e0008a003a00c0918200b0918a0024
:104a500030232500104078008040e80030232500f6
:104a600001487800019e8000004020000080600026
:104a70000000e00008003200c19e800000202000fd
:104a8000008060000000e00003003a0030232500b1
:104a90008040eb000148780030232500104078006a
:104aa000e54f500003003600302325008040eb0026
:104ab00001487800d09e8000610060000000e000a6
:104ac0002c003a0030232500104078000080fb00c5
:104ad000e20f500016003200e20f500005003c00cb
:104ae0000000e0000a003200e10f50000c0032002c
:104af0004b003700e40f500015003200e40f500067
:104b00000f003500e50f500016003200440037005a
:104b10002022210031c0b300014878004000370056
:104b20002022210011c0b300014878003c0037006a
:104b30002022210051c0b30001487800380037001e
:104b40002022210041c0b300014878003400370022
:104b50002022210061c0b30001487800000000005d
:104b60002f0037002022210021c0b3000148780027
:104b70002b00370030232500104078000080fb0018
:104b8000e20f500016003200e20f500005003c001a
:104b90000000e0000a003200e10f50000c0032007b
:104ba0001f003700e40f500015003200e40f5000e2
:104bb0000f003500e50f50001500320018003700d7
:104bc0002022210021c0b3000148780014003700e2
:104bd0002022210061c0b300014878001000370096
:104be0002022210041c0b300014878000c003700aa
:104bf0002022210051c0b30001487800080037008e
:104c00002022210011c0b3000148780004003700c1
:104c10002022210031c0b3000148780000000000cc
:104c200020222100904078003022210001487800a5
:104c3000028b020000000000a09d800000f0a00098
:104c4000a09d880070ad80000000e00008003a00e0
:104c5000c19e800000202000008060000000e00075
:104c600003003200b09d80000040a100b09d88008c
:104c700020472500104078008040e90020472500ab
:104c80000148780020472500104078000004e0002b
:104c9000ec013a002047250041c0b30001487800ec
:104ca0000161800000002800008060000000e0003a
:104cb0000a003a00016280000000280000806000c5
:104cc0000000e00005003a000163800000002800b9
:104cd000008060000000e00023003200505382009a
:104ce0000000e0001d003200505382000000e90087
:104cf00050538a00505382000000e0001d003a002b
:104d0000218ca900218ca80021618000c0ff2f0008
:104d10000080600020618800418ca900418ca800bf
:104d200021628000c0ff2f000080600020628800a8
:104d3000618ca900618ca80021638000c0ff2f0056
:104d40000080600020638800e44d02000100000044
:104d500050a8820050538a000700370050a88200f4
:104d600050538a000400370050a8820050538a0034
:104d70000100370000000000704c82000000e000dd
:104d800003003200704c82000000e900704c8a0081
:104d9000f091820001928200e00f5000e08f5800f5
:104da00011003200f09182000192820061005000f7
:104db000e0805800f0918a0001928a00f091820010
:104dc00001928200e00f5000e08f580006003a0088
:104dd0007022210041c1b30001487800f09d80009d
:104de0000060a000f09d8800602221001040780043
:104df0000004e0002a003200409e80007000600045
:104e00000000e0001b003200e09280000000e9009a
:104e1000e0928800e09280000000e00047003a0045
:104e2000c0928000e0928800409e80000040a10077
:104e3000409e8800f19e80000020200000806000dd
:104e40000000e00005003a00009f80006100600063
:104e50000000e00001003a001a29ef006022210062
:104e6000104078008040e90060222100014878006d
:104e700032003700f09280000000e900f0928800d4
:104e8000f09280000000e0002c003a00d0928000f8
:104e9000f0928800c0c70200010000002700370020
:104ea000f09280000000e00003003200f0928000e9
:104eb0000000e900f0928800919d8000000024002d
:104ec000008060000000e0001c003200819d800036
:104ed00000002100008060000000e00005003a00b2
:104ee000919d800000002800008060000000e0002c
:104ef00002003200f243020001000000819d8000a8
:104f000000002100008060000000e000030032008b
:104f1000809d800000c0a100809d8800919d800040
:104f200000002800008060000000e0000300320064
:104f3000909d800000f0a100909d8800d04d8200df
:104f40000000e00003003200d04d82000000e900c4
:104f5000d04d8a0000512500104078008040e900c3
:104f600000512500014878000051250010407800cc
:104f70000004e00004003a000051250021c0b30005
:104f8000014878002348a80020a882000000e9001a
:104f900020a88a0020a882000000e00002003a0059
:104fa000803e200020a88a00704b25001040780029
:104fb0000004e00005003200704b2500104078002e
:104fc0008040e900704b250001487800304982009c
:104fd0000000e00003003200304982000000e900d8
:104fe00030498a00e0912400104078000004e0007d
:104ff0001c003200a19d8000004020000080600065
:105000000000e0001700320062498200734982000c
:105010008049820091498200800f5100818f5900a0
:1050200010003e006049820071498200610040002a
:10503000e080480060498a0071498a006249820024
:10504000734982008049820091498200800f51009b
:10505000818f590003003900b09d800000e0a0005e
:10506000b09d8800a04d82000000e00003003200e7
:10507000a04d82000000e900a04d8a00909b240012
:10508000104078008040e900909b2400014878009f
:10509000909b2400104078000004e00012003a00c9
:1050a000b19d8000000021000080600000f0a7009a
:1050b0000000ea000000e9004f00de000040780038
:1050c0000080fb00610060004c00dd00b19d8000ad
:1050d00001c0a10001007000b09d8800909b2400d9
:1050e000d1c7b30001487800104782000000e000fb
:1050f00009003200104782000000e90010478a00d2
:10510000104782000000e00003003a00c091240034
:105110008040eb000148780070a582000000e000ac
:105120000300320070a582000000e90070a58a002b
:10513000f0a482000000e00009003200f0a4820028
:105140000000e900f0a48a00f0a482000000e00062
:1051500003003a00709d800000f0a100709d88005f
:10516000f02282000000e900f0228a00e0a4820020
:105170000000e00004003200e0a482000000e9002a
:10518000e0a48a000100370000000000e011820066
:105190000000e00009003200e01182000000e90098
:1051a000e0118a00e01182000000e00003003a00f4
:1051b000609d80000050a000609d880070ad800060
:1051c0000000e0000300320070ad80000000e90044
:1051d00070ad8800d01182000000e00005003200b0
:1051e000e02e2000d0118a00609d80000040a100c8
:1051f000609d8800a4e18100b5e18100e0e18100cb
:10520000f1e1810018c0b3000001be000400be003f
:10521000f83e0200000000000000e0000100350040
:105220000044eb000804e00021003200a0e181000e
:10523000b1e18100a2702d0033c22300ce3c0200f8
:1052400000000000a0e18900b1e18900a4e1810033
:10525000b5e18100e0e18100f1e1810018c0b30017
:105260000001be000400be00fc3e02000000000081
:105270000000e00001003d000044eb000804e000f5
:105280002b003200e0e18100f1e181006011b80003
:10529000f83e0200000000000000e00024003a0098
:1052a0006000b800a0e18900b1e18900200037006a
:1052b000a0e18100b1e18100a2702d0033c2230082
:1052c000cc3c020000000000a0e18900b1e18900af
:1052d000a4e18100b5e18100e0e18100f1e181001c
:1052e00018c0b3000001be000400be00f83e02007a
:1052f000000000000000e000010034000044eb006a
:105300000804e0000a003200e0e18100f1e18100e0
:105310006011b800f83e0200000000000000e0004c
:1053200003003a006000b800a0e18900b1e1890003
:10533000519d800000002200008060000000e0001d
:1053400017003200600c82000000e800600c8a0048
:10535000610c8200700c8200808f500021003900a7
:10536000e00c8200a00c8a000000eb00e00c8a0038
:10537000509d800000b0a000509d8800609d80007e
:1053800000a0a000609d8800509d800000d0a1007a
:10539000509d88000000eb00600c8a00110037006f
:1053a000600c82000000e800600c8a00610c820042
:1053b000700c8200808f50000a0039000000eb0062
:1053c000600c8a000000eb00a00c8a00609d800049
:1053d00000a0a000609d8800509d800000b0a0004b
:1053e000509d8800c0962100104078008040e90060
:1053f000c096210001487800c09621001040780036
:105400000004e00010003a00c096210021c0b30063
:1054100001487800119e800000202000008060007c
:105420000000e00008003200d0962100b1cbb300ac
:1054300001487800f000200068cf02000000000062
:1054400001003700000000000080fa003400f9007d
:105450003200f9004f0478004f03be004f02be0037
:105460004f01be004f00be003600f90000400600ac
:105470003600f800809fbe00829fbe00849fbe0061
:10548000869fbe00889fbe008a9fbe008c9fbe0084
:105490003200f8003400f80010002000a00188005d
:1054a0000020200090018800000000000e00fa009b
:1054b0000268a900e19e80000020200000806000ba
:1054c0000000e000d8023a00d19e800000022000d7
:1054d000008060000000e00009003200b09d800004
:1054e000700060000000e000d0023200119e8000d9
:1054f00000002400008060000000e000cb023a00c1
:10550000e09d8000700060000000e00004003200b8
:10551000709d8000610060000000e0000f0032001c
:10552000419d800000042000008060000000e00039
:1055300005003200388d0200000000002122210009
:10554000804878002d003700ba8c0200000000006f
:10555000212221008048780028003700d09e80005a
:10556000610060000000e0000f003a00419d8000f3
:1055700000042000008060000000e0000500320010
:105580006876020001000000212221008048780096
:1055900013003700e67502000100000021222100ff
:1055a000804878000e003700419d800000042000f4
:1055b000008060000000e00005003200e675020097
:1055c00001000000212221008048780004003700fb
:1055d0006876020001000000212221008048780046
:1055e00030408000680060000000e00002003200ef
:1055f0008009800090c989002668a8003022210017
:1056000090407800202221001040780080cf500088
:105610008602320020222100104078000080fb002a
:105620004200dd00c18f240000804000104078005f
:105630008000fb0030222100104078000080fb0039
:10564000808f50000e003200202221001040780090
:105650000080fb004200dd000000e800c18f240054
:1056600000804000104078008000fb0030222100c4
:10567000104078000080fb00808f500022003a002c
:10568000801182009111820061004000e08048009a
:1056900080118a0091118a00a0478200b1478200e0
:1056a00061004000e0804800a0478a00b1478a00be
:1056b000f01182000000e800f0118a00f011820071
:1056c0008000eb007e3f02000000000012c0b3002b
:1056d000424f98001257240093482400fc3e0200d9
:1056e000000000000000e00002003d008041eb00ef
:1056f000434f98004e4b90000604e0000200320039
:105700000000eb00f0118a00202221009040780078
:105710003022210001487800d19d80000004200043
:10572000008060000000e00011003200200c210029
:1057300090407800400c21001040780080cf50004d
:1057400006003d00200c2100104078008040e80059
:10575000200c21000148780015003700400c210082
:1057600090407800200c210001487800100037009c
:10577000200c210090407800400c2100104078005f
:1057800080cf500006003400200c2100104078002b
:105790008040e900200c2100014878000400370017
:1057a000400c210090407800200c21000148780036
:1057b000d19d800000082000008060000000e00013
:1057c00011003200300c210090407800500c210074
:1057d0001040780080cf500006003d00300c2100c2
:1057e000104078008040e800300c2100014878002b
:1057f00015003700500c210090407800300c21003b
:105800000148780010003700300c210090407800eb
:10581000500c21001040780080cf5000060034006a
:10582000300c2100104078008040e900300c21004d
:105830000148780004003700500c210090407800a7
:10584000300c210001487800e09d8000700060006d
:105850000000e000c3013200709d80006100600024
:105860000000e000bf013a00a00880008000eb00cb
:105870001007980021079800b00880008000eb0016
:1058800040868800518688004086800051868000ce
:10589000c000dd00000020000001be001e009000de
:1058a000ae009000020040008380480040868800df
:1058b000518688001621ef001421ef001821ef0017
:1058c00030222100104078000080fb00e30f5000e0
:1058d00018003200e30f500005003c00e10f5000bb
:1058e0000a003200e20f50000d00320025003700a0
:1058f000e50f500019003200e50f5000120035008e
:10590000e60f50001a0032001e003700408680006b
:1059100051868000408f8800518f88001900370021
:105920004086800051868000608f8800718f8800db
:10593000140037004086800051868000808f8800e8
:10594000918f88000f0037004086800051868000cc
:10595000a08f8800b18f88000a0037004086800041
:1059600051868000c08f8800d18f880005003700e5
:105970004086800051868000e08f8800f18f88008b
:1059800000000000d09e8000610060000000e00088
:1059900035003a00419d8000000420000080600036
:1059a0000000e00018003200200c210010407800b8
:1059b0000004e0000a003d00200c210010407800a7
:1059c0000040ea00804078008054210001487800bf
:1059d000d09d80000040a100d09d88005600370077
:1059e000d09d80000040a000d09d88000000eb000a
:1059f00070a38a003022210090407800a00a210084
:105a0000014878004c003700300c2100104078002d
:105a10000004e0000a003d00300c21001040780036
:105a20000040ea008040780080542100014878005e
:105a3000d09d80000040a100d09d88003e0037002e
:105a4000d09d80000040a000d09d88000000eb00a9
:105a500070a38a003022210090407800a00a210023
:105a60000148780034003700419d80000004200088
:105a7000008060000000e00018003a00200c2100c7
:105a8000104078000004e0000a003d00200c2100d6
:105a9000104078000040ea008040780080542100e7
:105aa00001487800d09d80000040a100d09d880072
:105ab00021003700d09d80000040a000d09d8800cc
:105ac0000000eb0070a38a00302221009040780093
:105ad000a00a21000148780017003700300c21008f
:105ae000104078000004e0000a003d00300c210066
:105af000104078000040ea00804078008054210087
:105b000001487800d09d80000040a100d09d880011
:105b100009003700d09d80000040a000d09d880083
:105b20000000eb0070a38a00302221009040780032
:105b3000a00a210001487800809e210010407800d2
:105b40000004e000450032000000eb00000f780088
:105b50000c0037001e00e800c200dd00400e2100ee
:105b60000080400090009000100078001e01780036
:105b7000c211dd00420e2100028141000089be00f9
:105b80001e0fe800809e2100104078000080fb007e
:105b90000000e9009e0f5000eeff3e00809e2100b5
:105ba000104078000080fb000001e9004086800082
:105bb00051868000c211dd00420e210002814100a9
:105bc0000089be006000b800208f8800318f8800f7
:105bd0000000eb00000f78000d0037001e00780079
:105be000c200dd00400e210000804000100178005e
:105bf00090019000208f8000318f800002004000d3
:105c000083804800208f8800318f88001e0fe800b5
:105c1000809e2100104078000080fb009e0f500005
:105c2000eeff3e00208f8000318f8000929e210089
:105c3000124178000281fb00820178008301e900b3
:105c4000030033008100d1000080d300fbff370048
:105c5000208f8800318f88006600370040868000e2
:105c600051868000208f8800318f8800d09e800070
:105c7000610060000000e0002f003a0030222100a7
:105c8000104078000080fb004200dd00c18f24003e
:105c90000080400010407800604798006e409000ff
:105ca0000080fb004200dd0063004000c18f240043
:105cb00000804000104078000001fb00cf91de0022
:105cc0004086800051868000809ab900828bb9009e
:105cd00086027800050242000010b800010242006e
:105ce000840078004007980051079800400798000a
:105cf000510798004e009000de0090004909dd0039
:105d00004706de000c067100c78ede004c079800c7
:105d10005d079800228f8000338f80004e00900036
:105d2000de0090000200400083804800208f880041
:105d3000318f88002f00370030222100104078007a
:105d40000080fb004200dd000000e800c18f24005d
:105d50000080400010407800604798006e4090003e
:105d60000080fb004200dd000080e800c18f2400bd
:105d700000804000104078000001fb00cf91de0061
:105d80004086800051868000809ab900828bb900dd
:105d900086027800050242000010b80001024200ad
:105da0008400780040079800510798004007980049
:105db000510798004e009000de0090004909dd0078
:105dc0004705de000a057100c78dde004a0798000e
:105dd0005b079800228f8000338f80004e00900078
:105de000de0090000200400083804800208f880081
:105df000318f8800d19e8000000028000080600064
:105e00000000e00009003200208f8000318f800008
:105e1000cd09dd004300de0000807100c308de0014
:105e2000408688005186880008003700208f800057
:105e3000318f80004c0bdd004400de000000730059
:105e4000c408de00408688005186880042868000b3
:105e500053868000a0ff2f0001002000800f51001a
:105e6000818f59000e0034004086800051868000ea
:105e70004d09dd004304de0008047100c38cde0020
:105e80000800780070cd8800d1098000f0fc2f0058
:105e9000008060000040a000d00988003100370079
:105ea00040868000518680000000780070cd880018
:105eb000d1098000f0fc2f0000806000d00988002c
:105ec000d09d80000000a100d09d880071cd800091
:105ed000703e2000808f50000f003e00e09d80004b
:105ee000700060000000e0000b003200d19e8000d6
:105ef00000002100008060000000e00006003a0081
:105f0000d09e800000c0a000d09e8800309e8000ff
:105f100000e0a000309e880071cd8000004b200082
:105f2000808f50000f003600e09d80007000600000
:105f30000000e0000b003200319e800000002400d1
:105f4000008060000000e00006003200309e80000b
:105f500000e0a100309e8800d09e800000c0a1001b
:105f6000d09e8800a09d800000f0a000a09d880029
:105f7000028b020000000000419d80000004200010
:105f8000008060000000e000040032008085800096
:105f90000000e800808588000600370080858000ca
:105fa0000000e00003003200808580000000e9006e
:105fb00080858800d19e8000000220000080600063
:105fc0000000e00019003a00519d8000000022000e
:105fd000008060000000e00006003a000000eb00d6
:105fe000600c8a00509d800000d0a000509d880069
:105ff0000e003700419d80000004200000806000fa
:106000000000e00004003200e00c82000000e80024
:10601000e00c8a0005003700e00c82000000e90077
:10602000e00c8a0001003700000000000080fa0048
:106030003400f9003200f9004f06be004f05be00e3
:106040004f04be004f03be004f02be004f01be0012
:106050004f00be003600f90000400600809fbe00e1
:106060003200f8003400f80010002000a001880081
:106070000020200090018800000000000000fa00cd
:106080000a68a900d09b240090407800c09b24009f
:106090001040780080cf50000e003100d09b2400cb
:1060a000104078000080fb004194230000804000f5
:1060b000104078000080fb00a0128800d09b2400d4
:1060c000104078008040e800d09b24000148780010
:1060d00004003700c09d80000040a100c09d8800e2
:1060e0002a68a9000080fa003400f9003200f900a3
:1060f0004f00be00004006003600f800809fbe0042
:10610000829fbe00849fbe00869fbe003200f800c2
:106110003400f80010002000a001880000202000ba
:1061200090018800000000000400fa00b012800016
:10613000004f78000a48a9009012800062006000b9
:106140000000e000010032005222a900409d8000c2
:10615000620060000000e00015003a00a055210038
:10616000104078009e40780080cf50000d003a002b
:106170001e407800e14f40000a003a00a05521007f
:106180008040eb0001487800409d80000010a00096
:10619000409d8800b05521008040eb000148780008
:1061a0006f003700a05521001e4878006c003700b2
:1061b000b055210010407800fe4f5000040036001a
:1061c000409d80000010a100409d880064003700c1
:1061d000b0552100104078000080fb00515821008c
:1061e000008040001e487800b05521001040780023
:1061f0008040e800b055210001487800b0552100ea
:10620000104078008080fb0050582100104078003a
:106210000080fb000000e800808f50005000340038
:10622000409d80000010a100409d88005082210008
:1062300090407800408221000148780050582100a9
:10624000104078000080fb000000e8005158210059
:106250006e8f02000000000051582100914078002c
:106260008180fb008100e80052582100810041003c
:1062700091407800814f500004003200409d800022
:106280000020a000409d88003500370060582100a4
:106290009040780090c3b30080cf500004003200db
:1062a000409d80000030a000409d88002c003700f9
:1062b00070582100104078000004e00028003a00e7
:1062c000805821009040780030c7b30080cf500044
:1062d00023003a00905821009040780020cbb30072
:1062e00080cf50001e003a00b058210010407800c6
:1062f0000080fb00100798001e0090004800dd00a1
:1063000010079800a0582100104078000080fb0082
:106310009e00900000804000100798009e009000b2
:10632000a0498200808f50000d003a00b022ef009b
:10633000309e80000010a000309e880065eea8000e
:1063400052200200010000007022210021c0b30091
:1063500001487800f09d80000060a100f09d880059
:106360000080fa003400f9003200f9004f03be004b
:106370004f02be004f01be004f00be003600f900c4
:10638000004006003600f800809fbe00829fbe00dd
:10639000849fbe00869fbe003200f8003400f800e3
:1063a00010002000a001880000202000900188003b
:1063b000000000000000fa002348a900c19d8000f1
:1063c00000002200008060000000e00002003200b7
:1063d000de4d0200000000000080fa003400f900e9
:1063e0003200f9004f03be004f02be004f01be0055
:1063f0004f00be003600f90000400600809fbe003e
:10640000821f78003200f8003400f80010002000ed
:10641000a0018800002020009001880000000000fa
:106420000000fa000f68a90080c7800041168000b4
:1064300081407800028d2100000041000148780071
:1064400080c780000000e80080c7880081c7800006
:1064500070c78000808f50000600310080c7800028
:10646000218b210000804000104078000080fb005c
:10647000401688000080fa003400f9003200f9006c
:106480004f0178004f00be00004006003600f800c3
:10649000809fbe00829fbe00849fbe00869fbe007c
:1064a0003200f8003400f80010002000a00188003d
:1064b0000020200090018800000000000200fa0087
:1064c0000b68a90060cd80004115800081407800f4
:1064d000b2982100000041000148780060cd8000a2
:1064e0000000e80060cd880061cd800050cd8000c4
:1064f000808f50000600310060cd8000d1962100d1
:1065000000804000104078000080fb0040158800ab
:1065100061cd800050cd8000808f5000b8003900e0
:106520009acf020000000000c098210010407800bf
:106530000080fb00a0c78800a0c780004800dd00e5
:10654000a0c78800d0982100104078008080fb0010
:10655000a0c7800000804000a0c78800e09821000c
:10656000104078000080fb00b0c78800b0c78000f2
:106570004800dd00b0c78800f09821001040780086
:106580008080fb00b0c7800000804000b0c788005a
:1065900000992100104078000080fb00c0c78800ef
:1065a000c0c780004800dd00c0c7880010992100e6
:1065b000104078008080fb00c0c780000080400051
:1065c000c0c7880020992100104078000080fb009f
:1065d00000858800008580004800dd000085880077
:1065e00030992100104078008080fb0000858000f9
:1065f000008040000085880040992100104078000c
:106600000080fb00a0cd8800a0cd80004800dd0008
:10661000a0cd880050992100104078008080fb00b8
:10662000a0cd800000804000a0cd880060992100ae
:10663000104078000080fb00c0cd8800c0cd8000f5
:106640004800dd00c0cd880070992100104078001e
:106650008080fb00c0cd800000804000c0cd88005d
:1066600080992100104078000080fb00d0cd880088
:10667000d0cd80004800dd00d0cd88009099210069
:10668000104078008080fb00d0cd8000008040006a
:10669000d0cd8800a1cd800000002800808f500060
:1066a00002003a00e0cd8000a0cd8800c1cd80007e
:1066b00000002800808f500002003a00f0cd8000da
:1066c000c0cd8800d1cd800000002800808f500010
:1066d00002003a0000ce8000d0cd8800a0cd80001e
:1066e000e0cd8800c0cd8000f0cd8800d0cd800006
:1066f00000ce8800c1cd8000010f7800a0cd8000c1
:10670000c0cd88001e00ea00a0cd8800a0c7800090
:106710000000ea00a0c78800b0c780000000ea00bf
:10672000b0c78800a1cd800020e18100008050002a
:10673000cf80de00783f02000000000010ce88000d
:1067400021ce8800c1cd800030e181000080500062
:10675000cf80de00783f02000000000030ce8800cd
:1067600041ce8800d1cd800040e181000080500002
:10677000cf80de00783f02000000000050ce88008d
:1067800061ce8800a1c7800050e1810000805000e8
:10679000cf80de00783f02000000000030c8880093
:1067a00041c88800b1c7800060e1810000805000ce
:1067b000cf80de00783f02000000000050c8880053
:1067c00061c88800c1c7800070e18100008050006e
:1067d000cf80de00783f02000000000070c8880013
:1067e00081c888002348a800409d800000e0a000e8
:1067f000409d8800409d800000d0a000409d880002
:106800000080fa003400f9003200f9004f03be00a6
:106810004f02be004f01be004f00be003600f9001f
:1068200000400600809fbe003200f8003400f800ef
:1068300010002000a00188000020200090018800a6
:10684000000000000000fa000b28a900d00720007b
:1068500070a58a0010392400104078008080fb0069
:10686000a01c8200808f50001c003d00719d8000a4
:1068700000002100008060000000e00009003200fc
:1068800010392400104078000080fb00613924009a
:1068900000804000104078000000fb00a015880038
:1068a0000800370010392400104078000080fb00f9
:1068b0004129240000804000104078000080fb0047
:1068c000a015880010392400104078008040e800ae
:1068d000103924000148780007003700709d8000bf
:1068e0000090a100709d8800909d800000a0a100f4
:1068f000909d88002b28a9000080fa003400f90040
:106900003200f9004f00be00004006003600f800db
:10691000809fbe00829fbe00849fbe00869fbe00f7
:106920003200f8003400f80010002000a0018800b8
:106930000020200090018800000000000200fa0002
:10694000b0158000004f78000b08a900401f200000
:10695000f0a48a0090158000620060000000e00052
:1069600001003200b222a900719d800000002400c5
:10697000008060000000e00029003200203924007f
:10698000104078000080fb009e407800a23f240069
:1069900000004100014878002039240010407800b0
:1069a0008040e80020392400014878002039240084
:1069b00010407800e24f500071003600203924006a
:1069c000104078000080fb000080e900a13f240017
:1069d0000080400010407800ed4f500068003a0001
:1069e00020392400104078000080fb000000e900fe
:1069f000a13f24000080400010407800ea4f500082
:106a00005f003a00203924008040eb000148780004
:106a1000709d800000a0a000709d88005800370085
:106a2000719d800000002800008060000000e000f0
:106a300015003a00305a2100104078009e4078003e
:106a400080cf50000d003a001e407800e14f40001a
:106a50000a003a00305a21008040eb0001487800db
:106a6000709d800000f0a000709d8800405a2100b9
:106a70008040eb000148780041003700305a210087
:106a80001e4878003e003700405a21001040780030
:106a9000e34f400004003600709d800000f0a1002c
:106aa000709d880036003700405a21001040780061
:106ab0000080fb00f1a72300008040001e48780002
:106ac000405a2100104078008040e800405a2100e0
:106ad00001487800405a2100104078008080fb0077
:106ae000f0a72300104078000080fb000000e800c1
:106af000808f500022003400709d800000f0a100c3
:106b0000709d880000a823009040780000c7b30063
:106b100080cf500003003a00000000000000000099
:106b200000000000f0a72300104078000080fb0068
:106b30000000e800f1a723006e8f020000000000b3
:106b4000f1a72300914078008180fb008100e800dc
:106b5000f2a723008100410091407800814f50004e
:106b600004003200809d80000000a000809d88000d
:106b700003003700809d80000010a000809d8800e9
:106b80000080fa003400f9003200f9004f03be0023
:106b90004f02be004f01be004f00be003600f9009c
:106ba00000400600801f78003200f8003400f80032
:106bb00010002000a0018800002020009001880023
:106bc000000000000000fa000388a900d09d8000aa
:106bd0000000a000d09d8800d09d80000010a00083
:106be000d09d88000080fa003400f9003200f900de
:106bf0004f00780000400600809fbe003200f80081
:106c00003400f80010002000a001880000202000bf
:106c100090018800000000000000fa00008780005a
:106c20001187800061004000e080480000878800f4
:106c30001187880005e8a9000080fa003400f900f7
:106c40003200f9004f00be00004006003600f80098
:106c5000809fbe00829fbe00849fbe00869fbe00b4
:106c60003200f8003400f80010002000a001880075
:106c70000020200090018800000000000000fa00c1
:106c80000608a900d19e800000022000008060005c
:106c90000000e00027003200b09d8000700060001e
:106ca0000000e00023003a00a09d800000f0a0005a
:106cb000a09d8800d09e8000610060000000e00080
:106cc0000b003a0090232400104078000080fb0065
:106cd0004200dd00c18f2400008040001040780099
:106ce0008040780030222100014878000b003700f6
:106cf00090232400104078000080fb004200dd005b
:106d00000000e800c18f240000804000104078009f
:106d10008040780030222100014878003022210094
:106d2000904078002022210001487800028b020068
:106d3000000000000080fa003400f9003200f90081
:106d40004f03be004f02be004f01be004f00be0009
:106d50003600f900004006003600f800809fbe00b3
:106d6000829fbe00849fbe00869fbe003200f80056
:106d70003400f80010002000a0018800002020004e
:106d800090018800000000000000fa002221ef00be
:106d90006000b80000878800118788000668a90095
:106da000d19e800000022000008060000000e00012
:106db00063003a00b09280000000e800b0928800c2
:106dc00070cd80000000e0000600320070cd800031
:106dd000b009880070cd800090cd88000000eb00e5
:106de00070cd8800b1098000f04a2000808f5000eb
:106df00002003e00004b2000b009880080542100b2
:106e0000104078000004e0002f0032008054210080
:106e1000104078008040e90080542100014878004b
:106e200080542100104078000004e00026003a0061
:106e30000000eb0070a38a00d09d80000040a000fd
:106e4000d09d8800d09e8000610060000000e000be
:106e50000f003a00419d8000000420000080600087
:106e60000000e0000500320068760200010000002a
:106e7000a10a21008048780013003700e67502005f
:106e800001000000a10a2100804878000e003700b0
:106e9000419d800000042000008060000000e000b0
:106ea00005003200e675020001000000a10a210081
:106eb0008048780004003700687602000100000076
:106ec000a10a2100804878001a4f0200010000004a
:106ed000d19e800000002800008060000000e000db
:106ee0000b00320071a3820070032000808f5000dd
:106ef00004003e0070a382006800400070a38a0076
:106f00000d003700f003200070a38a000a0037004c
:106f100071a38200b0032000808f500004003e0067
:106f200070a382006400400070a38a000200370052
:106f3000f003200070a38a0080098000a0e289008d
:106f40000080fa003400f9003200f9004f03be005f
:106f50004f02be004f01be004f00be003600f900d8
:106f600000400600801f78003200f8003400f8006e
:106f700010002000a001880000202000900188005f
:106f8000000000000000fa00004080006400600083
:106f90000000e000010032000048a9000080fa0073
:106fa0003400f9003200f9004f007800004006007c
:106fb000809fbe00829fbe003200f8003400f800bf
:106fc00010002000a001880000202000900188000f
:106fd000000000000200fa0002a8a900a1728000cf
:106fe000000022000080600000f0a7000000ea001e
:106ff0000000e9004f00de00004078000080fb0048
:10700000610060004d00dd00a172800001d0a10090
:1070100001007000a0728800101a800030918a0070
:10702000201a800020918a00301a800010918a0076
:107030001191820020918200808040003091820076
:1070400080804000b0aa2a000008b8000100d100ea
:1070500040918a00106180004f00de0000407800ff
:107060008080fb00e0522500104078000080fb008b
:10707000808f500012003a00106280004f00de0046
:10708000004078008080fb00f0522500104078001e
:107090000080fb00808f500009003a0010638000e0
:1070a0004f00de00004078008080fb000053250088
:1070b000104078000080fb00808f50001c003200e0
:1070c000c0a882004200de0000aa8a0000aa820056
:1070d000e90f500002003e00a000200000aa8a0034
:1070e0000000eb00c0a88a00106180004f00de00a5
:1070f0000040780080407800e05225000148780088
:10710000106280004f00de00004078008040780070
:10711000f052250001487800106380004f00de0027
:107120000040780080407800005325000148780036
:10713000c0a882000000e800c0a88a0050522500c4
:10714000104078000080fb00e10f50001b0032006f
:10715000e20f5000240032000000e00043003a003b
:107160001191820040918200808f50000f00360004
:1071700090522500104078008040e8009052250091
:107180000148780090522500104078008080fb0074
:1071900000aa8200808f500038003600505225002f
:1071a00011c0b30001487800390037009052250023
:1071b0008040eb00014878003500370011918200d3
:1071c00040918200808f50002e00310050522500e7
:1071d00021c0b30001487800805225008040eb00b8
:1071e000014878002a003700119182004091820006
:1071f000808f500019003100805225001040780027
:107200008040e80080522500014878008052250027
:1072100010407800e34f50001c003600505225000b
:107220008040eb0001487800c09d80000060a00015
:10723000c09d8800409e80000080a000409e880085
:10724000409e80000090a100409e88009052250042
:107250008040eb00014878000d00370050522500b7
:1072600011c0b300014878000900370050522500d2
:107270008040eb0001487800050037000000000066
:10728000030037000000000001003700000000008c
:1072900060522500104078000080fb00e10f500094
:1072a0001b003200e20f5000240032000000e0001a
:1072b00043003a002191820040918200808f50006b
:1072c0000f003600b0522500104078008040e800e2
:1072d000b052250001487800b052250010407800d7
:1072e0008080fb0000aa8200808f500038003600aa
:1072f0006052250011c0b300014878003900370002
:10730000b05225008040eb0001487800350037007e
:107310002191820040918200808f50002e00310028
:107320006052250021c0b30001487800a05225001a
:107330008040eb00014878002a003700219182004c
:1073400040918200808f500019003100a05225002a
:10735000104078008040e800a052250001487800e5
:10736000a052250010407800e34f50001c0036006a
:10737000605225008040eb0001487800409e80006c
:107380000060a000409e8800409e80000080a00019
:10739000409e8800409e800000a0a100409e880082
:1073a000b05225008040eb00014878000d00370006
:1073b0006052250011c0b300014878000900370071
:1073c000605225008040eb0001487800050037003e
:1073d000000000000300370000000000010037003b
:1073e0000000000070522500104078000080fb0073
:1073f000e10f50001b003200e20f50002400320069
:107400000000e00043003a00319182004091820088
:10741000808f50000f003600d052250010407800b9
:107420008040e800d052250001487800d052250065
:10743000104078008080fb0000aa8200808f5000fe
:10744000380036007052250011c0b30001487800a2
:1074500039003700d05225008040eb000148780009
:10746000350037003191820040918200808f5000ba
:107470002e0031007052250021c0b3000148780071
:10748000c05225008040eb00014878002a003700f8
:107490003191820040918200808f500019003100ac
:1074a000c0522500104078008040e800c0522500fe
:1074b00001487800c052250010407800e34f50008a
:1074c0001c003600705225008040eb000148780017
:1074d000409e80000070a000409e8800409e80007a
:1074e0000080a000409e8800409e800000b0a10067
:1074f000409e8800d05225008040eb000148780073
:107500000d0037007052250011c0b300014878000b
:1075100009003700705225008040eb0001487800d8
:1075200005003700000000000300370000000000e5
:107530000100370000000000d0a882000000e80031
:10754000d0a88a00419e80000010200000806000ca
:107550000000e0001b003200e1a88200d0a88200f9
:1075600000804000e0a88a00409e80000080a100ca
:10757000409e8800803e200040918a00f0a8820052
:107580000000e800f0a88a00f0a88200e10f500097
:107590000a0036000000eb00f0a88a00e0a8820094
:1075a0004300de0000a98a00e0a882004200de005d
:1075b00010a98a000000eb00e0a88a000000eb00a0
:1075c000d0a88a0000a982000000e80000a98a0073
:1075d00001a9820010a98200808f5000c7003900e5
:1075e0000000eb0000a98a00e19e8000002020003e
:1075f000008060000000e000c0003200c19d8000fb
:1076000000042000008060000000e000170032004d
:10761000419e800000202000008060000000e0000b
:1076200009003a00409e80000090a000409e880023
:107630001053250011c0b30001487800007d2000e0
:1076400040918a0044003700c09d80000060a10086
:10765000c09d88001053250031c0b3000148780058
:10766000007d200040918a003b003700419e800051
:1076700000042000008060000000e00017003200dd
:10768000419e800000402000008060000000e0007b
:1076900009003a001053250021c0b30001487800ca
:1076a000007d200040918a00409e800000a0a00044
:1076b000409e8800280037001053250061c0b300a9
:1076c00001487800007d200040918a00409e8000a3
:1076d0000060a100409e88001f003700419e80008e
:1076e00000082000008060000000e0001700320069
:1076f000419e800000802000008060000000e000cb
:1077000009003a001053250041c0b3000148780039
:10771000007d200040918a00409e800000b0a000c3
:10772000409e88000c0037001053250051c0b30064
:1077300001487800007d200040918a00409e800032
:107740000070a100409e8800030037001053250000
:107750008040eb0001487800442ea900440ea900a7
:10776000446ea900444ea90044aea900448ea9006d
:1077700010532500104078000004e000590032004a
:1077800010532500104078000080fb0021362c00ab
:1077900000804000104f7800105325001040780002
:1077a0000080fb0091362c00008040009040780063
:1077b000114798001e4090000080fb0061006000af
:1077c000004078000004e0000e00320023eca80026
:1077d000519d800000002400008060000000e00057
:1077e0000200320023cca8000100370023cca900fe
:1077f00043eca90043cca90063eca90063cca90029
:10780000250037001e4090000080fb0062006000f1
:107810000000e0000e00320023eca90023cca900f8
:1078200043eca800519d800000002400008060000f
:107830000000e0000200320043cca8000100370045
:1078400043cca90063eca90063cca9001200370067
:107850001e4090000080fb00640060000000e0001b
:107860000d00320023eca90023cca90043eca900b1
:1078700043cca90063eca800519d800000002400c7
:10788000008060000000e0000200320063cca8002d
:107890000100370063cca9001e80fb00610060007e
:1078a000004078000004e00002003200440ea8000e
:1078b000120037001e80fb00620060000000e00044
:1078c00002003200444ea8000c0037001e80fb006e
:1078d000640060000000e00008003200448ea80050
:1078e0000600370023eca90023cca90043eca90033
:1078f00043cca90063eca90063cca90071c9810045
:10790000703e2000808f50001a003e0070c9810038
:107910001191820000014000e09e21000000410022
:107920000108780070c981002191820000014000a7
:10793000e01b2200000041000108780070c98100ae
:107940003191820000014000e098220000004100d7
:107950000108780070c981004291820080014000d6
:10796000e115230081804100820878000000e800d2
:1079700070c989000080fa003400f9003200f90073
:107980004f01be004f00be00004006000040da007c
:107990000000fe000000050003f0a200889fbe006a
:1079a0008a9fbe008c1f7800930107009a01330064
:1079b0006450e1004f0032006420e10052003200c8
:1079c00003826c0007003b000905d0000306d000cd
:1079d000820f54000c065d000200390002003200e4
:1079e00089017800030678008582550004003d0077
:1079f0000003fd008103fd008502ea008b85420043
:107a0000840f720002003b0060001000e08018004c
:107a10006011b8000005eb007a28e1000a00390087
:107a200006007800c75ddd00f707b20087807500ab
:107a30002d003700828171000a0178006105600025
:107a40008180d1000080d3008502e900f9ff3b006e
:107a5000060440008784480002003b0060041400d4
:107a6000e0841c000988a300070032008a817100ad
:107a700082817100610164008904d1000884d3000f
:107a80008b05e800170037000978a30013003a00bf
:107a90000b00e000130034008b05e90008044400eb
:107aa00089844c000a4474000978a3000d003a0050
:107ab0000b00e000070034008b05e90008044400d7
:107ac00089844c0001003a000b0020000978a300d3
:107ad000f7ff32000001eb000200370082817100e5
:107ae0000a017800090107000cf0a70001f0a000ce
:107af000520137006420e10002003a00838f6c00dd
:107b0000520133000801be000200be004b013700e5
:107b1000889fbe008a9fbe008c9fbe000004be00ee
:107b2000200107000800be00890678006420e100fb
:107b300008003900040032000160a0001202200099
:107b4000028088005300370091fc2300b0fd200024
:107b50004e0037000006eb0009f0a10003f82300f7
:107b6000020020000800be00a1000700060034004b
:107b700001f82300000020000801be004b000700b0
:107b80000004be002c0020000800be0093e8230083
:107b9000320a230096000700120034000801be00dc
:107ba000d1fd2300703d2b007cff07000005be00c7
:107bb000b3f32300f27a26000800be002601070076
:107bc00003f823000200200073ff07000801be0035
:107bd00072ff07000a01be00340007000004be0067
:107be0000c06e8000800be0001f0a1000200200021
:107bf000039823007e0007000800be001600350031
:107c00000801be00140107000005be0032cd2c00a3
:107c100043fb230061ff0700809fbe00126928001c
:107c200003d52b000a00be000b010700620f2100e4
:107c300013ef2b0059ff07000a01be0006010700e1
:107c40004f01be00190007000801be000201070035
:107c50000801be0051ff07000c00e0000b003200dd
:107c60000c10a70001f0a200b2fd200093fc23003d
:107c70006260e1000400320022a9200063f02300ca
:107c80000c10a70063f8230044ff07000df0a700c5
:107c900001f0a2004f06be004f05be004f04be001b
:107ca000000006000081eb001f013700889fbe0026
:107cb0008a9fbe008c1f7800cf000700d6003300db
:107cc00003866c006450e1002e0032006420e10065
:107cd000330032006150e1002f0032006120e100ea
:107ce0003100320085855500eb07b0000900200007
:107cf00008042000050037000804440089844c0073
:107d00000a0031000603430087834b000001530043
:107d100081815b00f8ff33000203be000800a00071
:107d20000804440089844c00f6ff3900c639dd00a0
:107d30008301730001003200130020008904d10088
:107d40000884d3000998a300050032000800a700aa
:107d50000300a0008904d1000884d3008b05e8004b
:107d60008904d1000884d3000001eb000281d20015
:107d70006600070001f0a1000cf0a70001f0a000d0
:107d8000ae0037006420e100b00032000801be0000
:107d90000200be00f7ff37006120e100ab003200b7
:107da0006000b800f3ff37000000200001f8270052
:107db000f0ff3700839f68000100e00002003d00f3
:107dc00060001000e08018000300e00002003d00a9
:107dd00060011100e0811900730107004f00e0000d
:107de00002003b0060001000e08018000000060068
:107df000140020007c013700f4ff2f007a013700c7
:107e00000001be00670007000470a70003f0a10096
:107e10006509b100160032000d0035006828e10048
:107e200006003500f0ff2f00f1ff27000300e000ff
:107e300013003b0001002800000005000000400086
:107e4000818048008502e900fcff3a000800370005
:107e5000f88f420002003c008000eb0000000500ab
:107e60008100d1000080d3008502e800fcff3a00c9
:107e70000300e00002003b0060001000e0801800fa
:107e8000000006000001be00460007000470a700c5
:107e900003f0a10003f8a30013003a006509b10044
:107ea00010003200090035006928e10002003500a9
:107eb000010028000000050000004000818048000b
:107ec0008502e900fcff3a0000000600f88f42003e
:107ed000050035008100d1000080d3008502e80054
:107ee000fcff3a00000006008000eb0000000500e7
:107ef0004f89de0082017800560137006011b8001a
:107f000064013700040020003701370081002000a1
:107f1000618055000b003d000b00200061fe2f002a
:107f20000100e1001d0034008281710061016400e4
:107f30008904d1000884d3000000e800faff3a0069
:107f40007100200061006400030070000200600006
:107f50000900320061044400e0844c000988a50057
:107f6000050032008b05e8006808e10002003a00d5
:107f70008904d1000884d300f20f20000258e100e8
:107f800005003d00c75ddd00f907b200898075007e
:107f900008007800000006000bf827008b0078002e
:107fa00000000500c70ade00f107b200f50fb200bd
:107fb00008003200e1cf4200020032000170a00050
:107fc00024000500810f7000010032000408050044
:107fd00044000500810f700002003a001400050003
:107fe0008502e9000000400081c04800fcff3b0022
:107ff0000170a000240005000004be00e9ff070096
:108000000003be000405be000200be00e5ff07003d
:10801000844f7500000006000200be006450e100bd
:10802000050036006420e100020036000968a30064
:1080300001003a000800be000160a0004f06780071
:108040004f05be004f04be0000000600f0ff2f00e9
:10805000f1ff2700f9ff3700889fbe008a9fbe000e
:108060008c1f7800e4ff0700ebff330003866c00f1
:108070006450e100240032006420e1002700320057
:108080006150e100220032006120e1002100320055
:108090008b854200eb07b1000134b800003ab8000c
:1080a0000804420089844a00013ab8000030b80050
:1080b0008880400009014a000400330000004000ad
:1080c00081804800020149008b05e900c909dd00f3
:1080d000830170000100320013002000c814de008c
:1080e0004814dd004709de001200b200c808de00b7
:1080f0000884700085ff070001f0a1000cf0a700c4
:1081000001f0a000cdff37006120e100cfff320079
:108110000801be000200be00f7ff37006150e10019
:10812000fcff3a00c9ff3700889fbe008a9fbe004f
:108130008c9fbe00820578000004be0099ff0700f6
:108140000800be006420e1000700390002003a0088
:10815000f1ff2700f0ff2f000160a00012022000b5
:1081600002808800550037006120e10003003a00da
:108170000b00a70001f823005000370001f0a10018
:10818000020021009364240019ff07000800be00cc
:1081900004003500b2fd2000930c2400ec00070021
:1081a0000004be000005eb000b00a6004f0dde0032
:1081b00001f0a1000004be0032982f0023ea230042
:1081c000a5ff07000001eb0003f023000b00a70050
:1081d00003f82300f1fd070009ff07000000a700d6
:1081e0000a00a20042ff07000b00e000030032007b
:1081f0000200200003f02300e7fd070001f0a200c9
:108200000006be00020020009304240092ff070035
:108210000801be00e1fd0700809fbe000c00be000b
:1082200022a22a00d3a723008bff07004f01be0024
:10823000dafd07000004be0001f0a10002002000ea
:1082400003982300eafe07000800be00190035006d
:108250000001be0080ff07000006be00b2c5290075
:10826000e36223007cff070022222b00f3942b0003
:10827000cafd07000c01be0077ff0700e27328006b
:1082800083c02300c5fd07000c01be0072ff07007c
:1082900042aa2a00a3e22b00c0fd07000c01be0089
:1082a0006dff07000801be006bff07000801be005c
:1082b000bafd07000a00a70001f0a2004f06be00a9
:1082c0004f05be004f04be00000006000001eb0099
:1082d00095ff3700889fbe008a9fbe008c1f7800e4
:1082e0000004be002fff07000478a30026003a0018
:1082f0006120e1002500320009f8a30025003a00c2
:108300006420e10021003200f507b1000508a30058
:108310000200320000004000818048006044b80044
:10832000031020000200200000004000818048006f
:108330000805440089854c000a0541008b854900e9
:108340000a0550008b855800030033000a00be0068
:1083500002047400838474008301d1000281d3007d
:10836000830f7100f0ff3a008904d1000884d30024
:108370006001490082017800c1adde00fb07b0005a
:10838000e2fe07002dff37000960a0000800be00d4
:108390002aff37001202200002808800f0ff2f0021
:1083a000f1ff270025ff37006022b80006022000f9
:1083b0000000d0008180d2000482d2008582d200e9
:1083c0000000a0000202520083825a000300310024
:1083d0000202420083824a000000a1000603e90075
:1083e000f3ff3a0000000600889fbe008a9fbe008f
:1083f000841f780000ff07004f0078001100330051
:10840000f0ff2f00838f6c0006003b000405650021
:108410000a00a7000800370009f0a600100020009d
:1084200008003700820f5400838f5c00030039007e
:108430001000200001003e000000200009f0a7000d
:108440000000ea004f05be004f04be000000e0003f
:1084500000000600881f7800030478000300e00095
:1084600007003d0060001000e08018006001190066
:10847000e081190002003b0001f02d0003003700ed
:108480000400070008f0a70001f0a0004f047800e6
:1084900000000600889fbe008a9fbe000082700018
:1084a0000402710004827100260032000004be0044
:1084b0000200be006011b8006b0920009502200088
:1084c0000182cf000a0039000541b1000082cf00cf
:1084d000070039000541b1000982cf0004003900ce
:1084e0000541b1000882cf00010039000541b1000b
:1084f00005425200120032000a003b0082817100e6
:10850000610164008100d1000080d3008984d30020
:108510000884d3008b05e8000442e800f7ff3a0026
:10852000070037000804440089844c00000048001c
:10853000818048008b05e9000442e900f9ff3a0018
:1085400072fe07004f05be004f04be00000006008b
:108550000400200000003700889fbe008a9fbe00f4
:108560008c1f78004f26dd00a3fe0700aafe330013
:108570006120e100430032006250e10041003e0012
:108580003e0039006420e1003c00320005825500c5
:108590000f003b000402e80038003a00800f53004f
:1085a000818f5b00350034000800be0003f0a1009d
:1085b00001f0a60003f0a0000cf0a700f7fc0700f4
:1085c0009efe37000603430087834b000c4646009f
:1085d0000005530081855b00020033000a03be00e2
:1085e0000c00a0000402e900f6ff3b0085057800be
:1085f0000602430087824b0004003a006000b80086
:1086000009f0a70001f0a0008cfe37000002520024
:1086100081825a000704e00004003300060343008f
:1086200087834b008b05e900faff370009057800c6
:108630000604be000203be006011b80033fe07004e
:10864000e00f5200e08f5a000700350002003c00a6
:108650000c08a300040032000601be0003f0a000d5
:108660000cf0a700cdfc07000a85680001f0a1000e
:108670000af0a70001f0a00070fe37000800be005d
:108680006efe3700100220000cf0a600008088006b
:048690006efe370043
:020000040000fa
:1086940004000000010000000200000002000000cd
:1086a40001000000040000000000000000000000c1
:1086b400ffff000000000000ffff0000ffff0000bc
:1086c4000001000002010000040400000200000098
:1086d4000204000004010000020100000206000080
:1086e4000a0f0000131700001b1f000023270000bf
:1086f4002c300000343800003c40000044480000a6
:108704004c500000545800005c6000006367000097
:108714006b6f000073760000797c00007f8300009b
:10872400878a00008e910000959800009b9f0000ae
:10873400a2a50000a8ab0000aeb10000b4b70000d1
:10874400babd0000c0c20000c5c80000cacd000008
:10875400cfd20000d4d60000d9db0000dddf00005a
:10876400e1e30000e5e70000e8ea0000eced0000ca
:10877400eff00000f2f30000f4f50000f7f8000059
:10878400f9fa0000fafb0000fcfd0000fdfe000009
:10879400feff0000ffff0000ffff0000ffff0000de
:1087a400ffff0000ffff0000fefe0000fdfd0000d3
:1087b400fcfc0000fbfa0000f9f80000f7f60000ea
:1087c400f5f40000f2f10000f0ee0000edeb000023
:1087d400e9e80000e6e40000e2e00000dede00007c
:1087e400e1e20000e4e60000e8ea0000ebed00004e
:1087f400eef00000f1f30000f4f50000f6f70000dd
:10880400f8f90000fafb0000fcfc0000fdfe00008b
:10881400fefe0000ffff0000ffff0000ffff00005e
:10882400ffff0000ffff0000fefe0000fefd000051
:10883400fcfc0000fbfa0000f9f80000f7f6000069
:10884400f5f40000f3f10000f0ee0000edeb0000a1
:10885400eae80000e6e40000e3e10000dfdc0000f9
:10886400dad80000d6d40000d1cf0000ccca000072
:10887400c7c50000c2bf0000bcb90000b7b4000007
:10888400b1ae0000aba70000a4a100009e9a0000b6
:1088940097940000908d000089860000827f00007c
:1088a4007b770000747000006c6800006561000054
:1088b4005d590000555100004d490000454100003c
:1088c4003d390000353100002d290000242000002e
:1088d4001c180000141000000c0700000000000029
:1088e4000000000000000000000000000000000084
:1088f4000000000000000000000000000000000074
:108904000000000000000000000000000000000063
:108914000000000000000000000000000000000053
:108924000000000000000000000000000000000043
:108934000000000000000000000000000000000033
:108944000000000000000000000000000000000023
:108954000000000000000000000000000000000013
:108964000000000000000000000000000000000003
:1089740000000000000000000000000000000000f3
:1089840000000000000000000000000000000000e3
:1089940000000000000000000000000000000000d3
:1089a40000000000000000000000000000000000c3
:1089b40000000000000000000000000000000000b3
:1089c40000000000000000000000000000000000a3
:1089d400000000000000000000000000a0a3000050
:1089e400a5a70000a9ab0000aeb00000b3b500001d
:1089f400b8ba0000bdc00000c3c60000c8cb000068
:108a0400ced10000d4d80000dbde0000e1e5000098
:108a1400e8eb0000eff20000f6f90000ff030000ad
:108a2400070a00000e110000151800001b1f0000ab
:108a340022250000282b00002e31000034370000ce
:108a44003a3d000040420000454800004a4d000005
:108a54004f52000054560000595b00005d5f000057
:108a64006163000065670000686a00006c6d0000c7
:108a74006f70000072730000747500007778000056
:108a8400797a00007a7b00007c7d00007d7e000006
:108a94007e7f00007f7f00007f7f00007f7f0000db
:108aa4007f7f00007f7f00007e7e00007d7d0000d0
:108ab4007c7c00007b7a00007978000077760000e7
:108ac4007574000072710000706e00006d6b000020
:108ad4006968000066640000626000005e5e000079
:108ae4006162000064660000686a00006b6d00004b
:108af4006e700000717300007475000076770000da
:108b0400787900007a7b00007c7c00007d7e000088
:108b14007e7e00007f7f00007f7f00007f7f00005b
:108b24007f7f00007f7f00007e7e00007e7d00004e
:108b34007c7c00007b7a0000797800007776000066
:108b44007574000073710000706e00006d6b00009e
:108b54006a68000066640000636100005f5c0000f6
:108b64005a58000056540000514f00004c4a00006f
:108b740047450000423f00003c3900003734000004
:108b8400312e00002b270000242100001e1a0000b3
:108b940017140000100d000009060000fffc00007f
:108ba400f8f50000f1ee0000eae70000e4e0000060
:108bb400ddda0000d7d40000d1ce0000cbc800001d
:108bc400c5c20000bfbd0000bab70000b5b20000c6
:108bd400b0ad0000aba90000a6a40000a2a0000054
:108be4009e9c00009a9800009795000093920000c4
:108bf400908f00008d8c00008b8a00008887000015
:108c04008685000085840000838200008281000044
:108c1400818000008080000080800000808000004f
:108c2400808000008080000081810000828200003a
:108c34008383000084850000868700008889000003
:108c44008a8b00008d8e00008f91000092940000aa
:108c540096970000999b00009d9f0000a1a1000031
:108c64009e9d00009b99000097950000949200003f
:108c7400918f00008e8c00008b8a00008988000090
:108c840087860000858400008383000082810000c1
:108c940081810000808000008080000080800000ce
:108ca40080800000808000008181000081820000bb
:108cb4008383000084850000868700008889000083
:108cc4008a8b00008c8e00008f910000929400002b
:108cd40095970000999b00009c9e000000020000f4
:108ce40004060000080a00000c0e00001012000028
:108cf40014160000181a00001c1e00002022000098
:108d040024260000282a00002c2e00000101000067
:108d140001360000013a00003c3e00000002000061
:108d240004060000080a00000c0e00000101000007
:108d340001160000011a00001c1e000001010000c1
:108d440001260000012a00002c2e00000101000071
:108d540001360000013a00003c3e0000295c00009e
:108d64004142000082040000aa040000fa0400004a
:108d74004a0500009b050000eb05000039060000d1
:108d840086060000d2060000f70600001c0700005b
:108d940063070000a8070000eb0700002c08000090
:108da4006a080000a6080000df0800001609000099
:108db400470900005d0900007109000092090000e4
:108dc400a9090000c9ff0000ceff0000d8ff000081
:108dd400e2ff0000ecff0000f6ff000000000000ce
:108de4000a00000014000000190000001e0000002a
:108df40028000000320000003c0000004600000093
:108e0400500000005a000000640000006e000000e2
:108e1400780000007d000000820000008c0000004b
:108e240096000000e50f0000da0f0000cd0f0000ef
:108e3400bb0f0000a40f0000870f0000630f0000a9
:108e4400350f0000fd0e0000b90e0000680e000092
:108e5400080e00009a0d00001d0d0000910c00008a
:108e6400f70b0000520b0000a30a0000ee090000fb
:108e7400350900007c080000c50700001407000045
:108e84006c060000cd05000038050000b0040000a9
:108e940032040000c00300005a030000fd02000079
:108ea400aa0200006002000020020000d8ff0000b7
:108eb400ddff0000e2ff0000e7ff0000ecff000020
:108ec400f1ff0000f6ff0000fbff000000000000bf
:108ed400050000000a0000000f000000140000005c
:108ee400190000001e0000002300000028000000fc
:108ef4002d00000032000000370000003c0000009c
:108f040041000000460000004b000000500000003b
:108f1400550000005a0000005f00000064000000db
:108f2400690000006e00000073000000780000007b
:108f34007d0000000b0e0000e30d0000b30d0000e7
:108f4400790d0000350d0000e60c00008d0c0000ca
:108f5400270c0000b60b00003a0b0000b50a000015
:108f6400280a000095090000fd08000064080000bc
:108f7400cb07000035070000a2060000160600001b
:108f840090050000130500009d040000310400005a
:108f9400cd030000710300001e030000d302000093
:108fa4008e0200004f020000e2ff0000e7ff000015
:108fb400ecff0000f1ff0000f6ff0000fbff0000e3
:108fc40000000000050000000a0000000f0000007f
:108fd40014000000190000001e000000230000001f
:108fe400280000002d0000003200000037000000bf
:108ff4003c00000041000000460000004b0000005f
:1090040050000000550000005a0000005f000000fe
:1090140064000000690000006e000000740e00008f
:10902400640e00004f0e0000350e0000130e000009
:10903400e90d0000b60d0000780d00002d0d0000b4
:10904400d60c0000700c0000fd0b00007d0b00002e
:10905400ef0a0000580a0000b709000011090000d7
:1090640068080000bf07000018070000770600002a
:10907400c70500004c050000c504000048040000ba
:10908400d60300006e03000011030000bd020000bf
:10909400770e0000740e0000720e00006f0e0000c8
:1090a4006d0e00006a0e0000670e0000640e0000e2
:1090b400600e00005d0e0000590e0000550e000009
:1090c400520e00004d0e0000490e0000450e000037
:1090d400400e00003b0e0000360e0000310e000072
:1090e4002c0e0000260e0000200e00001a0e0000b8
:1090f400140e00000d0e0000060e0000ff0d00000f
:10910400f80d0000f00d0000e80d0000e00d000077
:10911400d80d0000cf0d0000c60d0000bc0d0000ee
:10912400b30d0000a80d00009e0d0000930d00007b
:10913400880d00007d0d0000710d0000650d00001c
:10914400590d00004c0d00003f0d0000320d0000d1
:10915400240d0000160d0000070d0000f80c00009f
:10916400e90c0000d90c0000c90c0000b80c000088
:10917400a70c0000960c0000840c0000720c000088
:10918400600c00004d0c0000390c0000260c00009f
:10919400120c0000fd0b0000e80b0000d30b0000d4
:1091a400bd0b0000a70b0000910b00007a0b000020
:1091b400630b00004c0b0000340b00001c0b000080
:1091c400030b0000eb0a0000d20a0000b90a0000f9
:1091d4009f0a0000850a00006b0a0000500a000084
:1091e400360a00001b0a0000000a0000e40900001f
:1091f400c9090000ad0900009109000075090000cb
:10920400590900003d09000020090000040900007c
:10921400e7080000cb080000ae0800009108000039
:1092240074080000580800003c0800001f080000f3
:1092340003080000e7070000cb070000af070000a9
:1092440093070000770700005c0700004007000058
:109254002407000009070000ee060000d306000002
:10926400b80600009d0600008306000069060000a1
:109274004f060000350600001c060000030600002f
:10928400ea050000d0050000b8050000a0050000b4
:109294008805000071050000590500004105000023
:1092a4002b05000014050000fd040000e704000085
:1092b400d1040000bc040000a704000091040000d5
:1092c4007d04000068040000540400004004000011
:1092d4002e0400001a04000008040000f503000036
:1092e400e3030000d1030000bf030000ae0300004d
:1092f4009d0300008c0300007c0300006c0300004d
:109304005c0300004b0300003c0300002e0300003c
:109314001e0300001003000001030000f30200001c
:10932400e6020000d8020000e2ff0000e7ff0000b0
:10933400ecff0000f1ff0000f6ff0000fbff00005f
:1093440000000000050000000a0000000f000000fb
:1093540014000000190000001e000000230000009b
:10936400280000002d00000032000000370000003b
:109374003c00000041000000460000004b000000db
:1093840050000000550000005a0000005f0000007b
:1093940064000000690000006e000000d8ff0000b7
:1093a400d9ff0000daff0000dbff0000dcff000053
:1093b400ddff0000deff0000dfff0000e0ff000033
:1093c400e1ff0000e2ff0000e3ff0000e4ff000013
:1093d400e5ff0000e6ff0000e7ff0000e8ff0000f3
:1093e400e9ff0000eaff0000ebff0000ecff0000d3
:1093f400edff0000eeff0000efff0000f0ff0000b3
:10940400f1ff0000f2ff0000f3ff0000f4ff000092
:10941400f5ff0000f6ff0000f7ff0000f8ff000072
:10942400f9ff0000faff0000fbff0000fcff000052
:10943400fdff0000feff0000ffff00000000000031
:10944400010000000200000003000000040000000e
:1094540005000000060000000700000008000000ee
:10946400090000000a0000000b0000000c000000ce
:109474000d0000000e0000000f00000010000000ae
:10948400110000001200000013000000140000008e
:10949400150000001600000017000000180000006e
:1094a400190000001a0000001b0000001c0000004e
:1094b4001d0000001e0000001f000000200000002e
:1094c400210000002200000023000000240000000e
:1094d40025000000260000002700000028000000ee
:1094e400290000002a0000002b0000002c000000ce
:1094f4002d0000002e0000002f00000030000000ae
:10950400310000003200000033000000340000008d
:10951400350000003600000037000000380000006d
:10952400390000003a0000003b0000003c0000004d
:109534003d0000003e0000003f000000400000002d
:10954400410000004200000043000000440000000d
:1095540045000000460000004700000048000000ed
:10956400490000004a0000004b0000004c000000cd
:109574004d0000004e0000004f00000050000000ad
:10958400510000005200000053000000540000008d
:10959400550000005600000057000000580000006d
:1095a400590000005a0000005b0000005c0000004d
:1095b4005d0000005e0000005f000000600000002d
:1095c400610000006200000063000000640000000d
:1095d40065000000660000006700000068000000ed
:1095e400690000006a0000006b0000006c000000cd
:1095f4006d0000006e0000006f00000070000000ad
:10960400710000007200000073000000740000008c
:10961400750000007600000077000000780000006c
:10962400790000007a0000007b0000007c0000004c
:109634007d000000b5020000d10200000a03000012
:10964400430300007f030000bb030000f803000095
:10965400350400007304000092040000b10400000b
:10966400ed0400002b05000066050000a2050000c3
:10967400dd05000017060000500600008706000004
:10968400be060000d9060000f4060000280700000a
:109694005b0700008c070000bd070000d407000032
:1096a400bb020000d7020000100300004a030000c0
:1096b40086030000c3030000000400003d04000012
:1096c4007b0400009a040000b9040000f6040000c2
:1096d400330500006f050000ab050000e60500003f
:1096e400200600005906000091060000c70600008d
:1096f400e3060000fc0600003107000064070000d8
:1097040096070000c6070000de070000c9ff00003e
:10971400ceff0000d8ff0000e2ff0000ecff0000d5
:10972400f6ff0000000000000a0000001400000022
:10973400190000001e000000280000003200000094
:109744003c00000046000000500000005a000000e9
:10975400640000006e000000780000007d0000003e
:10976400820000008c00000096000000a0000000b1
:10977400aa000000af0000000d0200003502000046
:109784005d02000087020000b3020000df02000057
:109794000e030000250300003d0300006c030000dd
:1097a4009d030000cd030000fe0300002f04000011
:1097b4006104000092040000c3040000f4040000eb
:1097c400250500005505000085050000b4050000ce
:1097d400e3050000110600003f0600006c060000cf
:1097e40098060000c4060000ee06000018070000fa
:1097f400410700006a07000091070000b507000058
:10980400d7070000f5070000d8ff0000e2ff0000c2
:10981400ecff0000f6ff0000000000000a0000005a
:1098240014000000190000001e00000028000000c1
:10983400320000003c000000460000005000000020
:109844005a000000640000006e0000007800000070
:10985400820000008c00000096000000a0000000c0
:10986400aa000000b4000000be000000c800000010
:10987400d2000000dc000000e6000000f000000060
