:020000040000fa
:080000000022040000000000d2
:020000040000fa
:1000080004200000082000000c2000001020000040
:1000180014200000182000001c200000e821000027
:100028002020000024200000282000002c200000b0
:100038003020000034200000382000003c20000060
:100048004020000044200000482000004c20000010
:100058005020000054200000582000005c200000c0
:100068006020000064200000682000006c20000070
:100078007020000074200000782000007c20000020
:100088008020000084200000882000008c200000d0
:100098009020000094200000982000009c20000080
:1000a800a0200000a4200000a8200000ac20000030
:1000b800b0200000b4200000b8200000bc200000e0
:1000c800c0200000c4200000c8200000cc20000090
:1000d800d0200000d4200000d8200000dc20000040
:1000e800e0200000e4200000e8200000ec200000f0
:1000f800f0200000f4200000f8200000fc200000a0
:100108000021000004210000082100000c2100004b
:10011800102100001421000018210000e82100002f
:10012800e82100001c2100002021000024210000fb
:10013800282100002c21000030210000342100007b
:10014800e821000038210000e82100003c210000df
:10015800e8210000e8210000e8210000e821000073
:10016800e82100004021000044210000482100004f
:10017800e8210000e82100004c2100005021000087
:1001880054210000582100005c210000602100007b
:1001980064210000682100006c210000702100002b
:1001a80074210000782100007c21000080210000db
:1001b800e8210000e8210000e8210000e821000013
:1001c800e8210000e8210000e8210000e821000003
:1001d800e8210000e8210000e8210000e8210000f3
:1001e800e8210000e8210000e8210000e8210000e3
:1001f800e8210000e8210000842100008821000097
:100208008c2100009021000094210000982100001a
:100218009c210000a0210000a4210000a8210000ca
:10022800ac210000b0210000b4210000b82100007a
:10023800bc210000e8210000c0210000c42100000a
:10024800c8210000cc210000d0210000d4210000ea
:10025800d8210000dc210000e0210000e42100009a
:020000040000fa
:1040000000220400000000001e3e0400000000002a
:104010001e3e0400000000001e3e040000000000e0
:104020001e3e0400000000001e3e040000000000d0
:104030001e3e0400000000001e3e040000000000c0
:104040001e3e0400000000001e3e040000000000b0
:10405000f83d0400000000001e3e040000000000c7
:104060001e3e0400000000001e3e04000000000090
:104070001e3e0400000000001e3e04000000000080
:10408000b82a0400000000001e3e040000000000ea
:104090001e3e0400000000001e3e04000000000060
:1040a0001e3e040000000000fa2204000000000090
:1040b0001e3e0400000000001e3e04000000000040
:1040c0001e3e0400000000001e3e04000000000030
:1040d0001e3e0400000000008c30040000000000c0
:1040e0001e3e0400000000003c240400000000000c
:1040f0001e3e0400000000001e3e04000000000000
:104100001e3e0400000000001e3e040000000000ef
:1041100008380400000000001e3e040000000000fb
:10412000183c0400000000001e3e040000000000d7
:104130001e3e0400000000001e3e040000000000bf
:104140001e3e0400000000001e3e040000000000af
:104150001e3e0400000000001e3e0400000000009f
:104160001e3e0400000000001e3e0400000000008f
:104170001e3e0400000000001e3e0400000000007f
:104180001e3e0400000000001e3e0400000000006f
:104190001e3e0400000000001e3e0400000000005f
:1041a0001e3e0400000000001e3e0400000000004f
:1041b0001e3e040000000000423c0400000000001d
:1041c0006c3c0400000000001e3e040000000000e3
:1041d0001e3e040000000000f23c0400000000004d
:1041e000902a0400000000001e3e040000000000b1
:1041f0001e3e0400000000001e3e040000000000ff
:104200001e3e0400000000001e3e040000000000ee
:104210001e3e0400000000001e3e040000000000de
:104220001e3e0400000000001e3e040000000000ce
:104230001e3e0400000000001e3e040000000000be
:104240001e3e0400000000001e3e040000000000ae
:104250001e3e0400000000001e3e0400000000009e
:104260001e3e0400000000001e3e0400000000008e
:104270001e3e0400000000001e3e0400000000007e
:104280001e3e040000000000c236040000000000d2
:1042900074360400000000001e3e04000000000010
:1042a0001e3e040000000000cc3a040000000000a4
:1042b000583a0400000000001e3e04000000000008
:1042c0008c380400000000001e3e040000000000c6
:1042d0001e3e0400000000001e3e0400000000001e
:1042e0001e3e0400000000001e3e0400000000000e
:1042f0001e3e0400000000001e3e040000000000fe
:104300001e3e0400000000001e3e040000000000ed
:104310001e3e0400000000001e3e040000000000dd
:104320001e3e0400000000001e3e040000000000cd
:1043300044380400000000001e3e0400000000009d
:104340001e3e0400000000001e3e040000000000ad
:104350001e3e0400000000001e3e0400000000009d
:104360001e3e0400000000001e3e0400000000008d
:104370001e3e0400000000001e3e0400000000007d
:104380001e3e0400000000001e3e0400000000006d
:104390001e3e0400000000001e3e0400000000005d
:1043a0001e3e0400000000001e3e0400000000004d
:1043b0001e3e0400000000001e3e0400000000003d
:1043c0001e3e0400000000001e3e0400000000002d
:0843d0001e3e04000000000085
:020000040000fa
:104400006f5724000eff27000e01880000000000f7
:10441000000020000000e000020032000001200047
:104420002002880014000700060e07000000e000cc
:1044300003003a00608621002100200002003700be
:104440000000200001002000810f700001003200f8
:104450000f000700000020000000e0000200320012
:1044600000000200000000002a4e020000000000d0
:104470000040da000000fe00809820000000e0000c
:104480000200320000202000900188000000060099
:10449000a1028800800478000000eb001f003700b4
:1044a000e284440054a0b4009905ba00e2844400b8
:1044b00054a0b4009906ba00e284440054a0b400a9
:1044c0000006eb00476fde00fd07b200ae0188007a
:1044d000636ce10003003a000ad801000000eb0021
:1044e0000e003700606ce10008003a00004deb0060
:1044f0000a05e800020039003420ec000af0a000b0
:104500008b05e900f9ff3e00040037006168e10017
:10451000010032000086eb000b00070019c7ba004b
:104520000e04e0001905ba0003003a000a00e0009a
:10453000dbff3a0000000600fe07b200ae02880072
:104540008a047800f5ff37000cd0a300e20f4d007d
:104550001c00390089027800354dba000a05e800d0
:10456000020039003420ec000af0a0008b05e900bd
:104570000f003200254dba000a05e800020039009c
:104580003420ec000af0a0008b05e900080032009e
:104590000c00e0000600320015cdba000a05e80064
:1045a000020039003420ec000af0a0008b05e9007d
:1045b0008984e80054a0b4000b00e000e2ff3a0058
:1045c000000006009902ba00055d78008b05e9003d
:1045d000f7ff3200c82ade00055d78008b05e90090
:1045e000f3ff32000c00e000f1ff320019ddba00e9
:1045f000eeff3700809fbe00829fbe003200f800b1
:104600003400f80010002000a001880000202000e5
:1046100090018800000000000200fa0001a8a90033
:10462000119e800000022000008060000000e00079
:10463000030032002093800070928800020037004f
:10464000001880007092880010188000909c8800ec
:104650002018800070ca88003018800080ca880046
:104660004018800090ca880050188000a0ca8800b6
:1046700060188000b0ca880070188000c0ca880026
:1046800080188000d0ca880090188000e08e8900d1
:10469000a018800070948900b018800010938800e2
:1046a00051188200f0032000808f500033003e003c
:1046b000c01880006101b800b0178200c1178200e5
:1046c0000200400083804800b0178a00c1178a00aa
:1046d000d01880006101b80090178200a1178200f5
:1046e000020040008380480090178a00a1178a00ca
:1046f00090ca80006101b900e0ca8000f1ca800060
:104700000200400083804800e0ca8800f1ca8800a7
:10471000a0ca80006101b90000cb800011cb8000ed
:10472000020040008380480000cb880011cb880045
:10473000b0ca80006101b90020cb800031cb80007d
:10474000020040008380480020cb880031cb8800e5
:10475000c0ca80006101b90040cb800051cb80000d
:10476000020040008380480040cb880051cb880085
:10477000501882000000e80050188a00709d8000e8
:10478000610060000000e00002003a00e08e81005d
:10479000f08e8900f02e230010407800e24f500088
:1047a0000e003a00f19e80000002200000806000b0
:1047b0000000e00005003a008064810070928800eb
:1047c00090648100009388000400370090648100a9
:1047d000709288000000eb0000938800f02e230008
:1047e00010407800e14f500010003a00f19e800028
:1047f00000022000008060000000e0000b0032009a
:10480000f19e800000082000008060000000e000b1
:104810000600320070928000000f78000093800044
:10482000709288001e0078000093880080938100b9
:104830008000780070928000808f5000030031006b
:104840000000eb008092880002003700c0122000b8
:1048500080928800209e80000060a000209e88003a
:104860000080fa003400f9003200f9004f01be0068
:104870004f00be00004006003600f800809fbe00da
:10488000829fbe00849fbe00869fbe00889fbe00a0
:104890008a9fbe003200f8003400f80010002000ab
:1048a000a001880000202000900188000000000086
:1048b0000600fa0002a8a900001a800030148a003d
:1048c000101a800020148a00201a800010148a0018
:1048d0001114820020148200808040003014820075
:1048e00080804000b0aa2a000008b8000100d10072
:1048f00040148a00348f020000000000004f78004e
:1049000040222100904078003022210010407800a1
:1049100080cf50000c0032003022210090407800ff
:1049200040222100014878000000eb00b0d089004f
:10493000c00a2100104078008040e800c00a210031
:104940000148780003003700b0d081000000e80083
:10495000b0d0890030222100904078001057240008
:104960001040780080cf50001c003a00419d80002c
:1049700000082000008060000000e00017003a00fe
:10498000519d800000002800008060000000e000d1
:1049900012003a00714c8100703e2000808f500060
:1049a0000e003e00704c8100311482000001400076
:1049b000e09e21000000410001087800704c810059
:1049c0004214820080014000e11b220081804100ee
:1049d000820878000000e800704c8900c19e8000c9
:1049e00000202000008060000000e0001200320083
:1049f000a19d800000002800008060000000e00011
:104a00000b003a00009581000000e8000095890045
:104a10000195810000e22400808f500006003600de
:104a2000a09d800000f0a000a09d8800020037003b
:104a30000000eb0000958900a19d80000000280087
:104a4000008060000000e0005f023200d09e800025
:104a5000610060000000e000c1003200302221004f
:104a6000104078000080fb00e30f50004800320047
:104a7000e30f500005003c00e10f50000a00320037
:104a8000e20f500025003200bd013700e50f500055
:104a900079003200e50f50005a003500e60f500053
:104aa00092003200b60137003114820040148200b7
:104ab000808f500014003600b0d08100e50f500008
:104ac00068013600c09e2100104078000004e0001c
:104ad00066013200c09e2100104078008040e9004d
:104ae000c09e210001487800c09e2100104078003f
:104af0000004e0005f013a00809d800000d0a0002b
:104b0000809d88009e013700504e24009040780020
:104b1000c09e2100014878009901370011148200dd
:104b200040148200808f500014003600b0d0810005
:104b3000e50f500051013600c09e21001040780062
:104b40000004e0004f013200c09e210010407800b8
:104b50008040e900c09e210001487800c09e2100ed
:104b6000104078000004e00048013a00809d800079
:104b700000d0a000809d880081013700504e2400a5
:104b800090407800c09e2100014878007c013700e9
:104b90002114820040148200808f500014003100e4
:104ba000b0d08100e50f50003a013600c09e2100d0
:104bb000104078000004e00038013200c09e21005f
:104bc000104078008040e900c09e21000148780034
:104bd000c09e2100104078000004e00031013a003e
:104be000809d800000d0a000809d88006401370077
:104bf000504e240090407800c09e2100014878006b
:104c00005f0137002114820040148200808f500021
:104c100014003600b0d08100e50f500023013600ab
:104c2000c09e2100104078000004e0002101320005
:104c3000c09e2100104078008040e900c09e210005
:104c400001487800c09e2100104078000004e00078
:104c50001a013a00809d800000d0a000809d88004d
:104c600047013700504e240090407800c09e21003c
:104c7000014878004201370011148200401482007c
:104c8000808f500014003100b0d08100e50f50003b
:104c90000c013600c09e2100104078000004e000a6
:104ca0000a013200c09e2100104078008040e900d7
:104cb000c09e210001487800c09e2100104078006d
:104cc0000004e00003013a00809d800000d0a000b5
:104cd000809d88002a013700504e240090407800c3
:104ce000c09e210001487800250137003114820060
:104cf00040148200808f500014003100b0d0810039
:104d0000e50f5000f5003600c09e210010407800ed
:104d10000004e000f3003200c09e21001040780043
:104d20008040e900c09e210001487800c09e21001b
:104d3000104078000004e000ec003a00809d800004
:104d400000d0a000809d88000d013700504e240047
:104d500090407800c09e210001487800080137008b
:104d600030222100104078000080fb00e30f50004b
:104d700048003200e30f500005003c00e10f5000f6
:104d80000a003200e20f500025003200fc0037001c
:104d9000e50f500079003200e50f50005a00350051
:104da000e60f500092003200f50037003114820007
:104db00040148200808f500014003100b0d0810078
:104dc000e50f5000cb003600c09e21001040780057
:104dd0000004e000c9003200c09e210010407800ad
:104de0008040e900c09e210001487800c09e21005b
:104df000104078000004e000c2003a00809d80006e
:104e000000d0a000809d8800dd003700504e2400b7
:104e100090407800c09e210001487800d8003700fb
:104e20001114820040148200808f50001400310061
:104e3000b0d08100e50f5000b4003600c09e2100c4
:104e4000104078000004e000b2003200c09e210053
:104e5000104078008040e900c09e210001487800a1
:104e6000c09e2100104078000004e000ab003a0032
:104e7000809d800000d0a000809d8800c000370089
:104e8000504e240090407800c09e210001487800d8
:104e9000bb0037002114820040148200808f500034
:104ea00014003600b0d08100e50f50009d003600a0
:104eb000c09e2100104078000004e0009b003200fa
:104ec000c09e2100104078008040e900c09e210073
:104ed00001487800c09e2100104078000004e000e6
:104ee00094003a00809d800000d0a000809d880042
:104ef000a3003700504e240090407800c09e21004f
:104f0000014878009e00370021148200401482007e
:104f1000808f500014003100b0d08100e50f5000a8
:104f200086003600c09e2100104078000004e0009a
:104f300084003200c09e2100104078008040e900cb
:104f4000c09e210001487800c09e210010407800da
:104f50000004e0007d003a00809d800000d0a000a9
:104f6000809d880086003700504e240090407800d5
:104f7000c09e210001487800810037001114820092
:104f800040148200808f500014003600b0d08100a1
:104f9000e50f50006f003600c09e210010407800e1
:104fa0000004e0006d003200c09e21001040780037
:104fb0008040e900c09e210001487800c09e210089
:104fc000104078000004e00066003a00809d8000f8
:104fd00000d0a000809d880069003700504e24005a
:104fe00090407800c09e210001487800640037009e
:104ff0003114820040148200808f5000140036006b
:10500000b0d08100e50f500058003600c09e21004e
:10501000104078000004e00056003200c09e2100dd
:10502000104078008040e900c09e210001487800cf
:10503000c09e2100104078000004e0004f003a00bc
:10504000809d800000d0a000809d88004c0037002b
:10505000504e240090407800c09e21000148780006
:105060004700370000000000450037000000000046
:10507000430037000000000041003700000000003e
:105080003f003700000000003d0037000000000036
:105090003b0037000000000039003700000000002e
:1050a0003700370000000000350037000000000026
:1050b000330037000000000031003700000000001e
:1050c0002f003700000000002d0037000000000016
:1050d0002b0037000000000029003700000000000e
:1050e0002700370000000000250037000000000006
:1050f00023003700000000002100370000000000fe
:105100001f003700000000001d00370000000000f5
:105110001b003700000000001900370000000000ed
:1051200017003700000000001500370000000000e5
:1051300013003700000000001100370000000000dd
:105140000f003700000000000d00370000000000d5
:105150000b003700000000000900370000000000cd
:1051600007003700000000000500370000000000c5
:1051700003003700000000000100370000000000bd
:10518000819d800000002200008060000000e0009f
:105190008a003200704c81000000e900800040006d
:1051a000e01b220000804000810c200001087800f4
:1051b000f09d80000090a000f09d88008094810008
:1051c0009194810061004000e08048008094890053
:1051d00091948900a0ca8100b1ca81006100400099
:1051e000e0804800a0ca8900b1ca8900519d8000b2
:1051f00000002200008060000000e00006003a008d
:105200000000eb00608f8900509d800000d0a0005e
:10521000509d88000c003700419d80000004200054
:10522000008060000000e00004003200e08f810098
:105230000000e800e08f890003003700e08f810064
:105240000000e900e08f89003022210090407800c2
:105250009029230001487800a09d800000f0a10063
:10526000a09d8800809d800000d0a100809d8800c6
:10527000504e240090407800c09e210001487800e4
:10528000d00a2100104078008040e800d00a2100b8
:1052900001487800a00880008000eb00100798000b
:1052a00021079800b00880008000eb00a0868800ed
:1052b000b1868800a0868000b1868000c000dd0035
:1052c000000020000001be001e009000ae00900013
:1052d0000200400083804800a0868800b1868800d4
:1052e0008286800093868000a0868000b186800040
:1052f00002004000838048008180d1000080d300fc
:105300004086880051868800a0868000b186800093
:105310008086880091868800a2868000b3868000ff
:105320004086800051868000800f5100818f590097
:105330001a003d0040868000518680008180d100a7
:105340000080d300c0868800d1868800c086800097
:10535000d1868000408dde00cf8dde000a0078000f
:1053600020098800c0868000d18680000000780077
:10537000100988004086800051868000408cde0045
:10538000cf8cde000800780050098800408680003d
:10539000518680000000780040098800c0868000a7
:1053a000d186800060868800718688001621ef0013
:1053b0001421ef001821ef0003003700f09d80005a
:1053c0000090a100f09d8800c00a210010407800e4
:1053d000f44f500044003600d00a2100904078007d
:1053e000e00a210001487800d00a2100104078002e
:1053f000f24f500029003600119e8000000024006a
:10540000008060000000e00011003200c114820042
:1054100070022000808f50000d003e00b09d800083
:10542000700060000000e0000300320070222100e4
:10543000c1c0b30001487800b09d80000040a100c9
:10544000b09d8800109e800000e0a100109e8800a2
:10545000119e800000002400008060000000e00039
:105460001a003a00b09d8000700060000000e0006b
:105470000300320070222100c1c0b300014878004f
:10548000b09d80000040a100b09d8800109e80006b
:1054900000e0a100109e88000c003700c19e800033
:1054a00000202000008060000000e00007003a00bb
:1054b000d00a210010407800e94f500003003e0060
:1054c000b09d80000040a000b09d8800d00a21005f
:1054d0008040eb0001487800d00a2100904078001d
:1054e000c00a210001487800000000000000000010
:1054f000000000000080fa003400f9003200f900da
:105500004f05be004f04be004f03be004f02be0059
:105510004f01be004f00be003600f90000400600fb
:105520003200f8003400f800881f780018002000ce
:10553000a8018800082020009801880000000000d1
:105540004f0478000000fa000688a9002688a90008
:10555000000000000000000000000000000000004b
:105560000080fa003400f9003200f9000040060023
:105570003600f800809fbe00829fbe00849fbe0060
:10558000869fbe00881f78003200f8003400f800c3
:1055900010002000a0018800002020009001880059
:1055a000000000000000fa000108a900b0c080005f
:1055b0000000e00003003200b0c080000000e900fd
:1055c000b0c08800409e8000700060000000e000d5
:1055d0000f003200a07280007000600000f0a70091
:1055e0000000ea000000e9004f00de000040780003
:1055f0000080fb00610060004400dd00a1728000bb
:105600000140a10001007000a07288000100370075
:10561000548ea900119e8000008020000080600050
:105620000000e0000c003200442ea900440ea90046
:10563000446ea900444ea90044aea900448ea900be
:1056400023eca90023cca90043eca90043cca9007a
:1056500063eca90063cca900502782000000e000a1
:1056600009003200502782000000e90050278a001c
:10567000502782000000e00003003a00c09d800037
:105680000000a100c09d8800d19e80000002200083
:10569000008060000000e0009f003200b09d8000ac
:1056a000700060000000e0009b003200119e80004e
:1056b00000002400008060000000e000960032003e
:1056c000b01482000000e00003003200b014820039
:1056d0000000e900b0148a00e09d80000040a100b5
:1056e000e09d8800b01482000000e0008a003a00cb
:1056f000c0148200b0148a003029240010407800c1
:105700008040e8003029240001487800019e800094
:1057100000402000008060000000e000080032002f
:10572000c19e800000202000008060000000e0009a
:1057300003003a00302924008040eb000148780043
:105740003029240010407800e54f50000300360057
:10575000302924008040eb0001487800d09e800072
:10576000610060000000e0002c003a0030292400b5
:10577000104078000080fb00e20f5000160032005d
:10578000e20f500005003c000000e0000a0032007b
:10579000e10f50000c0032004b003700e40f5000c6
:1057a00015003200e40f50000f003500e50f5000e7
:1057b00016003200440037002022210031c0b3001f
:1057c00001487800400037002022210011c0b300ba
:1057d000014878003c0037002022210051c0b3006e
:1057e00001487800380037002022210041c0b30072
:1057f00001487800340037002022210061c0b30046
:1058000001487800000000002f003700202221000e
:1058100021c0b300014878002b0037003029240054
:10582000104078000080fb00e20f500016003200ac
:10583000e20f500005003c000000e0000a003200ca
:10584000e10f50000c0032001f003700e40f500041
:1058500015003200e40f50000f003500e50f500036
:1058600015003200180037002022210021c0b300ab
:1058700001487800140037002022210061c0b300e5
:1058800001487800100037002022210041c0b300f9
:10589000014878000c0037002022210051c0b300dd
:1058a00001487800080037002022210011c0b30011
:1058b00001487800040037002022210031c0b300e5
:1058c000014878000000000020222100904078006c
:1058d00030222100014878008a8d0200000000007b
:1058e000a09d800000f0a000a09d880070ad800009
:1058f0000000e00008003a00c19e80000020200067
:10590000008060000000e00003003200b09d8000d5
:105910000040a100b09d8800204d24001040780078
:105920008040e900204d240001487800204d2400eb
:10593000104078000004e000ec013a00204d240003
:1059400041c0b300014878000161800000002800d8
:10595000008060000000e0000a003a000162800060
:1059600000002800008060000000e00005003a0010
:105970000163800000002800008060000000e0005b
:105980002300320050d681000000e0001d003200ec
:1059900050d681000000e90050d6890050d6810021
:1059a0000000e0001d003a00218ca900218ca80015
:1059b00021618000c0ff2f0000806000206188000e
:1059c000418ca900418ca80021628000c0ff2f00fb
:1059d0000080600020628800618ca900618ca800b2
:1059e00021638000c0ff2f000080600020638800da
:1059f0009c4f020001000000502b820050d689000d
:105a000007003700502b820050d689000400370071
:105a1000502b820050d689000100370000000000a2
:105a200070cf81000000e0000300320070cf8100e1
:105a30000000e90070cf8900f01482000115820097
:105a4000e00f5000e08f580011003200f014820087
:105a50000115820061005000e0805800f0148a00b7
:105a600001158a00f014820001158200e00f500039
:105a7000e08f580006003a007022210041c1b300b7
:105a800001487800f09d80000060a000f09d880033
:105a900060222100104078000004e0002a0032005b
:105aa000409e8000700060000000e0001b0032009b
:105ab000e09280000000e900e0928800e09280001f
:105ac0000000e00047003a00c0928000e0928800a9
:105ad000409e80000040a100409e8800f19e800012
:105ae00000202000008060000000e00005003a0077
:105af000009f8000610060000000e00001003a00ab
:105b00001a29ef0060222100104078008040e9004f
:105b1000602221000148780032003700f0928000b6
:105b20000000e900f0928800f09280000000e000a0
:105b30002c003a00d0928000f092880084cc0200c1
:105b40000100000027003700f09280000000e00014
:105b500003003200f09280000000e900f09288001b
:105b6000919d800000002400008060000000e000a3
:105b70001c003200819d8000000021000080600038
:105b80000000e00005003a00919d80000000280020
:105b9000008060000000e00002003200a645020024
:105ba00001000000819d8000000021000080600055
:105bb0000000e00003003200809d800000c0a100d2
:105bc000809d8800919d800000002800008060007a
:105bd0000000e00003003200909d800000f0a10072
:105be000909d8800d0d081000000e00003003200ca
:105bf000d0d081000000e900d0d0890000572400f7
:105c0000104078008040e9000057240001487800e7
:105c100000572400104078000004e00004003a001f
:105c20000057240021c0b300014878002348a80091
:105c3000202b82000000e900202b8a00202b82000c
:105c40000000e00002003a00803e2000202b8a0085
:105c500070512400104078000004e000050032007c
:105c600070512400104078008040e90070512400f9
:105c70000148780030cc81000000e00003003200d1
:105c800030cc81000000e90030cc8900e09723008f
:105c9000104078000004e0001c003200a19d80004c
:105ca00000402000008060000000e000170032008b
:105cb00062cc810073cc810080cc810091cc8100ca
:105cc000800f5100818f590010003e0060cc810090
:105cd00071cc810061004000e080480060cc890008
:105ce00071cc890062cc810073cc810080cc8100b2
:105cf00091cc8100800f5100818f59000300390041
:105d0000b09d800000e0a000b09d8800a0d0810080
:105d10000000e00003003200a0d081000000e90094
:105d2000a0d0890090a12300104078008040e900b5
:105d300090a123000148780090a123001040780032
:105d40000004e00012003a00b19d80000000210034
:105d50000080600000f0a7000000ea000000e900f9
:105d60004f00de00004078000080fb006100600012
:105d70004c00dd00b19d800001c0a1000100700059
:105d8000b09d880090a12300d1c7b30001487800de
:105d900010ca81000000e0000900320010ca810032
:105da0000000e90010ca890010ca81000000e0006c
:105db00003003a00c09723008040eb0001487800c0
:105dc000702882000000e00003003200702882008a
:105dd0000000e90070288a00f02782000000e0003f
:105de00009003200f02782000000e900f0278a0055
:105df000f02782000000e00003003a00709d800060
:105e000000f0a100709d8800f0a581000000e9006d
:105e1000f0a58900e02782000000e00004003200c5
:105e2000e02782000000e900e0278a000100370037
:105e300000000000e09481000000e0000900320052
:105e4000e09481000000e900e0948900e094810082
:105e50000000e00003003a00609d80000050a000b8
:105e6000609d880070ad80000000e00003003200fb
:105e700070ad80000000e90070ad8800d094810012
:105e80000000e00005003200e02e2000d0948900e0
:105e9000609d80000040a100609d8800a464810096
:105ea000b5648100e0648100f164810018c0b30032
:105eb0000001be000400be005040020000000000cf
:105ec0000000e000010035000044eb000804e000a1
:105ed00021003200a0648100b1648100a2702d0015
:105ee00033c22300263e020000000000a0648900a7
:105ef000b1648900a4648100b5648100e06481001c
:105f0000f164810018c0b3000001be000400be00af
:105f100054400200000000000000e00001003d00cd
:105f20000044eb000804e0002b003200e064810034
:105f3000f16481006011b8005040020000000000d0
:105f40000000e00024003a006000b800a06489006e
:105f5000b164890020003700a0648100b164810031
:105f6000a2702d0033c22300243e02000000000076
:105f7000a0648900b1648900a4648100b5648100d3
:105f8000e0648100f164810018c0b3000001be002c
:105f90000400be0050400200000000000000e000cd
:105fa000010034000044eb000804e0000a00320065
:105fb000e0648100f16481006011b800504002008b
:105fc000000000000000e00003003a006000b8009c
:105fd000a0648900b1648900519d80000000220006
:105fe000008060000000e00017003200608f810038
:105ff0000000e800608f8900618f8100708f810050
:10600000808f500021003900e08f8100a08f89002f
:106010000000eb00e08f8900509d800000b0a000e0
:10602000509d8800609d800000a0a000609d8800b9
:10603000509d800000d0a100509d88000000eb0022
:10604000608f890011003700608f81000000e80038
:10605000608f8900618f8100708f8100808f500078
:106060000a0039000000eb00608f89000000eb009f
:10607000a08f8900609d800000a0a000609d880026
:10608000509d800000b0a000509d8800c096210067
:10609000104078008040e900c09621000148780057
:1060a000c0962100104078000004e00010003a0083
:1060b000c096210021c0b30001487800119e8000e5
:1060c00000202000008060000000e0000800320096
:1060d000d0962100b1cbb30001487800f000200039
:1060e000fcd10200000000000100370000000000a9
:1060f0000080fa003400f9003200f9004f04780003
:106100004f03be004f02be004f01be004f00be0055
:106110003600f900004006003600f800809fbe00ff
:10612000829fbe00849fbe00869fbe00889fbe00e7
:106130008a9fbe008c9fbe003200f8003400f80039
:1061400010002000a001880000202000900188009d
:10615000000000000e00fa000268a900d19e800035
:1061600000022000008060000000e0000900320012
:10617000b09d8000700060000000e000ce023200a0
:10618000119e800000002400008060000000e000fc
:10619000c9023a00e09d8000700060000000e0004d
:1061a00004003200709d8000610060000000e0008b
:1061b0000f003200419d800000042000008060003c
:1061c0000000e00005003200b28f02000000000075
:1061d00021222100804878002d003700348f0200f2
:1061e00000000000212221008048780028003700ac
:1061f000d09e8000610060000000e0000f003a00c7
:10620000419d800000042000008060000000e0004c
:1062100005003200907802000100000021222100d8
:1062200080487800130037000e780200010000005b
:1062300021222100804878000e003700419d800017
:1062400000042000008060000000e0000500320033
:106250000e78020001000000212221008048780011
:106260000400370090780200010000002122210084
:106270008048780030408000680060000000e00046
:106280000200320080098000904c89002668a80036
:106290003022210090407800202221001040780018
:1062a00080cf50008402320020222100104078006c
:1062b0000080fb004200dd00c1952300008040000b
:1062c000104078008000fb00302221001040780050
:1062d0000080fb00808f50000e0032002022210041
:1062e000104078000080fb004200dd000000e80064
:1062f000c195230000804000104078008000fb0022
:1063000030222100104078000080fb00808f500078
:1063100022003a0080948100919481006100400045
:10632000e08048008094890091948900a0ca81008f
:10633000b1ca810061004000e0804800a0ca890025
:10634000b1ca8900f09481000000e800f09489004f
:10635000f09481008000eb00d640020000000000b5
:1063600012c0b300424f98001257240093482400f3
:1063700054400200000000000000e00002003d0068
:106380008041eb00434f98004e4b90000604e00024
:10639000020032000000eb00f0948900202221006e
:1063a000904078003022210001487800d19d800083
:1063b00000042000008060000000e00011003200b6
:1063c000200c210090407800400c21001040780003
:1063d00080cf500006003d00200c210010407800c6
:1063e0008040e800200c21000148780015003700ab
:1063f000400c210090407800200c210001487800da
:1064000010003700200c210090407800400c210043
:106410001040780080cf500006003400200c21008e
:10642000104078008040e900200c210001487800ed
:1064300004003700400c210090407800200c21001f
:1064400001487800d19d8000000820000080600095
:106450000000e00011003200300c21009040780074
:10646000500c21001040780080cf500006003d0005
:10647000300c2100104078008040e800300c2100f2
:106480000148780015003700500c2100904078003a
:10649000300c21000148780010003700300c21003a
:1064a00090407800500c21001040780080cf5000c0
:1064b00006003400300c2100104078008040e900d4
:1064c000300c21000148780004003700500c2100f6
:1064d00090407800300c210001487800e09d800059
:1064e000700060000000e000c3013200709d800079
:1064f000610060000000e000bf013a00a0088000d9
:106500008000eb001007980021079800b008800079
:106510008000eb004086880051868800408680001d
:1065200051868000c000dd00000020000001be0098
:106530001e009000ae0090000200400083804800e2
:1065400040868800518688001621ef001421ef0054
:106550001821ef0030222100104078000080fb005d
:10656000e30f500018003200e30f500005003c001c
:10657000e10f50000a003200e20f50000d0032001f
:1065800025003700e50f500019003200e50f5000dc
:1065900012003500e60f50001a0032001e003700ce
:1065a0004086800051868000408f8800518f88008f
:1065b000190037004086800051868000608f880077
:1065c000718f88001400370040868000518680005b
:1065d000808f8800918f88000f00370040868000f0
:1065e00051868000a08f8800b18f88000a00370094
:1065f0004086800051868000c08f8800d18f88003f
:10660000050037004086800051868000e08f8800ba
:10661000f18f880000000000d09e800061006000c3
:106620000000e00035003a00419d80000004200099
:10663000008060000000e00018003200200c210003
:10664000104078000004e0000a003d00200c21000a
:10665000104078000040ea0080407800805421001b
:1066600001487800d09d80000040a100d09d8800a6
:1066700056003700d09d80000040a000d09d8800cb
:106680000000eb0070268a00302221009040780044
:10669000a00a2100014878004c003700300c21008e
:1066a000104078000004e0000a003d00300c21009a
:1066b000104078000040ea008040780080542100bb
:1066c00001487800d09d80000040a100d09d880046
:1066d0003e003700d09d80000040a000d09d880083
:1066e0000000eb0070268a003022210090407800e4
:1066f000a00a21000148780034003700419d800045
:1067000000042000008060000000e00018003a0053
:10671000200c2100104078000004e0000a003d0039
:10672000200c2100104078000040ea0080407800f2
:106730008054210001487800d09d80000040a100d5
:10674000d09d880021003700d09d80000040a0002f
:10675000d09d88000000eb0070268a0030222100c6
:1067600090407800a00a2100014878001700370007
:10677000300c2100104078000004e0000a003d00c9
:10678000300c2100104078000040ea008040780082
:106790008054210001487800d09d80000040a10075
:1067a000d09d880009003700d09d80000040a000e7
:1067b000d09d88000000eb0070268a003022210066
:1067c00090407800a00a210001487800809e2100b6
:1067d000104078000004e000450032000000eb00ab
:1067e000000f78000c0037001e00e800c200dd003a
:1067f000400e2100008040009000900010007800c2
:106800001e017800c211dd00420e2100028141000c
:106810000089be001e0fe800809e21001040780015
:106820000080fb000000e9009e0f5000eeff3e00dc
:10683000809e2100104078000080fb000001e900ec
:106840004086800051868000c211dd00420e21008a
:10685000028141000089be006000b800208f8800de
:10686000318f88000000eb00000f78000d0037002a
:106870001e007800c200dd00400e210000804000b4
:106880001001780090019000208f8000318f8000ef
:106890000200400083804800208f8800318f8800ec
:1068a0001e0fe800809e2100104078000080fb0051
:1068b0009e0f5000eeff3e00208f8000318f800041
:1068c000929e2100124178000281fb008201780033
:1068d0008301e900030033008100d1000080d30070
:1068e000fbff3700208f8800318f8800660037005b
:1068f0004086800051868000208f8800318f88007c
:10690000d09e8000610060000000e0002f003a008f
:1069100030222100104078000080fb004200dd00a2
:10692000c195230000804000104078006047980027
:106930006e4090000080fb004200dd0063004000dc
:10694000c195230000804000104078000001fb004a
:10695000cf91de004086800051868000809ab90089
:10696000828bb90086027800050242000010b80050
:106970000102420084007800400798005107980007
:1069800040079800510798004e009000de009000ec
:106990004909dd004706de000c067100c78ede00e7
:1069a0004c0798005d079800228f8000338f80008d
:1069b0004e009000de0090000200400083804800fe
:1069c000208f8800318f88002f003700302221006f
:1069d000104078000080fb004200dd000000e8006d
:1069e000c195230000804000104078006047980067
:1069f0006e4090000080fb004200dd000080e80057
:106a0000c195230000804000104078000001fb0089
:106a1000cf91de004086800051868000809ab900c8
:106a2000828bb90086027800050242000010b8008f
:106a30000102420084007800400798005107980046
:106a400040079800510798004e009000de0090002b
:106a50004909dd004705de000a057100c78dde002b
:106a60004a0798005b079800228f8000338f8000d0
:106a70004e009000de00900002004000838048003d
:106a8000208f8800318f8800d19e80000000280070
:106a9000008060000000e00009003200208f8000cc
:106aa000318f8000cd09dd004300de0000807100e1
:106ab000c308de0040868800518688000800370041
:106ac000208f8000318f80004c0bdd004400de0001
:106ad00000007300c408de004086880051868800ec
:106ae0004286800053868000a0ff2f000100200016
:106af000800f5100818f59000e00340040868000c5
:106b0000518680004d09dd004304de000804710059
:106b1000c38cde000800780070cd8800d1098000a9
:106b2000f0fc2f00008060000040a000d009880029
:106b300031003700408680005186800000007800d8
:106b400070cd8800d1098000f0fc2f00008060002b
:106b5000d0098800d09d80000000a100d09d880051
:106b600071cd8000703e2000808f50000f003e00ed
:106b7000e09d8000700060000000e0000b0032002b
:106b8000d19e800000002100008060000000e00035
:106b900006003a00d09e800000c0a000d09e880071
:106ba000309e800000e0a000309e880071cd800003
:106bb000004b2000808f50000f003600e09d8000c9
:106bc000700060000000e0000b003200319e800089
:106bd00000002400008060000000e0000600320099
:106be000309e800000e0a100309e8800d09e800092
:106bf00000c0a100d09e8800a09d800000f0a000f1
:106c0000a09d88008a8d020000000000419d800048
:106c100000042000008060000000e000040032005a
:106c2000808580000000e80080858800060037002d
:106c3000808580000000e000030032008085800035
:106c40000000e90080858800d19e800000022000bd
:106c5000008060000000e00017003a00519d8000b5
:106c600000002200008060000000e00006003a0002
:106c70000000eb00608f8900509d800000d0a000d4
:106c8000509d88000c003700419d800000042000ca
:106c9000008060000000e00004003200e08f81000e
:106ca0000000e800e08f890003003700e08f8100da
:106cb0000000e900e08f89000080fa003400f9004c
:106cc0003200f9004f06be004f05be004f04be0063
:106cd0004f03be004f02be004f01be004f00be007a
:106ce0003600f90000400600809fbe003200f80028
:106cf0003400f80010002000a001880000202000cf
:106d000090018800000000000000fa000a68a90055
:106d1000d0a1230090407800c0a12300104078004b
:106d200080cf50000e003100d0a123001040780029
:106d30000080fb00419a2200008040001040780053
:106d40000080fb00a0128800d0a123001040780032
:106d50008040e800d0a123000148780004003700fb
:106d6000c09d80000040a100c09d88002a68a90045
:106d70000080fa003400f9003200f9004f00be0034
:106d8000004006003600f800809fbe00829fbe00d3
:106d9000849fbe00869fbe003200f8003400f800d9
:106da00010002000a0018800002020009001880031
:106db000000000000400fa00b0128000004f7800cc
:106dc0000a48a90090128000620060000000e00004
:106dd000010032005222a900409d80006200600044
:106de0000000e00015003a00a05521001040780096
:106df0009e40780080cf50000d003a001e40780081
:106e0000e14f40000a003a00a05521008040eb000d
:106e100001487800409d80000010a000409d88003f
:106e2000b05521008040eb00014878006f0037002a
:106e3000a05521001e4878006c003700b055210095
:106e400010407800fe4f500004003600409d800046
:106e50000010a100409d880064003700b05521005b
:106e6000104078000080fb00515821000080400055
:106e70001e487800b0552100104078008040e8009e
:106e8000b055210001487800b0552100104078002d
:106e90008080fb0050582100104078000080fb00eb
:106ea0000000e800808f500050003400409d8000ba
:106eb0000010a100409d8800508221009040780081
:106ec000408221000148780050582100104078008d
:106ed0000080fb000000e80051582100e89102000a
:106ee0000000000051582100914078008180fb0093
:106ef0008100e80052582100810041009140780053
:106f0000814f500004003200409d80000020a0000e
:106f1000409d88003500370060582100904078007f
:106f200090c3b30080cf500004003200409d800029
:106f30000030a000409d88002c00370070582100d0
:106f4000104078000004e00028003a00805821003a
:106f50009040780030c7b30080cf500023003a0043
:106f6000905821009040780020cbb30080cf500093
:106f70001e003a00b0582100104078000080fb004d
:106f8000100798001e0090004800dd0010079800d0
:106f9000a0582100104078000080fb009e00900067
:106fa00000804000100798009e009000a0cc810057
:106fb000808f50000d003a00b022ef00309e80001c
:106fc0000010a000309e880065eea8008223020019
:106fd000010000007022210021c0b30001487800a8
:106fe000f09d80000060a100f09d88000080fa0004
:106ff0003400f9003200f9004f03be004f02be001a
:107000004f01be004f00be003600f90000400600f0
:107010003600f800809fbe00829fbe00849fbe00a5
:10702000869fbe003200f8003400f80010002000f7
:10703000a0018800002020009001880000000000ce
:107040000000fa002348a900c19d80000000220032
:10705000008060000000e00002003200364f0200b5
:10706000000000000080fa003400f9003200f9004e
:107070004f03be004f02be004f01be004f00be00d6
:107080003600f90000400600809fbe00821f780095
:107090003200f8003400f80010002000a001880041
:1070a0000020200090018800000000000000fa008d
:1070b0000f68a90080c780004116800081407800d9
:1070c000028d2100000041000148780080c7800047
:1070d0000000e80080c7880081c7800070c780007a
:1070e000808f50000600310080c78000218b210076
:1070f00000804000104078000080fb0040168800af
:107100000080fa003400f9003200f9004f017800e5
:107110004f00be00004006003600f800809fbe0011
:10712000829fbe00849fbe00869fbe003200f80092
:107130003400f80010002000a0018800002020008a
:1071400090018800000000000200fa000b68a9000e
:1071500060cd80004115800081407800b298210008
:10716000000041000148780060cd80000000e80088
:1071700060cd880061cd800050cd8000808f5000b0
:107180000600310060cd8000d196210000804000d3
:10719000104078000080fb004015880061cd800021
:1071a00050cd8000808f5000b80039002ed20200f0
:1071b00000000000c0982100104078000080fb0013
:1071c000a0c78800a0c780004800dd00a0c78800d5
:1071d000d0982100104078008080fb00a0c780007c
:1071e00000804000a0c78800e0982100104078008f
:1071f0000080fb00b0c78800b0c780004800dd00f9
:10720000b0c78800f0982100104078008080fb0013
:10721000b0c7800000804000b0c7880000992100fe
:10722000104078000080fb00c0c78800c0c7800005
:107230004800dd00c0c78800109921001040780088
:107240008080fb00c0c7800000804000c0c788006d
:1072500020992100104078000080fb000085880004
:10726000008580004800dd000085880030992100fd
:10727000104078008080fb00008580000080400086
:107280000085880040992100104078000080fb00b4
:10729000a0cd8800a0cd80004800dd00a0cd8800f2
:1072a00050992100104078008080fb00a0cd800024
:1072b00000804000a0cd8800609921001040780037
:1072c0000080fb00c0cd8800c0cd80004800dd00fc
:1072d000c0cd880070992100104078008080fb00ac
:1072e000c0cd800000804000c0cd88008099210082
:1072f000104078000080fb00d0cd8800d0cd800009
:107300004800dd00d0cd8800909921001040780021
:107310008080fb00d0cd800000804000d0cd880070
:10732000a1cd800000002800808f500002003a00ac
:10733000e0cd8000a0cd8800c1cd800000002800f5
:10734000808f500002003a00f0cd8000c0cd880050
:10735000d1cd800000002800808f500002003a004c
:1073600000ce8000d0cd8800a0cd8000e0cd880088
:10737000c0cd8000f0cd8800d0cd800000ce880048
:10738000c1cd8000010f7800a0cd8000c0cd880065
:107390001e00ea00a0cd8800a0c780000000ea001f
:1073a000a0c78800b0c780000000ea00b0c788000e
:1073b000a1cd80002064810000805000cf80de00dd
:1073c000d04002000000000010ce880021ce8800ce
:1073d000c1cd80003064810000805000cf80de008d
:1073e000d04002000000000030ce880041ce88006e
:1073f000d1cd80004064810000805000cf80de004d
:10740000d04002000000000050ce880061ce88000d
:10741000a1c780005064810000805000cf80de0052
:10742000d04002000000000030c8880041c8880039
:10743000b1c780006064810000805000cf80de0012
:10744000d04002000000000050c8880061c88800d9
:10745000c1c780007064810000805000cf80de00d2
:10746000d04002000000000070c8880081c8880079
:107470002348a800409d800000e0a000409d8800b7
:10748000409d800000d0a000409d88000080fa0050
:107490003400f9003200f9004f03be004f02be0075
:1074a0004f01be004f00be003600f900004006004c
:1074b000809fbe003200f8003400f8001000200069
:1074c000a00188000020200090018800000000003a
:1074d0000000fa000b28a900d007200070288a00bd
:1074e000103f2300104078008080fb00a09f8100a7
:1074f000808f50001c003d00719d80000000210025
:10750000008060000000e00009003200103f23000e
:10751000104078000080fb00613f230000804000a5
:10752000104078000000fb00a0158800080037001c
:10753000103f2300104078000080fb00412f230003
:1075400000804000104078000080fb00a0158800fb
:10755000103f2300104078008040e800103f2300d7
:107560000148780007003700709d80000090a1005e
:10757000709d8800909d800000a0a100909d8800d3
:107580002b28a9000080fa003400f9003200f9002d
:107590004f00be00004006003600f800809fbe008d
:1075a000829fbe00849fbe00869fbe003200f8000e
:1075b0003400f80010002000a00188000020200006
:1075c00090018800000000000200fa00b015800061
:1075d000004f78000b08a900401f2000f0278a0008
:1075e00090158000620060000000e00001003200a1
:1075f000b222a900719d800000002400008060007c
:107600000000e00029003200203f230010407800f5
:107610000080fb009e407800a2452300000041004e
:1076200001487800203f2300104078008040e800a7
:10763000203f230001487800203f230010407800bd
:10764000e24f500071003600203f230010407800c8
:107650000080fb000080e900a1452300008040007d
:1076600010407800ed4f500068003a00203f2300a2
:10767000104078000080fb000000e900a1452300d5
:107680000080400010407800ea4f50005f003a0050
:10769000203f23008040eb0001487800709d80006f
:1076a00000a0a000709d880058003700719d8000e8
:1076b00000002800008060000000e00015003a0093
:1076c000305a2100104078009e40780080cf500052
:1076d0000d003a001e407800e14f40000a003a00d9
:1076e000305a21008040eb0001487800709d8000f6
:1076f00000f0a000709d8800405a21008040eb00ff
:107700000148780041003700305a21001e487800b7
:107710003e003700405a210010407800e34f4000ff
:1077200004003600709d800000f0a100709d88006c
:1077300036003700405a2100104078000080fb00de
:10774000f1ad2200008040001e487800405a210020
:10775000104078008040e800405a2100014878003d
:10776000405a2100104078008080fb00f0ad2200dc
:10777000104078000080fb000000e800808f50007f
:1077800022003400709d800000f0a100709d8800f0
:1077900000ae22009040780000c7b30080cf5000b8
:1077a00003003a000000000000000000000000009c
:1077b000f0ad2200104078000080fb000000e800df
:1077c000f1ad2200e891020000000000f1ad2200be
:1077d000914078008180fb008100e800f2ad22003a
:1077e0008100410091407800814f50000400320038
:1077f000809d80000000a000809d8800030037006d
:10780000809d80000010a000809d88000080fa000c
:107810003400f9003200f9004f03be004f02be00f1
:107820004f01be004f00be003600f90000400600c8
:10783000801f78003200f8003400f80010002000ab
:10784000a0018800002020009001880000000000b6
:107850000000fa000388a900d09d80000000a0006d
:10786000d09d8800d09d80000010a000d09d880091
:107870000080fa003400f9003200f9004f0078006f
:1078800000400600809fbe003200f8003400f8007f
:1078900010002000a0018800002020009001880036
:1078a000000000000000fa000087800011878000bf
:1078b00061004000e0804800008788001187880050
:1078c00005e8a9000080fa003400f9003200f90050
:1078d0004f00be00004006003600f800809fbe004a
:1078e000829fbe00849fbe00869fbe003200f800cb
:1078f0003400f80010002000a001880000202000c3
:1079000090018800000000000000fa000608a900ad
:10791000d19e800000022000008060000000e00096
:1079200027003200b09d8000700060000000e00081
:1079300023003a00a09d800000f0a000a09d8800d8
:10794000d09e8000610060000000e0000b003a0063
:1079500090292300104078000080fb004200dd00e9
:10796000c1952300008040001040780080407800de
:1079700030222100014878000b00370090292300b5
:10798000104078000080fb004200dd000000e800ad
:10799000c1952300008040001040780080407800ae
:1079a00030222100014878003022210090407800e8
:1079b00020222100014878008a8d0200000000008a
:1079c0000080fa003400f9003200f9004f03be00d5
:1079d0004f02be004f01be004f00be003600f9004e
:1079e000004006003600f800809fbe00829fbe0067
:1079f000849fbe00869fbe003200f8003400f8006d
:107a000010002000a00188000020200090018800c4
:107a1000000000000000fa002221ef006000b80022
:107a200000878800118788000668a900d19e800021
:107a300000022000008060000000e00063003a00c7
:107a4000b09280000000e800b092880070cd800005
:107a50000000e0000600320070cd8000b009880010
:107a600070cd800090cd88000000eb0070cd8800c4
:107a7000b1098000f04a2000808f500002003e00d3
:107a8000004b2000b009880080542100104078008d
:107a90000004e0002f0032008054210010407800e4
:107aa0008040e90080542100014878008054210082
:107ab000104078000004e00026003a000000eb00cf
:107ac00070268a00d09d80000040a000d09d8800d4
:107ad000d09e8000610060000000e0000f003a00ce
:107ae000419d800000042000008060000000e00054
:107af000050032009078020001000000a10a210078
:107b000080487800130037000e7802000100000062
:107b1000a10a2100804878000e003700419d8000b6
:107b200000042000008060000000e000050032003a
:107b30000e78020001000000a10a210080487800b0
:107b4000040037009078020001000000a10a210023
:107b5000804878004251020001000000d19e800060
:107b600000002800008060000000e0000b003200f0
:107b70007126820070032000808f500004003e00b8
:107b8000702682006800400070268a000d003700d1
:107b9000f003200070268a000a0037007126820058
:107ba000b0032000808f500004003e007026820049
:107bb0006400400070268a0002003700f0032000b5
:107bc00070268a0080098000a06589000080fa0084
:107bd0003400f9003200f9004f03be004f02be002e
:107be0004f01be004f00be003600f9000040060005
:107bf000801f78003200f8003400f80010002000e8
:107c0000a0018800002020009001880000000000f2
:107c10000000fa0000408000640060000000e00006
:107c2000010032000048a9000080fa003400f90089
:107c30003200f9004f007800004006000040da00f2
:107c40000000fe000000050003f0a200889fbe00b7
:107c50008a9fbe008c1f7800930107009a013300b1
:107c60006450e1004f0032006420e1005200320015
:107c700003826c0007003b000905d0000306d0001a
:107c8000820f54000c065d00020039000200320031
:107c900089017800030678008582550004003d00c4
:107ca0000003fd008103fd008502ea008b85420090
:107cb000840f720002003b0060001000e08018009a
:107cc0006011b8000005eb007a28e1000a003900d5
:107cd00006007800c75ddd00f707b20087807500f9
:107ce0002d003700828171000a0178006105600073
:107cf0008180d1000080d3008502e900f9ff3b00bc
:107d0000060440008784480002003b006004140021
:107d1000e0841c000988a300070032008a817100fa
:107d200082817100610164008904d1000884d3005c
:107d30008b05e800170037000978a30013003a000c
:107d40000b00e000130034008b05e9000804440038
:107d500089844c000a4474000978a3000d003a009d
:107d60000b00e000070034008b05e9000804440024
:107d700089844c0001003a000b0020000978a30020
:107d8000f7ff32000001eb00020037008281710032
:107d90000a017800090107000cf0a70001f0a0001b
:107da000520137006420e10002003a00838f6c002a
:107db000520133000801be000200be004b01370033
:107dc000889fbe008a9fbe008c9fbe000004be003c
:107dd000200107000800be00890678006420e10049
:107de00008003900040032000160a00012022000e7
:107df000028088005300370091fc2300b0fd200072
:107e00004e0037000006eb0009f0a10003f8230044
:107e1000020020000800be00a10007000600340098
:107e200001f82300000020000801be004b000700fd
:107e30000004be002c0020000800be0093e82300d0
:107e4000320a230096000700120034000801be0029
:107e5000d1fd2300703d2b007cff07000005be0014
:107e6000b3f32300f27a26000800be0026010700c3
:107e700003f823000200200073ff07000801be0082
:107e800072ff07000a01be00340007000004be00b4
:107e90000c06e8000800be0001f0a100020020006e
:107ea000039823007e0007000800be00160035007e
:107eb0000801be00140107000005be0032cd2c00f1
:107ec00043fb230061ff0700809fbe00126928006a
:107ed00003d52b000a00be000b010700620f210032
:107ee00013ef2b0059ff07000a01be00060107002f
:107ef0004f01be00190007000801be000201070083
:107f00000801be0051ff07000c00e0000b0032002a
:107f10000c10a70001f0a200b2fd200093fc23008a
:107f20006260e1000400320022a9200063f0230017
:107f30000c10a70063f8230044ff07000df0a70012
:107f400001f0a2004f06be004f05be004f04be0068
:107f5000000006000081eb001f013700889fbe0073
:107f60008a9fbe008c1f7800cf000700d600330028
:107f700003866c006450e1002e0032006420e100b2
:107f8000330032006150e1002f0032006120e10037
:107f90003100320085855500eb07b0000900200054
:107fa00008042000050037000804440089844c00c0
:107fb0000a0031000603430087834b000001530091
:107fc00081815b00f8ff33000203be000800a000bf
:107fd0000804440089844c00f6ff3900c639dd00ee
:107fe0008301730001003200130020008904d100d6
:107ff0000884d3000998a300050032000800a700f8
:108000000300a0008904d1000884d3008b05e80098
:108010008904d1000884d3000001eb000281d20062
:108020006600070001f0a1000cf0a70001f0a0001d
:10803000ae0037006420e100b00032000801be004d
:108040000200be00f7ff37006120e100ab00320004
:108050006000b800f3ff37000000200001f827009f
:10806000f0ff3700839f68000100e00002003d0040
:1080700060001000e08018000300e00002003d00f6
:1080800060011100e0811900730107004f00e0005a
:1080900002003b0060001000e080180000000600b5
:1080a000140020007c013700f4ff2f007a01370014
:1080b0000001be00670007000470a70003f0a100e4
:1080c0006509b100160032000d0035006828e10096
:1080d00006003500f0ff2f00f1ff27000300e0004d
:1080e00013003b00010028000000050000004000d4
:1080f000818048008502e900fcff3a000800370053
:10810000f88f420002003c008000eb0000000500f8
:108110008100d1000080d3008502e800fcff3a0016
:108120000300e00002003b0060001000e080180047
:10813000000006000001be00460007000470a70012
:1081400003f0a10003f8a30013003a006509b10091
:1081500010003200090035006928e10002003500f6
:108160000100280000000500000040008180480058
:108170008502e900fcff3a0000000600f88f42008b
:10818000050035008100d1000080d3008502e800a1
:10819000fcff3a00000006008000eb000000050034
:1081a0004f89de0082017800560137006011b80067
:1081b00064013700040020003701370081002000ef
:1081c000618055000b003d000b00200061fe2f0078
:1081d0000100e1001d003400828171006101640032
:1081e0008904d1000884d3000000e800faff3a00b7
:1081f0007100200061006400030070000200600054
:108200000900320061044400e0844c000988a500a4
:10821000050032008b05e8006808e10002003a0022
:108220008904d1000884d300f20f20000258e10035
:1082300005003d00c75ddd00f907b20089807500cb
:1082400008007800000006000bf827008b0078007b
:1082500000000500c70ade00f107b200f50fb2000a
:1082600008003200e1cf4200020032000170a0009d
:1082700024000500810f7000010032000408050091
:1082800044000500810f700002003a001400050050
:108290008502e9000000400081c04800fcff3b006f
:1082a0000170a000240005000004be00e9ff0700e3
:1082b0000003be000405be000200be00e5ff07008b
:1082c000844f7500000006000200be006450e1000b
:1082d000050036006420e100020036000968a300b2
:1082e00001003a000800be000160a0004f067800bf
:1082f0004f05be004f04be0000000600f0ff2f0037
:10830000f1ff2700f9ff3700889fbe008a9fbe005b
:108310008c1f7800e4ff0700ebff330003866c003e
:108320006450e100240032006420e10027003200a4
:108330006150e100220032006120e10021003200a2
:108340008b854200eb07b1000134b800003ab80059
:108350000804420089844a00013ab8000030b8009d
:108360008880400009014a000400330000004000fa
:1083700081804800020149008b05e900c909dd0040
:10838000830170000100320013002000c814de00d9
:108390004814dd004709de001200b200c808de0004
:1083a0000884700085ff070001f0a1000cf0a70011
:1083b00001f0a000cdff37006120e100cfff3200c7
:1083c0000801be000200be00f7ff37006150e10067
:1083d000fcff3a00c9ff3700889fbe008a9fbe009d
:1083e0008c9fbe00820578000004be0099ff070044
:1083f0000800be006420e1000700390002003a00d6
:10840000f1ff2700f0ff2f000160a0001202200002
:1084100002808800550037006120e10003003a0027
:108420000b00a70001f823005000370001f0a10065
:10843000020021009364240019ff07000800be0019
:1084400004003500b2fd2000930c2400ec0007006e
:108450000004be000005eb000b00a6004f0dde007f
:1084600001f0a1000004be0032982f0023ea23008f
:10847000a5ff07000001eb0003f023000b00a7009d
:1084800003f82300f1fd070009ff07000000a70023
:108490000a00a20042ff07000b00e00003003200c8
:1084a0000200200003f02300e7fd070001f0a20016
:1084b0000006be00020020009304240092ff070083
:1084c0000801be00e1fd0700809fbe000c00be0059
:1084d00022a22a00d3a723008bff07004f01be0072
:1084e000dafd07000004be0001f0a1000200200038
:1084f00003982300eafe07000800be0019003500bb
:108500000001be0080ff07000006be00b2c52900c2
:10851000e36223007cff070022222b00f3942b0050
:10852000cafd07000c01be0077ff0700e2732800b8
:1085300083c02300c5fd07000c01be0072ff0700c9
:1085400042aa2a00a3e22b00c0fd07000c01be00d6
:108550006dff07000801be006bff07000801be00a9
:10856000bafd07000a00a70001f0a2004f06be00f6
:108570004f05be004f04be00000006000001eb00e6
:1085800095ff3700889fbe008a9fbe008c1f780031
:108590000004be002fff07000478a30026003a0065
:1085a0006120e1002500320009f8a30025003a000f
:1085b0006420e10021003200f507b1000508a300a6
:1085c0000200320000004000818048006044b80092
:1085d00003102000020020000000400081804800bd
:1085e0000805440089854c000a0541008b85490037
:1085f0000a0550008b855800030033000a00be00b6
:1086000002047400838474008301d1000281d300ca
:10861000830f7100f0ff3a008904d1000884d30071
:108620006001490082017800c1adde00fb07b000a7
:10863000e2fe07002dff37000960a0000800be0021
:108640002aff37001202200002808800f0ff2f006e
:10865000f1ff270025ff37006022b8000602200046
:108660000000d0008180d2000482d2008582d20036
:108670000000a0000202520083825a000300310071
:108680000202420083824a000000a1000603e900c2
:10869000f3ff3a0000000600889fbe008a9fbe00dc
:1086a000841f780000ff07004f007800110033009e
:1086b000f0ff2f00838f6c0006003b00040565006f
:1086c0000a00a7000800370009f0a60010002000eb
:1086d00008003700820f5400838f5c0003003900cc
:1086e0001000200001003e000000200009f0a7005b
:1086f0000000ea004f05be004f04be000000e0008d
:1087000000000600881f7800030478000300e000e2
:1087100007003d0060001000e080180060011900b3
:10872000e081190002003b0001f02d00030037003a
:108730000400070008f0a70001f0a0004f04780033
:1087400000000600889fbe008a9fbe000082700065
:108750000402710004827100260032000004be0091
:108760000200be006011b8006b09200095022000d5
:108770000182cf000a0039000541b1000082cf001c
:10878000070039000541b1000982cf00040039001b
:108790000541b1000882cf00010039000541b10058
:1087a00005425200120032000a003b008281710033
:1087b000610164008100d1000080d3008984d3006e
:1087c0000884d3008b05e8000442e800f7ff3a0074
:1087d000070037000804440089844c00000048006a
:1087e000818048008b05e9000442e900f9ff3a0066
:1087f00072fe07004f05be004f04be0000000600d9
:108800000400200000003700889fbe008a9fbe0041
:108810008c1f78004f26dd00a3fe0700aafe330060
:108820006120e100430032006250e10041003e005f
:108830003e0039006420e1003c0032000582550012
:108840000f003b000402e80038003a00800f53009c
:10885000818f5b00350034000800be0003f0a100ea
:1088600001f0a60003f0a0000cf0a700f7fc070041
:108870009efe37000603430087834b000c464600ec
:108880000005530081855b00020033000a03be002f
:108890000c00a0000402e900f6ff3b00850578000b
:1088a0000602430087824b0004003a006000b800d3
:1088b00009f0a70001f0a0008cfe37000002520072
:1088c00081825a000704e0000400330006034300dd
:1088d00087834b008b05e900faff37000905780014
:1088e0000604be000203be006011b80033fe07009c
:1088f000e00f5200e08f5a000700350002003c00f4
:108900000c08a300040032000601be0003f0a00022
:108910000cf0a700cdfc07000a85680001f0a1005b
:108920000af0a70001f0a00070fe37000800be00aa
:108930006efe3700100220000cf0a60000808800b8
:048940006efe370090
:020000040000fa
:10894400040000000100000002000000020000001a
:10895400010000000400000000000000000000000e
:10896400ffff000000000000ffff0000ffff000009
:1089740000010000020100000404000002000000e5
:1089840002040000040100000201000002060000cd
:108994000a0f0000131700001b1f0000232700000c
:1089a4002c300000343800003c40000044480000f3
:1089b4004c500000545800005c60000063670000e5
:1089c4006b6f000073760000797c00007f830000e9
:1089d400878a00008e910000959800009b9f0000fc
:1089e400a2a50000a8ab0000aeb10000b4b700001f
:1089f400babd0000c0c20000c5c80000cacd000056
:108a0400cfd20000d4d60000d9db0000dddf0000a7
:108a1400e1e30000e5e70000e8ea0000eced000017
:108a2400eff00000f2f30000f4f50000f7f80000a6
:108a3400f9fa0000fafb0000fcfd0000fdfe000056
:108a4400feff0000ffff0000ffff0000ffff00002b
:108a5400ffff0000ffff0000fefe0000fdfd000020
:108a6400fcfc0000fbfa0000f9f80000f7f6000037
:108a7400f5f40000f2f10000f0ee0000edeb000070
:108a8400e9e80000e6e40000e2e00000dede0000c9
:108a9400e1e20000e4e60000e8ea0000ebed00009b
:108aa400eef00000f1f30000f4f50000f6f700002a
:108ab400f8f90000fafb0000fcfc0000fdfe0000d9
:108ac400fefe0000ffff0000ffff0000ffff0000ac
:108ad400ffff0000ffff0000fefe0000fefd00009f
:108ae400fcfc0000fbfa0000f9f80000f7f60000b7
:108af400f5f40000f3f10000f0ee0000edeb0000ef
:108b0400eae80000e6e40000e3e10000dfdc000046
:108b1400dad80000d6d40000d1cf0000ccca0000bf
:108b2400c7c50000c2bf0000bcb90000b7b4000054
:108b3400b1ae0000aba70000a4a100009e9a000003
:108b440097940000908d000089860000827f0000c9
:108b54007b770000747000006c68000065610000a1
:108b64005d590000555100004d4900004541000089
:108b74003d390000353100002d290000242000007b
:108b84001c180000141000000c0700000000000076
:108b940000000000000000000000000000000000d1
:108ba40000000000000000000000000000000000c1
:108bb40000000000000000000000000000000000b1
:108bc40000000000000000000000000000000000a1
:108bd4000000000000000000000000000000000091
:108be4000000000000000000000000000000000081
:108bf4000000000000000000000000000000000071
:108c04000000000000000000000000000000000060
:108c14000000000000000000000000000000000050
:108c24000000000000000000000000000000000040
:108c34000000000000000000000000000000000030
:108c44000000000000000000000000000000000020
:108c54000000000000000000000000000000000010
:108c64000000000000000000000000000000000000
:108c740000000000000000000000000000000000f0
:108c8400000000000000000000000000a0a300009d
:108c9400a5a70000a9ab0000aeb00000b3b500006a
:108ca400b8ba0000bdc00000c3c60000c8cb0000b5
:108cb400ced10000d4d80000dbde0000e1e50000e6
:108cc400e8eb0000eff20000f6f90000ff030000fb
:108cd400070a00000e110000151800001b1f0000f9
:108ce40022250000282b00002e310000343700001c
:108cf4003a3d000040420000454800004a4d000053
:108d04004f52000054560000595b00005d5f0000a4
:108d14006163000065670000686a00006c6d000014
:108d24006f700000727300007475000077780000a3
:108d3400797a00007a7b00007c7d00007d7e000053
:108d44007e7f00007f7f00007f7f00007f7f000028
:108d54007f7f00007f7f00007e7e00007d7d00001d
:108d64007c7c00007b7a0000797800007776000034
:108d74007574000072710000706e00006d6b00006d
:108d84006968000066640000626000005e5e0000c6
:108d94006162000064660000686a00006b6d000098
:108da4006e70000071730000747500007677000027
:108db400787900007a7b00007c7c00007d7e0000d6
:108dc4007e7e00007f7f00007f7f00007f7f0000a9
:108dd4007f7f00007f7f00007e7e00007e7d00009c
:108de4007c7c00007b7a00007978000077760000b4
:108df4007574000073710000706e00006d6b0000ec
:108e04006a68000066640000636100005f5c000043
:108e14005a58000056540000514f00004c4a0000bc
:108e240047450000423f00003c3900003734000051
:108e3400312e00002b270000242100001e1a000000
:108e440017140000100d000009060000fffc0000cc
:108e5400f8f50000f1ee0000eae70000e4e00000ad
:108e6400ddda0000d7d40000d1ce0000cbc800006a
:108e7400c5c20000bfbd0000bab70000b5b2000013
:108e8400b0ad0000aba90000a6a40000a2a00000a1
:108e94009e9c00009a980000979500009392000011
:108ea400908f00008d8c00008b8a00008887000062
:108eb4008685000085840000838200008281000092
:108ec400818000008080000080800000808000009d
:108ed4008080000080800000818100008282000088
:108ee4008383000084850000868700008889000051
:108ef4008a8b00008d8e00008f91000092940000f8
:108f040096970000999b00009d9f0000a1a100007e
:108f14009e9d00009b99000097950000949200008c
:108f2400918f00008e8c00008b8a000089880000dd
:108f3400878600008584000083830000828100000e
:108f4400818100008080000080800000808000001b
:108f54008080000080800000818100008182000008
:108f640083830000848500008687000088890000d0
:108f74008a8b00008c8e00008f9100009294000078
:108f840095970000999b00009c9e00000002000041
:108f940004060000080a00000c0e00001012000075
:108fa40014160000181a00001c1e000020220000e5
:108fb40024260000282a00002c2e000001010000b5
:108fc40001360000013a00003c3e000000020000af
:108fd40004060000080a00000c0e00000101000055
:108fe40001160000011a00001c1e0000010100000f
:108ff40001260000012a00002c2e000001010000bf
:1090040001360000013a00003c3e0000295c0000eb
:109014004142000082040000aa040000fa04000097
:109024004a0500009b050000eb050000390600001e
:1090340086060000d2060000f70600001c070000a8
:1090440063070000a8070000eb0700002c080000dd
:109054006a080000a6080000df08000016090000e6
:10906400470900005d090000710900009209000031
:10907400a9090000c9ff0000ceff0000d8ff0000ce
:10908400e2ff0000ecff0000f6ff0000000000001b
:109094000a00000014000000190000001e00000077
:1090a40028000000320000003c00000046000000e0
:1090b400500000005a000000640000006e00000030
:1090c400780000007d000000820000008c00000099
:1090d40096000000e50f0000da0f0000cd0f00003d
:1090e400bb0f0000a40f0000870f0000630f0000f7
:1090f400350f0000fd0e0000b90e0000680e0000e0
:10910400080e00009a0d00001d0d0000910c0000d7
:10911400f70b0000520b0000a30a0000ee09000048
:10912400350900007c080000c50700001407000092
:109134006c060000cd05000038050000b0040000f6
:1091440032040000c00300005a030000fd020000c6
:10915400aa0200006002000020020000d8ff000004
:10916400ddff0000e2ff0000e7ff0000ecff00006d
:10917400f1ff0000f6ff0000fbff0000000000000c
:10918400050000000a0000000f00000014000000a9
:10919400190000001e000000230000002800000049
:1091a4002d00000032000000370000003c000000e9
:1091b40041000000460000004b0000005000000089
:1091c400550000005a0000005f0000006400000029
:1091d400690000006e0000007300000078000000c9
:1091e4007d0000000b0e0000e30d0000b30d000035
:1091f400790d0000350d0000e60c00008d0c000018
:10920400270c0000b60b00003a0b0000b50a000062
:10921400280a000095090000fd0800006408000009
:10922400cb07000035070000a20600001606000068
:1092340090050000130500009d04000031040000a7
:10924400cd030000710300001e030000d3020000e0
:109254008e0200004f020000e2ff0000e7ff000062
:10926400ecff0000f1ff0000f6ff0000fbff000030
:1092740000000000050000000a0000000f000000cc
:1092840014000000190000001e000000230000006c
:10929400280000002d00000032000000370000000c
:1092a4003c00000041000000460000004b000000ac
:1092b40050000000550000005a0000005f0000004c
:1092c40064000000690000006e000000740e0000dd
:1092d400640e00004f0e0000350e0000130e000057
:1092e400e90d0000b60d0000780d00002d0d000002
:1092f400d60c0000700c0000fd0b00007d0b00007c
:10930400ef0a0000580a0000b70900001109000024
:1093140068080000bf070000180700007706000077
:10932400c70500004c050000c50400004804000007
:10933400d60300006e03000011030000bd0200000c
:10934400770e0000740e0000720e00006f0e000015
:109354006d0e00006a0e0000670e0000640e00002f
:10936400600e00005d0e0000590e0000550e000056
:10937400520e00004d0e0000490e0000450e000084
:10938400400e00003b0e0000360e0000310e0000bf
:109394002c0e0000260e0000200e00001a0e000005
:1093a400140e00000d0e0000060e0000ff0d00005c
:1093b400f80d0000f00d0000e80d0000e00d0000c5
:1093c400d80d0000cf0d0000c60d0000bc0d00003c
:1093d400b30d0000a80d00009e0d0000930d0000c9
:1093e400880d00007d0d0000710d0000650d00006a
:1093f400590d00004c0d00003f0d0000320d00001f
:10940400240d0000160d0000070d0000f80c0000ec
:10941400e90c0000d90c0000c90c0000b80c0000d5
:10942400a70c0000960c0000840c0000720c0000d5
:10943400600c00004d0c0000390c0000260c0000ec
:10944400120c0000fd0b0000e80b0000d30b000021
:10945400bd0b0000a70b0000910b00007a0b00006d
:10946400630b00004c0b0000340b00001c0b0000cd
:10947400030b0000eb0a0000d20a0000b90a000046
:109484009f0a0000850a00006b0a0000500a0000d1
:10949400360a00001b0a0000000a0000e40900006c
:1094a400c9090000ad090000910900007509000018
:1094b400590900003d0900002009000004090000ca
:1094c400e7080000cb080000ae0800009108000087
:1094d40074080000580800003c0800001f08000041
:1094e40003080000e7070000cb070000af070000f7
:1094f40093070000770700005c07000040070000a6
:109504002407000009070000ee060000d30600004f
:10951400b80600009d0600008306000069060000ee
:109524004f060000350600001c060000030600007c
:10953400ea050000d0050000b8050000a005000001
:109544008805000071050000590500004105000070
:109554002b05000014050000fd040000e7040000d2
:10956400d1040000bc040000a70400009104000022
:109574007d0400006804000054040000400400005e
:109584002e0400001a04000008040000f503000083
:10959400e3030000d1030000bf030000ae0300009a
:1095a4009d0300008c0300007c0300006c0300009a
:1095b4005c0300004b0300003c0300002e0300008a
:1095c4001e0300001003000001030000f30200006a
:1095d400e6020000d8020000e2ff0000e7ff0000fe
:1095e400ecff0000f1ff0000f6ff0000fbff0000ad
:1095f40000000000050000000a0000000f00000049
:1096040014000000190000001e00000023000000e8
:10961400280000002d000000320000003700000088
:109624003c00000041000000460000004b00000028
:1096340050000000550000005a0000005f000000c8
:1096440064000000690000006e000000d8ff000004
:10965400d9ff0000daff0000dbff0000dcff0000a0
:10966400ddff0000deff0000dfff0000e0ff000080
:10967400e1ff0000e2ff0000e3ff0000e4ff000060
:10968400e5ff0000e6ff0000e7ff0000e8ff000040
:10969400e9ff0000eaff0000ebff0000ecff000020
:1096a400edff0000eeff0000efff0000f0ff000000
:1096b400f1ff0000f2ff0000f3ff0000f4ff0000e0
:1096c400f5ff0000f6ff0000f7ff0000f8ff0000c0
:1096d400f9ff0000faff0000fbff0000fcff0000a0
:1096e400fdff0000feff0000ffff0000000000007f
:1096f400010000000200000003000000040000005c
:10970400050000000600000007000000080000003b
:10971400090000000a0000000b0000000c0000001b
:109724000d0000000e0000000f00000010000000fb
:1097340011000000120000001300000014000000db
:1097440015000000160000001700000018000000bb
:10975400190000001a0000001b0000001c0000009b
:109764001d0000001e0000001f000000200000007b
:10977400210000002200000023000000240000005b
:10978400250000002600000027000000280000003b
:10979400290000002a0000002b0000002c0000001b
:1097a4002d0000002e0000002f00000030000000fb
:1097b40031000000320000003300000034000000db
:1097c40035000000360000003700000038000000bb
:1097d400390000003a0000003b0000003c0000009b
:1097e4003d0000003e0000003f000000400000007b
:1097f400410000004200000043000000440000005b
:10980400450000004600000047000000480000003a
:10981400490000004a0000004b0000004c0000001a
:109824004d0000004e0000004f00000050000000fa
:1098340051000000520000005300000054000000da
:1098440055000000560000005700000058000000ba
:10985400590000005a0000005b0000005c0000009a
:109864005d0000005e0000005f000000600000007a
:10987400610000006200000063000000640000005a
