:020000040000fa
:080000000022040000000000d2
:020000040000fa
:1000080004200000082000000c2000001020000040
:1000180014200000182000001c200000e821000027
:100028002020000024200000282000002c200000b0
:100038003020000034200000382000003c20000060
:100048004020000044200000482000004c20000010
:100058005020000054200000582000005c200000c0
:100068006020000064200000682000006c20000070
:100078007020000074200000782000007c20000020
:100088008020000084200000882000008c200000d0
:100098009020000094200000982000009c20000080
:1000a800a0200000a4200000a8200000ac20000030
:1000b800b0200000b4200000b8200000bc200000e0
:1000c800c0200000c4200000c8200000cc20000090
:1000d800d0200000d4200000d8200000dc20000040
:1000e800e0200000e4200000e8200000ec200000f0
:1000f800f0200000f4200000f8200000fc200000a0
:100108000021000004210000082100000c2100004b
:10011800102100001421000018210000e82100002f
:10012800e82100001c2100002021000024210000fb
:10013800282100002c21000030210000342100007b
:10014800e821000038210000e82100003c210000df
:10015800e8210000e8210000e8210000e821000073
:10016800e82100004021000044210000482100004f
:10017800e8210000e82100004c2100005021000087
:1001880054210000582100005c210000602100007b
:1001980064210000682100006c210000702100002b
:1001a80074210000782100007c21000080210000db
:1001b800e8210000e8210000e8210000e821000013
:1001c800e8210000e8210000e8210000e821000003
:1001d800e8210000e8210000e8210000e8210000f3
:1001e800e8210000e8210000e8210000e8210000e3
:1001f800e8210000e8210000842100008821000097
:100208008c2100009021000094210000982100001a
:100218009c210000a0210000a4210000a8210000ca
:10022800ac210000b0210000b4210000b82100007a
:10023800bc210000e8210000c0210000c42100000a
:10024800c8210000cc210000d0210000d4210000ea
:10025800d8210000dc210000e0210000e42100009a
:020000040000fa
:104000000022040000000000f23b04000000000059
:10401000f23b040000000000f23b0400000000003e
:10402000f23b040000000000f23b0400000000002e
:10403000f23b040000000000f23b0400000000001e
:10404000f23b040000000000f23b0400000000000e
:10405000482e040000000000f23b040000000000b5
:10406000f23b040000000000f23b040000000000ee
:10407000f23b040000000000f23b040000000000de
:104080006024040000000000f23b04000000000077
:10409000f23b040000000000f23b040000000000be
:1040a000f23b040000000000fa22040000000000bf
:1040b000f23b040000000000f23b0400000000009e
:1040c000f23b040000000000f23b0400000000008e
:1040d000f23b0400000000002a330400000000004e
:1040e000f23b0400000000006c2e04000000000001
:1040f000f23b040000000000f23b0400000000005e
:10410000f23b040000000000f23b0400000000004d
:104110002c2a040000000000f23b04000000000014
:10412000762c040000000000f23b040000000000b8
:10413000f23b040000000000f23b0400000000001d
:10414000f23b040000000000f23b0400000000000d
:10415000f23b040000000000f23b040000000000fd
:10416000f23b040000000000f23b040000000000ed
:10417000f23b040000000000f23b040000000000dd
:10418000f23b040000000000f23b040000000000cd
:10419000f23b040000000000f23b040000000000bd
:1041a000f23b040000000000f23b040000000000ad
:1041b000f23b0400000000009e2c04000000000000
:1041c000c62c040000000000f23b040000000000c8
:1041d000f23b040000000000442d04000000000039
:1041e0003a24040000000000f23b0400000000003c
:1041f000f23b040000000000f23b0400000000005d
:10420000f23b040000000000f23b0400000000004c
:10421000f23b040000000000f23b0400000000003c
:10422000f23b040000000000f23b0400000000002c
:10423000f23b040000000000f23b0400000000001c
:10424000f23b040000000000f23b0400000000000c
:10425000f23b040000000000f23b040000000000fc
:10426000f23b040000000000f23b040000000000ec
:10427000f23b040000000000f23b040000000000dc
:10428000f23b040000000000ae3a04000000000011
:10429000623a040000000000f23b0400000000004d
:1042a000f23b040000000000283904000000000078
:1042b000b638040000000000f23b040000000000db
:1042c000ac2a040000000000f23b040000000000e3
:1042d000f23b040000000000f23b0400000000007c
:1042e000f23b040000000000f23b0400000000006c
:1042f000f23b040000000000f23b0400000000005c
:10430000f23b040000000000f23b0400000000004b
:10431000f23b040000000000f23b0400000000003b
:10432000f23b040000000000f23b0400000000002b
:10433000662a040000000000f23b040000000000b8
:10434000f23b040000000000f23b0400000000000b
:10435000f23b040000000000f23b040000000000fb
:10436000f23b040000000000f23b040000000000eb
:10437000f23b040000000000f23b040000000000db
:10438000f23b040000000000f23b040000000000cb
:10439000f23b040000000000f23b040000000000bb
:1043a000f23b040000000000f23b040000000000ab
:1043b000f23b040000000000f23b0400000000009b
:1043c000f23b040000000000f23b0400000000008b
:0843d000f23b040000000000b4
:020000040000fa
:10440000cf4925000eff27000e01880000000000a4
:10441000000020000000e000020032000001200047
:104420002002880014000700f00c07000000e000e4
:1044300003003a00204c2100210020000200370038
:104440000000200001002000810f700001003200f8
:104450000f000700000020000000e0000200320012
:104460000000020000000000a64b02000000000057
:104470000040da000000fe00009320000000e00091
:104480000200320000202000900188000000060099
:10449000a1028800800478000000eb001f003700b4
:1044a000e284440054a0b4009905ba00e2844400b8
:1044b00054a0b4009906ba00e284440054a0b400a9
:1044c0000006eb00476fde00fd07b200ae0188007a
:1044d000636ce10003003a000ad801000000eb0021
:1044e0000e003700606ce10008003a00004deb0060
:1044f0000a05e800020039003420ec000af0a000b0
:104500008b05e900f9ff3e00040037006168e10017
:10451000010032000086eb000b00070019c7ba004b
:104520000e04e0001905ba0003003a000a00e0009a
:10453000dbff3a0000000600fe07b200ae02880072
:104540008a047800f5ff37000cd0a300e20f4d007d
:104550001c00390089027800354dba000a05e800d0
:10456000020039003420ec000af0a0008b05e900bd
:104570000f003200254dba000a05e800020039009c
:104580003420ec000af0a0008b05e900080032009e
:104590000c00e0000600320015cdba000a05e80064
:1045a000020039003420ec000af0a0008b05e9007d
:1045b0008984e80054a0b4000b00e000e2ff3a0058
:1045c000000006009902ba00055d78008b05e9003d
:1045d000f7ff3200c82ade00055d78008b05e90090
:1045e000f3ff32000c00e000f1ff320019ddba00e9
:1045f000eeff3700809fbe00829fbe003200f800b1
:104600003400f80010002000a001880000202000e5
:1046100000d0fe000200fa0001a8a90091988000d5
:1046200000022000008060000000e0000300320073
:10463000a08d8000f08c88000200370000188000f8
:10464000f08c8800101880001097880020188000d7
:10465000f0c488003018800000c588004018800031
:1046600010c588005018800020c5880060188000a0
:1046700030c588007018800040c588008018800010
:1046800050c588009018800030068a00a01880006d
:10469000c00b8a00b0188000908d8800e18e8200e7
:1046a000f0032000808f500033003e00c0188000cf
:1046b0006101b800408e8200518e820002004000ed
:1046c00083804800408e8a00518e8a00d018800076
:1046d0006101b800208e8200318e8200020040000d
:1046e00083804800208e8a00318e8a0010c58000a9
:1046f0006101b90060c5800071c580000200400002
:104700008380480060c5880071c5880020c580008e
:104710006101b90080c5800091c5800002004000a1
:104720008380480080c5880091c5880030c580001e
:104730006101b900a0c58000b1c580000200400041
:1047400083804800a0c58800b1c5880040c58000ae
:104750006101b900c0c58000d1c5800002004000e1
:1047600083804800c0c58800d1c58800e08e8200e3
:104770000000e800e08e8a00f09780006100600091
:104780000000e00002003a003006820040068a0085
:10479000901d240010407800e24f50000e003a00b7
:1047a0007199800000022000008060000000e0009d
:1047b00005003a0000dc8100f08c880010dc8100ec
:1047c000808d88000400370010dc8100f08c8800a8
:1047d0000000eb00808d8800901d240010407800c0
:1047e000e14f500010003a00719980000002200053
:1047f000008060000000e0000b0032007199800032
:1048000000082000008060000000e0000600320088
:10481000f08c8000000f7800808d8000f08c880084
:104820001e007800808d8800d00a82008000780009
:10483000f08c8000808f5000030031000000eb00fe
:10484000008d880002003700c0122000008d880013
:10485000a09880000060a000a09888000080fa0066
:104860003400f9003200f9004f01be004f00be00d5
:10487000004006003200f8003400f800881f78007d
:1048800018002000a80188000820200008d0fe00a1
:104890004f0478000000fa000688a9002688a900c5
:1048a0000000000000000000000000000000000008
:1048b0000080fa003400f9003200f90000400600e0
:1048c0003600f800809fbe00829fbe00849fbe001d
:1048d000869fbe00881f78003200f8003400f80080
:1048e00010002000a00188000020200000d0fe0061
:1048f0000000fa000108a90030bb80000000e000c1
:104900000300320030bb80000000e90030bb8800ab
:10491000c0988000700060000000e0000f003200ce
:10492000a07280007000600000f0a7000000ea00a4
:104930000000e9004f00de00004078000080fb002e
:10494000610060004400dd00a17280000140a10010
:1049500001007000a072880001003700548ea90089
:104960009198800000802000008060000000e0003e
:104970000c003200442ea900440ea900446ea90088
:10498000444ea90044aea900448ea90023eca9001e
:1049900023cca90043eca90043cca90063eca900f7
:1049a00063cca900e09d82000000e0000900320015
:1049b000e09d82000000e900e09d8a00e09d820009
:1049c0000000e00003003a00409880000000a100d1
:1049d000409888005199800000022000008060000b
:1049e0000000e0009c003200309880007000600001
:1049f0000000e00098003200919880000000240040
:104a0000008060000000e00093003200408b8200d4
:104a10000000e00003003200408b82000000e9004b
:104a2000408b8a00609880000040a1006098880058
:104a3000408b82000000e00087003a00508b82002b
:104a4000408b8a0050162500104078008040e80016
:104a50005016250001487800819880000040200011
:104a6000008060000000e0000800320041998000f2
:104a700000202000008060000000e00003003a00f9
:104a8000501625008040eb000148780050162500a4
:104a900010407800e54f5000030036005016250006
:104aa0008040eb0001487800509980006100600070
:104ab0000000e0002c003a0050162500104078005d
:104ac0000080fb00e20f500016003200e20f5000a1
:104ad00005003c000000e0000a003200e10f500039
:104ae0000c0032004b003700e40f5000150032007c
:104af000e40f50000f003500e50f500016003200a3
:104b0000440037002017210031c0b300014878006d
:104b1000400037002017210011c0b3000148780081
:104b20003c0037002017210051c0b3000148780035
:104b3000380037002017210041c0b3000148780039
:104b4000340037002017210061c0b300014878000d
:104b5000000000002f0037002017210021c0b30003
:104b6000014878002b0037005016250010407800cf
:104b70000080fb00e20f500016003200e20f5000f0
:104b800005003c000000e0000a003200e10f500088
:104b90000c0032001f003700e40f500015003200f7
:104ba000e40f50000f003500e50f500015003200f3
:104bb000180037002017210021c0b30001487800f9
:104bc000140037002017210061c0b30001487800ad
:104bd000100037002017210041c0b30001487800c1
:104be0000c0037002017210051c0b30001487800a5
:104bf000080037002017210011c0b30001487800d9
:104c0000040037002017210031c0b30001487800ac
:104c1000000000002017210090407800301721008c
:104c20000148780074c1020001000000f0a7800074
:104c30000000e00008003a004199800000202000b8
:104c4000008060000000e000030032003098800027
:104c50000040a10030988800403a250010407800bc
:104c60008040e900403a250001487800403a25009c
:104c7000104078000004e000ec013a00403a2500c2
:104c800041c0b300014878000161800000002800a5
:104c9000008060000000e0000a003a00016280002d
:104ca00000002800008060000000e00005003a00dd
:104cb0000163800000002800008060000000e00028
:104cc00023003200404d82000000e0001d00320051
:104cd000404d82000000e900404d8a00404d8200b6
:104ce0000000e0001d003a00218ca900218ca800e2
:104cf00021618000c0ff2f000080600020618800db
:104d0000418ca900418ca80021628000c0ff2f00c7
:104d10000080600020628800618ca900618ca8007e
:104d200021638000c0ff2f000080600020638800a6
:104d300054ea020001000000e0a18200404d8a0018
:104d400007003700e0a18200404d8a0004003700d0
:104d5000e0a18200404d8a00010037000000000001
:104d6000604682000000e0000300320060468200de
:104d70000000e90060468a00808b8200918b8200ef
:104d8000e00f5000e08f580011003200808b82004d
:104d9000918b820061005000e0805800808b8a0077
:104da000918b8a00808b8200918b8200e00f5000f3
:104db000e08f580006003a007017210041c1b3008f
:104dc00001487800709880000060a000709888000a
:104dd00060172100104078000004e0002a00320033
:104de000c0988000700060000000e0001b003200ee
:104df000608d80000000e900608d8800608d80007b
:104e00000000e00047003a00408d8000608d88007f
:104e1000c09880000040a100c0988800719980006f
:104e200000202000008060000000e00005003a0043
:104e300080998000610060000000e00001003a00fd
:104e40001a29ef0060172100104078008040e90027
:104e5000601721000148780032003700708d800013
:104e60000000e900708d8800708d80000000e00077
:104e70002c003a00508d8000708d8800c691020091
:104e80000100000027003700708d80000000e00066
:104e900003003200708d80000000e900708d8800f2
:104ea0001198800000002400008060000000e000f5
:104eb0001c0032000198800000002100008060008a
:104ec0000000e00005003a00119880000000280072
:104ed000008060000000e000020032004a3f020053
:104ee00001000000019880000000210000806000a7
:104ef0000000e000030032000098800000c0a10024
:104f00000098880011988000000028000080600050
:104f10000000e000030032001098800000f0a100c3
:104f200010988800c04782000000e00003003200b3
:104f3000c04782000000e900c0478a0020442500e5
:104f4000104078008040e9002044250001487800a6
:104f500020442500104078000004e00004003a00de
:104f60002044250021c0b300014878002348a80050
:104f7000b0a182000000e900b0a18a00b0a18200c7
:104f80000000e00002003a00803e2000b0a18a004c
:104f9000903e2500104078000004e000050032003b
:104fa000903e2500104078008040e900903e2500aa
:104fb00001487800204382000000e0000300320036
:104fc000204382000000e90020438a00c0852400bd
:104fd000104078000004e0001c003200219880009e
:104fe00000402000008060000000e0001700320058
:104ff00052438200634382007043820081438200f7
:10500000800f5100818f590010003e0050438200f4
:105010006143820061004000e080480050438a0004
:1050200061438a00524382006343820070438200de
:1050300081438200800f5100818f590003003900a5
:105040003098800000e0a0003098880090478200ef
:105050000000e00003003200904782000000e900f9
:1050600090478a00708f2400104078008040e9004b
:10507000708f240001487800708f24001040780061
:105080000004e00012003a00319880000000210086
:105090000080600000f0a7000000ea000000e900c6
:1050a0004f00de00004078000080fb0061006000df
:1050b0004c00dd003198800001c0a10001007000ab
:1050c00030988800708f2400d1c7b3000148780061
:1050d000004182000000e00009003200004182002f
:1050e0000000e90000418a00004182000000e00069
:1050f00003003a00a08524008040eb0001487800be
:10510000009f82000000e00003003200009f820048
:105110000000e900009f8a00809e82000000e000fd
:1051200009003200809e82000000e900809e8a0013
:10513000809e82000000e00003003a00f0978000ab
:1051400000f0a100f0978800201d82000000e90017
:10515000201d8a00709e82000000e00004003200e2
:10516000709e82000000e900709e8a0001003700f6
:1051700000000000300c82000000e0000900320056
:10518000300c82000000e900300c8a00300c8200f4
:105190000000e00003003a00e09780000050a0000b
:1051a000e0978800f0a780000000e00003003200d4
:1051b000f0a780000000e900f0a78800200c820022
:1051c0000000e00005003200e02e2000200c8a00e4
:1051d000e09780000040a100e097880024dc810077
:1051e00035dc810060dc810071dc810018c0b30017
:1051f0000001be000400be00243e020000000000ca
:105200000000e000010035000044eb000804e0006d
:105210002100320020dc810031dc8100a2702d00f1
:1052200033c22300fa3b02000000000020dc8900aa
:1052300031dc890024dc810035dc810060dc810008
:1052400071dc810018c0b3000001be000400be0084
:10525000283e0200000000000000e00001003d00c8
:105260000044eb000804e0002b00320060dc810009
:1052700071dc81006011b800243e020000000000d3
:105280000000e00024003a006000b80020dc890043
:1052900031dc89002000370020dc810031dc810016
:1052a000a2702d0033c22300f83b02000000000072
:1052b00020dc890031dc890024dc810035dc8100c0
:1052c00060dc810071dc810018c0b3000001be0009
:1052d0000400be00243e0200000000000000e000c8
:1052e000010034000044eb000804e0000a00320032
:1052f00060dc810071dc81006011b800243e020096
:10530000000000000000e00003003a006000b80068
:1053100020dc890031dc8900d19780000000220068
:10532000008060000000e00017003200b00682003c
:105330000000e800b0068a00b1068200c0068200c4
:10534000808f50002100390030078200f0068a006b
:105350000000eb0030078a00d097800000b0a0006a
:10536000d0978800e097800000a0a000e097880018
:10537000d097800000d0a100d09788000000eb00fb
:10538000b0068a0011003700b00682000000e80075
:10539000b0068a00b1068200c0068200808f5000ed
:1053a0000a0039000000eb00b0068a000000eb00a4
:1053b000f0068a00e097800000a0a000e097880037
:1053c000d097800000b0a000d0978800c08b21004b
:1053d000104078008040e900c08b2100014878002f
:1053e000c08b2100104078000004e00010003a005b
:1053f000c08b210021c0b300014878009198800043
:1054000000202000008060000000e0000800320062
:10541000d08b2100b1cbb30001487800f000200010
:105420000ccb02000000000001003700000000006b
:105430000080fa003400f9003200f9004f047800cf
:105440004f03be004f02be004f01be004f00be0022
:105450003600f900004006003600f800809fbe00cc
:10546000829fbe00849fbe00869fbe003200f8006f
:105470003400f80010002000a00188000020200067
:1054800000d0fe000000fa002348a90041988000e7
:1054900000002200008060000000e00002003200f6
:1054a000644c0200000000000080fa003400f900a3
:1054b0003200f9004f03be004f02be004f01be0094
:1054c0004f00be003600f90000400600809fbe007d
:1054d000821f78003200f8003400f800100020002d
:1054e000a00188000020200000d0fe000000fa008b
:1054f0000f68a90000c2800041168000814078003a
:1055000002822100000041000148780000c28000b2
:105510000000e80000c2880001c28000f0c18000e5
:10552000808f50000600310000c2800021802100e1
:1055300000804000104078000080fb00401688008a
:105540000080fa003400f9003200f9004f017800c1
:105550004f00be00004006003600f800809fbe00ed
:10556000829fbe00849fbe00869fbe003200f8006e
:105570003400f80010002000a00188000020200066
:1055800000d0fe000200fa000b68a900e0c780000e
:105590004115800081407800b28d2100000041005b
:1055a00001487800e0c780000000e800e0c78800fc
:1055b000e1c78000d0c78000808f50000600310016
:1055c000e0c78000d18b21000080400010407800af
:1055d0000080fb0040158800e1c78000d0c7800034
:1055e000808f5000b80039003ecb02000000000060
:1055f000c08d2100104078000080fb0020c2880090
:1056000020c280004800dd0020c28800d08d21002b
:10561000104078008080fb0020c2800000804000a5
:1056200020c28800e08d2100104078000080fb003f
:1056300030c2880030c280004800dd0030c28800df
:10564000f08d2100104078008080fb0030c2800087
:105650000080400030c28800008e21001040780099
:105660000080fb0040c2880040c280004800dd008e
:1056700040c28800108e2100104078008080fb001e
:1056800040c280000080400040c28800208e21007f
:10569000104078000080fb0040808800408080003f
:1056a0004800dd0040808800308e210010407800e6
:1056b0008080fb00408080000080400040808800a7
:1056c000408e2100104078000080fb0020c8880038
:1056d00020c880004800dd0020c88800508e2100ce
:1056e000104078008080fb0020c8800000804000cf
:1056f00020c88800608e2100104078000080fb00e8
:1057000040c8880040c880004800dd0040c88800cc
:10571000708e2100104078008080fb0040c880001f
:105720000080400040c88800808e21001040780032
:105730000080fb0050c8880050c880004800dd0091
:1057400050c88800908e2100104078008080fb00b7
:1057500050c880000080400050c8880021c88000e8
:1057600000002800808f500002003a0060c88000ce
:1057700020c8880041c8800000002800808f5000a9
:1057800002003a0070c8800040c8880051c88000fc
:1057900000002800808f500002003a0080c880007e
:1057a00050c8880020c8800060c8880040c88000b9
:1057b00070c8880050c8800080c8880041c8800038
:1057c000010f780020c8800040c888001e00ea0051
:1057d00020c8880020c280000000ea0020c28800a3
:1057e00030c280000000ea0030c2880021c880007a
:1057f000a0db810000805000cf80de00a43e0200cc
:105800000000000090c88800a1c8880041c880003e
:10581000b0db810000805000cf80de00a43e02009b
:1058200000000000b0c88800c1c8880051c88000ce
:10583000c0db810000805000cf80de00a43e02006b
:1058400000000000d0c88800e1c8880021c28000a4
:10585000d0db810000805000cf80de00a43e02003b
:1058600000000000b0c28800c1c2880031c28000c0
:10587000e0db810000805000cf80de00a43e02000b
:1058800000000000d0c28800e1c2880041c2800050
:10589000f0db810000805000cf80de00a43e0200db
:1058a00000000000f0c2880001c388002348a8005f
:1058b000c097800000e0a000c0978800c0978000db
:1058c00000d0a000c09788000080fa003400f900e2
:1058d0003200f9004f03be004f02be004f01be0070
:1058e0004f00be003600f90000400600801f78001f
:1058f0003200f8003400f80010002000a0018800f9
:105900000020200000d0fe000000fa000388a9005b
:10591000509880000000a0005098880050988000a7
:105920000010a000509888000080fa003400f900b0
:105930003200f9004f00780000400600809fbe0052
:105940003200f8003400f80010002000a0018800a8
:105950000020200000d0fe000000fa0040828000fd
:105960005182800061004000e08048004082880051
:105970005182880005e8a9000080fa003400f9008f
:105980003200f9004f00be00004006003600f8006b
:10599000809fbe00829fbe00849fbe00869fbe0087
:1059a0003200f8003400f80010002000a001880048
:1059b0000020200000d0fe000000fa000608a90028
:1059c0005199800000022000008060000000e0008b
:1059d0002400320030988000700060000000e00079
:1059e00020003a0050998000610060000000e00053
:1059f0000b003a0030182400104078000080fb00b3
:105a00004200dd00a18324000080400010407800a7
:105a10008040780030172100014878000b003700e3
:105a200030182400104078000080fb004200dd00a8
:105a30000000e800a18324000080400010407800ae
:105a4000804078003017210001487800301721008d
:105a500090407800201721000148780074c10200ae
:105a6000010000000080fa003400f9003200f90063
:105a70004f03be004f02be004f01be004f00be00ec
:105a80003600f900004006003600f800809fbe0096
:105a9000829fbe00849fbe00869fbe003200f80039
:105aa0003400f80010002000a00188000020200031
:105ab00000d0fe000000fa002221ef006000b800d4
:105ac00040828800518288000668a90051998000b0
:105ad00000022000008060000000e00063003a0047
:105ae000308d80000000e800308d8800f0c7800015
:105af0000000e00006003200f0c78000b009880016
:105b0000f0c7800010c888000000eb00f0c78800d4
:105b1000b1098000f04a2000808f500002003e0052
:105b2000004b2000b0098800804921001040780017
:105b30000004e0002f00320080492100104078006e
:105b40008040e90080492100014878008049210017
:105b5000104078000004e00026003a000000eb004e
:105b6000009d8a00509880000040a0005098880056
:105b700050998000610060000000e0000f003a00d2
:105b8000c197800000042000008060000000e00059
:105b900005003200e0bf02000100000021012100e9
:105ba00080487800130037008cbf0200010000001d
:105bb00021012100804878000e003700c197800045
:105bc00000042000008060000000e00005003200ba
:105bd0008cbf0200010000002101210080487800f4
:105be00004003700e0bf0200010000002101210095
:105bf00080487800d6d4020001000000519980004e
:105c000000002800008060000000e0000b0032006f
:105c1000019d820070032000808f500004003e0030
:105c2000009d820068004000009d8a000d00370042
:105c3000f0032000009d8a000a003700019d8200c9
:105c4000b0032000808f500004003e00009d8200c1
:105c500064004000009d8a0002003700f00320002d
:105c6000009d8a008009800020dd89000080fa0004
:105c70003400f9003200f9004f03be004f02be00ad
:105c80004f01be004f00be003600f9000040060084
:105c9000801f78003200f8003400f8001000200067
:105ca000a00188000020200000d0fe000000fa00c3
:105cb00000408000640060000000e000010032004d
:105cc0000048a9000080fa003400f9003200f90011
:105cd0004f00780000400600809fbe00829fbe00fb
:105ce0003200f8003400f80010002000a001880005
:105cf0000020200000d0fe000200fa0002a8a90047
:105d0000101a8000c08a8a00201a8000b08a8a0097
:105d1000301a8000a08a8a00a18a8200b08a82009c
:105d200080804000c08a820080804000b0aa2a00a3
:105d30000008b8000100d100d08a8a0070a2820059
:105d40000000e80070a28a00d045250010407800cd
:105d50000080fb00e10f50001b003200e20f5000fa
:105d6000240032000000e00043003a00a18a8200d3
:105d7000d08a8200808f50000f0036001046250028
:105d8000104078008040e800104625000148780067
:105d900010462500104078008080fb00c0a48200df
:105da000808f500038003600d045250011c0b30068
:105db0000148780039003700104625008040eb008c
:105dc0000148780035003700a18a8200d08a82001d
:105dd000808f50002e003100d045250021c0b30037
:105de00001487800004625008040eb00014878001b
:105df0002a003700a18a8200d08a8200808f50005a
:105e00001900310000462500104078008040e8006d
:105e10000046250001487800004625001040780023
:105e2000e34f50001c003600d04525008040eb00b9
:105e300001487800409880000060a00040988800e9
:105e4000c09880000080a000c0988800c0988000a2
:105e50000090a100c0988800104625008040eb000b
:105e6000014878000d003700d045250011c0b3006f
:105e70000148780009003700d04525008040eb003c
:105e800001487800050037000000000003003700db
:105e9000000000000100370000000000e045250080
:105ea000104078000080fb00e10f50001b00320022
:105eb000e20f5000240032000000e00043003a00ee
:105ec000b18a8200d08a8200808f50000f00360095
:105ed00030462500104078008040e800304625001c
:105ee0000148780030462500104078008080fb0093
:105ef000c0a48200808f500038003600e0452500a5
:105f000011c0b30001487800390037003046250041
:105f10008040eb000148780035003700b18a8200ec
:105f2000d08a8200808f50002e003100e04525008d
:105f300021c0b30001487800204625008040eb00d6
:105f4000014878002a003700b18a8200d08a820096
:105f5000808f500019003100204625001040780045
:105f60008040e800204625000148780020462500b2
:105f700010407800e34f50001c003600e04525003b
:105f80008040eb0001487800c09880000060a000cd
:105f9000c0988800c09880000080a000c098880049
:105fa000c098800000a0a100c0988800304625005d
:105fb0008040eb00014878000d003700e0452500e7
:105fc00011c0b3000148780009003700e045250002
:105fd0008040eb0001487800050037000000000019
:105fe000030037000000000001003700000000003f
:105ff000f0452500104078000080fb00e10f5000c4
:106000001b003200e20f5000240032000000e000cc
:1060100043003a00c18a8200d08a8200808f5000fb
:106020000f00360050462500104078008040e80000
:106030005046250001487800504625001040780061
:106040008080fb00c0a48200808f500038003600a2
:10605000f045250011c0b300014878003900370031
:10606000504625008040eb0001487800350037009d
:10607000c18a8200d08a8200808f50002e003100b9
:10608000f045250021c0b3000148780040462500b6
:106090008040eb00014878002a003700c18a820066
:1060a000d08a8200808f50001900310040462500c0
:1060b000104078008040e800404625000148780004
:1060c0004046250010407800e34f50001c00360089
:1060d000f04525008040eb0001487800c098800022
:1060e0000070a000c0988800c09880000080a000c8
:1060f000c0988800c098800000b0a100c0988800b7
:10610000504625008040eb00014878000d00370024
:10611000f045250011c0b3000148780009003700a0
:10612000f04525008040eb0001487800050037006d
:1061300000000000030037000000000001003700ed
:106140000000000080a282000000e80080a28a0017
:10615000c198800000102000008060000000e00076
:106160001e00320050a282000000e80050a28a0007
:10617000a1a2820080a2820000804000a0a28a002a
:10618000c09880000080a100c0988800803e200058
:10619000d08a8a00b0a282000000e800b0a28a0083
:1061a000b0a28200e10f50000a0036000000eb00b0
:1061b000b0a28a00a0a282004300de00c0a28a0032
:1061c000a0a282004200de00d0a28a000000eb0004
:1061d000a0a28a000000eb0080a28a00c0a2820078
:1061e0000000e800c0a28a00c1a28200d0a2820002
:1061f000808f5000f30039000000eb00c0a28a003d
:106200006199800000202000008060000000e00014
:1062100017003200d197800000002200008060004b
:106220000000e00006003a000000eb00b0068a0023
:10623000d097800000d0a000d09788000c003700d5
:10624000c197800000042000008060000000e00092
:1062500004003200300782000000e80030078a00a6
:1062600003003700300782000000e90030078a0091
:106270004198800000042000008060000000e000e1
:1062800017003200c19880000020200000806000cc
:106290000000e00009003a00c09880000090a000d3
:1062a000c09888009046250011c0b30001487800ce
:1062b000007d2000d08a8a0044003700409880008a
:1062c0000060a100409888009046250031c0b300ce
:1062d00001487800007d2000d08a8a003b0037000a
:1062e000c198800000042000008060000000e000f1
:1062f00017003200c198800000402000008060003c
:106300000000e00009003a009046250021c0b300db
:1063100001487800007d2000d08a8a00c098800063
:1063200000a0a000c09888002800370090462500f3
:1063300061c0b30001487800007d2000d08a8a0047
:10634000c09880000060a100c09888001f0037003e
:10635000c198800000082000008060000000e0007c
:1063600017003200c198800000802000008060008b
:106370000000e00009003a009046250041c0b3004b
:1063800001487800007d2000d08a8a00c0988000f3
:1063900000b0a000c09888000c003700904625008f
:1063a00051c0b30001487800007d2000d08a8a00e7
:1063b000c09880000070a100c098880003003700da
:1063c000904625008040eb000148780061998000ec
:1063d00000202000008060000000e0007900320012
:1063e000442ea900440ea900446ea900444ea90001
:1063f00044aea900448ea9009046250010407800c4
:106400000004e0006900320090462500104078004a
:106410000080fb0001b72c0000804000104f780086
:1064200090462500104078000080fb0071b72c00da
:1064300000804000904078001147980070a28200d0
:106440004200de00c0a48a00c0a48200e90f500010
:1064500002003e00a0002000c0a48a00c1a4820067
:1064600040062000808f50000200360040062000c9
:10647000c0a48a000000eb0070a28a001e409000b9
:106480000080fb0061006000004078000004e00034
:106490000e00320023eca800d197800000002400f9
:1064a000008060000000e0000200320023cca80061
:1064b0000100370023cca90043eca90043cca9007c
:1064c00063eca90063cca900250037001e409000b2
:1064d0000080fb00620060000000e0000e0032005f
:1064e00023eca90023cca90043eca800d19780009d
:1064f00000002400008060000000e0000200320084
:1065000043cca8000100370043cca90063eca900ec
:1065100063cca900120037001e4090000080fb00f1
:10652000640060000000e0000d00320023eca900d0
:1065300023cca90043eca90043cca90063eca8003c
:10654000d197800000002400008060000000e0007f
:106550000200320063cca8000100370063cca90020
:106560001e80fb0061006000004078000004e00035
:1065700002003200440ea800120037001e80fb000b
:10658000620060000000e00002003200444ea800fb
:106590000c0037001e80fb00640060000000e0007b
:1065a00008003200448ea8000600370023eca90042
:1065b00023cca90043eca90043cca90063eca900bb
:1065c00063cca900f1c38100703e2000808f500091
:1065d0001a003e00f0c38100a18a82000001400041
:1065e000e09321000000410001087800f0c3810021
:1065f000b18a820000014000e0102200000041004a
:1066000001087800f0c38100c18a820000014000c7
:10661000e08d22000000410001087800f0c38100f5
:10662000d28a820080014000e10a2300818041007b
:10663000820878000000e800f0c389000080fa00ba
:106640003400f9003200f9004f01be004f00be00d7
:10665000004006003600f800809fbe00829fbe000a
:10666000849fbe00869fbe00889fbe008a9fbe009a
:106670008c9fbe003200f8003400f80010002000ab
:10668000a00188000020200000d0fe000e00fa00cb
:106690000268a9006199800000202000008060004d
:1066a0000000e000a4023a0051998000000220009e
:1066b000008060000000e000090032003098800097
:1066c000700060000000e0009c02320091988000a1
:1066d00000002400008060000000e00097023a0003
:1066e00060988000700060000000e000040032004c
:1066f000f0978000610060000000e0000f003200b1
:10670000c197800000042000008060000000e000cd
:106710000500320090be0200010000002117210098
:10672000804878002d0037000ebf020001000000f5
:1067300021172100804878002800370050998000f8
:10674000610060000000e0000f003a00c197800087
:1067500000042000008060000000e000050032001e
:10676000e0bf0200010000002117210080487800ee
:10677000130037008cbf0200010000002117210028
:10678000804878000e003700c19780000004200088
:10679000008060000000e000050032008cbf0200b5
:1067a0000100000021172100804878000400370014
:1067b000e0bf02000100000021172100804878009e
:1067c00030408000680060000000e00002003200fd
:1067d0008009800010c489002668a80030172100b5
:1067e00090407800201721001040780080cf5000a2
:1067f0005202320020172100104078000080fb0078
:106800004200dd00a1832400008040001040780099
:106810008000fb0030172100104078000080fb0052
:10682000808f50000e0032002017210010407800a9
:106830000080fb004200dd000000e800a18324008e
:1068400000804000104078008000fb0030172100dd
:10685000104078000080fb00808f500022003a003a
:10686000d00b8200e10b820061004000e080480014
:10687000d00b8a00e10b8a0090418200a141820086
:1068800061004000e080480090418a00a1418a00f8
:10689000400c82000000e800400c8a00400c82009e
:1068a0008000eb00aa3e02000000000012c0b3000e
:1068b000424f98001257240093482400283e0200bb
:1068c000000000000000e00002003d008041eb00fd
:1068d000434f98004e4b90000604e0000200320047
:1068e0000000eb00400c8a00201721009040780047
:1068f00030172100014878005198800000042000e2
:10690000008060000000e00011003200a0022100c1
:1069100090407800c00221001040780080cf5000e5
:1069200006003d00a0022100104078008040e800f1
:10693000a00221000148780015003700c0022100a4
:1069400090407800a0022100014878001000370034
:10695000a002210090407800c00221001040780081
:1069600080cf500006003400a002210010407800c3
:106970008040e900a00221000148780004003700af
:10698000c002210090407800a00221000148780058
:106990005198800000082000008060000000e000a6
:1069a00011003200b002210090407800d002210096
:1069b0001040780080cf500006003d00b00221005a
:1069c000104078008040e800b002210001487800c3
:1069d00015003700d002210090407800b00221005d
:1069e0000148780010003700b00221009040780084
:1069f000d00221001040780080cf50000600340003
:106a0000b0022100104078008040e900b00221006f
:106a10000148780004003700d0022100904078003f
:106a2000b00221000148780060988000700060008a
:106a30000000e00092013200f097800061006000e9
:106a40000000e0008e013a00a00880008000eb000a
:106a50001007980021079800b00880008000eb0024
:106a600080818800918188008081800091818000f0
:106a7000c000dd00000020000001be001e009000ec
:106a8000ae009000020040008380480080818800b2
:106a9000918188001621ef001421ef001821ef00ea
:106aa00050998000610060000000e00035003a006d
:106ab000c197800000042000008060000000e0001a
:106ac00018003200a0022100104078000004e0000d
:106ad0000a003d00a0022100104078000040ea00ba
:106ae000804078008049210001487800509880005b
:106af0000040a10050988800560037005098800050
:106b00000040a000509888000000eb00009d8a0023
:106b100030172100904078002001210001487800c2
:106b20004c003700b0022100104078000004e00063
:106b30000a003d00b0022100104078000040ea0049
:106b400080407800804921000148780050988000fa
:106b50000040a100509888003e0037005098800007
:106b60000040a000509888000000eb00009d8a00c3
:106b70003017210090407800200121000148780062
:106b800034003700c19780000004200000806000be
:106b90000000e00018003a00a00221001040780038
:106ba0000004e0000a003d00a0022100104078002f
:106bb0000040ea00804078008049210001487800c8
:106bc000509880000040a1005098880021003700b4
:106bd000509880000040a000509888000000eb0012
:106be000009d8a003017210090407800200121008c
:106bf0000148780017003700b002210010407800eb
:106c00000004e0000a003d00b002210010407800be
:106c10000040ea0080407800804921000148780067
:106c2000509880000040a10050988800090037006b
:106c3000509880000040a000509888000000eb00b1
:106c4000009d8a003017210090407800200121002b
:106c50000148780080932100104078000004e00093
:106c6000450032000000eb00000f78000c003700f8
:106c70001e00e800c200dd00c004210000804000ca
:106c800090009000100078001e017800c211dd0015
:106c9000c2042100028141000089be001e0fe800ed
:106ca00080932100104078000080fb000000e90084
:106cb0009e0f5000eeff3e008093210010407800b0
:106cc0000080fb000001e90080818000918180004c
:106cd000c211dd00c2042100028141000089be0012
:106ce0006000b800608a8800718a88000000eb00ac
:106cf000000f78000d0037001e007800c200dd0094
:106d0000c004210000804000100178009001900034
:106d1000608a8000718a8000020040008380480001
:106d2000608a8800718a88001e0fe8008093210025
:106d3000104078000080fb009e0f5000eeff3e00e8
:106d4000608a8000718a800092932100124178004d
:106d50000281fb00820178008301e9000300330017
:106d60008100d1000080d300fbff3700608a8800db
:106d7000718a8800660037008081800091818000e0
:106d8000608a8800718a88005099800061006000e4
:106d90000000e0002f003a0030172100104078007a
:106da0000080fb004200dd00a18324000080400041
:106db00010407800604798006e4090000080fb0013
:106dc0004200dd0063004000a183240000804000f9
:106dd000104078000001fb00cf91de008081800030
:106de00091818000809ab900828bb9008602780078
:106df000050242000010b800010242008400780041
:106e000040079800510798004007980051079800e4
:106e10004e009000de0090004909dd004706de00cc
:106e20000c067100c78ede004c0798005d079800c5
:106e3000628a8000738a80004e009000de0090001d
:106e40000200400083804800608a8800718a8800c0
:106e50002f00370030172100104078000080fb0021
:106e60004200dd000000e800a18324000080400013
:106e700010407800604798006e4090000080fb0052
:106e80004200dd000080e800a18324000080400073
:106e9000104078000001fb00cf91de00808180006f
:106ea00091818000809ab900828bb90086027800b7
:106eb000050242000010b800010242008400780080
:106ec0004007980051079800400798005107980024
:106ed0004e009000de0090004909dd004705de000d
:106ee0000a057100c78dde004a0798005b0798000d
:106ef000628a8000738a80004e009000de0090005d
:106f00000200400083804800608a8800718a8800ff
:106f10005199800000002800008060000000e0001f
:106f200009003200608a8000718a8000cd09dd008e
:106f30004300de0000807100c308de00808188000d
:106f40009181880008003700608a8000718a800083
:106f50004c0bdd004400de0000007300c408de00be
:106f600080818800918188008281800093818000e7
:106f7000a0ff2f0001002000800f5100818f5900d9
:106f80000e00340080818000918180004d09dd0079
:106f90004304de0008047100c38cde0008007800a2
:106fa000f0c78800d1098000f0fc2f00008060004d
:106fb0000040a000d00988003100370080818000a7
:106fc0009181800000007800f0c78800d10980001e
:106fd000f0fc2f0000806000d009880050988000ed
:106fe0000000a10050988800f1c78000703e20008a
:106ff000808f50000f003e0060988000700060009d
:107000000000e0000b0032005199800000002100d8
:10701000008060000000e00006003a005099800007
:1070200000c0a00050998800b098800000e0a00047
:10703000b0988800f1c78000004b2000808f50007e
:107040000f00360060988000700060000000e000d3
:107050000b003200b1988000000024000080600026
:107060000000e00006003200b098800000e0a100bf
:10707000b09888005099800000c0a1005099880005
:1070800074c1020001000000c197800000042000cc
:10709000008060000000e00004003200c08080003a
:1070a0000000e800c080880006003700c080800033
:1070b0000000e00003003200c08080000000e90012
:1070c000c08088005199800000022000008060008c
:1070d0000000e00019003a00d19780000000220073
:1070e000008060000000e00006003a000000eb00b5
:1070f000b0068a00d097800000d0a000d09788000a
:107100000e003700c197800000042000008060005e
:107110000000e00004003200300782000000e800b8
:1071200030078a0005003700300782000000e900c0
:1071300030078a0001003700000000000080fa00dc
:107140003400f9003200f9004f06be004f05be00c2
:107150004f04be004f03be004f02be004f01be00f1
:107160004f00be003600f90000400600809fbe00c0
:107170003200f8003400f80010002000a001880060
:107180000020200000d0fe000000fa000b28a9001b
:10719000d0072000009f8a00404925001040780059
:1071a0008080fb0090a48200808f50001c003d0076
:1071b000f197800000002100008060000000e000e6
:1071c0000900320040492500104078000080fb0093
:1071d000c12d240000804000104078000000fb001a
:1071e000a0158800080037004049250010407800ad
:1071f0000080fb00e11d240000804000104078006a
:107200000080fb00a0158800404925001040780050
:107210008040e80040492500014878000700370019
:10722000f09780000090a100f097880010988000ef
:1072300000a0a100109888002b28a9000080fa0067
:107240003400f9003200f9004f00be000040060093
:107250003600f800809fbe00829fbe00849fbe0063
:10726000869fbe003200f8003400f80010002000b5
:10727000a00188000020200000d0fe000200fa00db
:10728000b0158000004f78000b08a900401f2000b7
:10729000809e8a0090158000620060000000e0007f
:1072a00001003200b222a900f19780000000240002
:1072b000008060000000e0002900320050492500f5
:1072c000104078000080fb009e40780002342400cb
:1072d0000000410001487800504925001040780026
:1072e0008040e800504925000148780050492500b9
:1072f00010407800e24f50006900360050492500e8
:10730000104078000080fb000080e9000134240078
:107310000080400010407800ed4f500060003a00bf
:1073200050492500104078000080fb000000e90073
:10733000013424000080400010407800ea4f5000e3
:1073400057003a00504925008040eb000148780082
:10735000f097800000a0a000f09788005000370050
:10736000f197800000002800008060000000e0002d
:1073700015003a0060492500104078009e407800d2
:1073800080cf50000d003a001e407800e14f4000d1
:107390000a003a00604925008040eb00014878006f
:1073a000f097800000f0a000f09788007049250059
:1073b0008040eb0001487800390037006049250023
:1073c0001e487800360037007049250010407800cc
:1073d000e34f400004003600f097800000f0a10069
:1073e000f09788002e003700704925001040780083
:1073f0000080fb00f19c2300008040001e487800c4
:1074000070492500104078008040e8007049250050
:107410000148780070492500104078008080fb000a
:10742000f09c2300104078000080fb000000e80082
:10743000808f50001a003400f097800000f0a10007
:10744000f0978800f09c2300104078000080fb003b
:107450000000e800f19c2300828a02000000000086
:10746000f19c2300914078008180fb008100e800be
:10747000f29c23008100410091407800814f500030
:1074800004003200009880000000a00000988800ee
:1074900003003700009880000010a00000988800ca
:1074a0000080fa003400f9003200f9004f03be00fa
:1074b0004f02be004f01be004f00be003600f90073
:1074c00000400600809fbe003200f8003400f80043
:1074d00010002000a00188000020200000d0fe0045
:1074e0000000fa000a68a900b08f240090407800dc
:1074f000a08f24001040780080cf50000e00310093
:10750000b08f2400104078000080fb0041892300e8
:1075100000804000104078000080fb00a01288002e
:10752000b08f2400104078008040e800b08f240025
:107530000148780004003700409880000040a10016
:10754000409888002a68a9000080fa003400f900f9
:107550003200f9004f00be00004006003600f8007f
:10756000809fbe00829fbe00849fbe00869fbe009b
:107570003200f8003400f80010002000a00188005c
:107580000020200000d0fe000400fa00b0128000ad
:10759000004f78000a48a900901280006200600045
:1075a0000000e000010032005222a900c0978000d4
:1075b000620060000000e00015003a00a0492500cc
:1075c000104078009e40780080cf50000d003a00b7
:1075d0001e407800e14f40000a003a00a049250013
:1075e0008040eb0001487800c09780000010a000a8
:1075f000c0978800b04925008040eb000148780022
:107600006f003700a04925001e4878006c00370045
:10761000b049250010407800fe4f500004003600ad
:10762000c09780000010a100c09788006400370058
:10763000b0492500104078000080fb00714d21000a
:10764000008040001e487800b049250010407800b6
:107650008040e800b049250001487800b049250085
:10766000104078008080fb00704d210010407800b1
:107670000080fb000000e800808f500050003400c4
:10768000c09780000010a100c097880050772100ab
:10769000904078004077210001487800704d21002b
:1076a000104078000080fb000000e800714d2100d0
:1076b000828a020000000000714d21009140780094
:1076c0008180fb008100e800724d210081004100b3
:1076d00091407800814f500004003200c097800034
:1076e0000020a000c097880035003700804d2100a1
:1076f0009040780090c3b30080cf50000400320067
:10770000c09780000030a000c09788002c00370090
:10771000904d2100104078000004e00028003a005d
:10772000a04d21009040780030c7b30080cf5000ba
:1077300023003a00b04d21009040780020cbb300e8
:1077400080cf50001e003a00d04d2100104078003c
:107750000080fb00100798001e0090004800dd002c
:1077600010079800c04d2100104078000080fb00f9
:107770009e00900000804000100798009e0090003e
:1077800090438200808f50000d003a00b022ef003d
:10779000b09880000010a000b098880065eea800a6
:1077a00072160200020000007017210021c0b30011
:1077b00001487800709880000060a10070988800ef
:1077c0000080fa003400f9003200f9004f03be00d7
:1077d0004f02be004f01be004f00be003600f90050
:1077e000004006000040da000000fe000000050036
:1077f00003f0a200889fbe008a9fbe008c1f780005
:10780000930107009a0133006450e1004f003200f9
:107810006420e1005200320003826c0007003b004c
:107820000905d0000306d000820f54000c065d004d
:107830000200390002003200890178000306780056
:107840008582550004003d000003fd008103fd001a
:107850008502ea008b854200840f720002003b0023
:1078600060001000e08018006011b8000005eb0017
:107870007a28e1000a00390006007800c75ddd00c3
:10788000f707b200878075002d00370082817100f4
:107890000a017800610560008180d1000080d3007a
:1078a0008502e900f9ff3b00060440008784480098
:1078b00002003b0060041400e0841c000988a3005f
:1078c000070032008a8171008281710061016400c9
:1078d0008904d1000884d3008b05e8001700370025
:1078e0000978a30013003a000b00e00013003400f5
:1078f0008b05e9000804440089844c000a447400a4
:107900000978a3000d003a000b00e00007003400e6
:107910008b05e9000804440089844c0001003a000a
:107920000b0020000978a300f7ff32000001eb00f4
:1079300002003700828171000a0178000901070006
:107940000cf0a70001f0a000520137006420e10014
:1079500002003a00838f6c00520133000801be0020
:107960000200be004b013700889fbe008a9fbe0008
:107970008c9fbe000004be00200107000800be006e
:10798000890678006420e100080039000400320014
:107990000160a0001202200002808800530037001e
:1079a00091fc2300b0fd20004e0037000006eb00e4
:1079b00009f0a10003f82300020020000800be0027
:1079c000a10007000600340001f823000000200099
:1079d0000801be004b0007000004be002c00200080
:1079e0000800be0093e82300320a23009600070037
:1079f000120034000801be00d1fd2300703d2b00b1
:107a00007cff07000005be00b3f32300f27a2600d6
:107a10000800be002601070003f823000200200032
:107a200073ff07000801be0072ff07000a01be00d5
:107a3000340007000004be000c06e8000800be0089
:107a400001f0a10002002000039823007e0007003f
:107a50000800be00160035000801be001401070032
:107a60000005be0032cd2c0043fb230061ff070060
:107a7000809fbe001269280003d52b000a00be00bb
:107a80000b010700620f210013ef2b0059ff0700c5
:107a90000a01be00060107004f01be0019000700e1
:107aa0000801be00020107000801be0051ff0700e7
:107ab0000c00e0000b0032000c10a70001f0a20047
:107ac000b2fd200093fc23006260e100040032005c
:107ad00022a9200063f023000c10a70063f8230004
:107ae00044ff07000df0a70001f0a2004f06be0002
:107af0004f05be004f04be00000006000081eb00f1
:107b00001f013700889fbe008a9fbe008c1f78002f
:107b1000cf000700d600330003866c006450e100fc
:107b20002e0032006420e100330032006150e10099
:107b30002f0032006120e1003100320085855500c0
:107b4000eb07b00009002000080420000500370002
:107b50000804440089844c000a00310006034300f5
:107b600087834b000001530081815b00f8ff3300e5
:107b70000203be000800a0000804440089844c00f1
:107b8000f6ff3900c639dd008301730001003200c1
:107b9000130020008904d1000884d3000998a300b1
:107ba000050032000800a7000300a0008904d100ee
:107bb0000884d3008b05e8008904d1000884d30031
:107bc0000001eb000281d2006600070001f0a10075
:107bd0000cf0a70001f0a000ae0037006420e10027
:107be000b00032000801be000200be00f7ff3700ff
:107bf0006120e100ab0032006000b800f3ff370005
:107c00000000200001f82700f0ff3700839f680084
:107c10000100e00002003d0060001000e08018005c
:107c20000300e00002003d0060011100e081190046
:107c3000730107004f00e00002003b0060001000ed
:107c4000e080180000000600140020007c013700ce
:107c5000f4ff2f007a0137000001be006700070023
:107c60000470a70003f0a1006509b10016003200fe
:107c70000d0035006828e10006003500f0ff2f00f8
:107c8000f1ff27000300e00013003b000100280083
:107c90000000050000004000818048008502e900e6
:107ca000fcff3a0008003700f88f420002003c0059
:107cb0008000eb00000005008100d1000080d300af
:107cc0008502e800fcff3a000300e00002003b00f0
:107cd00060001000e0801800000006000001be00f7
:107ce000460007000470a70003f0a10003f8a300fa
:107cf00013003a006509b100100032000900350098
:107d00006928e1000200350001002800000005009c
:107d100000004000818048008502e900fcff3a0035
:107d200000000600f88f4200050035008100d100f8
:107d30000080d3008502e800fcff3a000000060046
:107d40008000eb00000005004f89de008201780012
:107d5000560137006011b8006401370004002000ac
:107d60003701370081002000618055000b003d0085
:107d70000b00200061fe2f000100e1001d00340017
:107d800082817100610164008904d1000884d300fc
:107d90000000e800faff3a00710020006100640072
:107da000030070000200600009003200610444001a
:107db000e0844c000988a500050032008b05e8002e
:107dc0006808e10002003a008904d1000884d30069
:107dd000f20f20000258e10005003d00c75ddd0004
:107de000f907b200898075000800780000000600dd
:107df0000bf827008b00780000000500c70ade00a2
:107e0000f107b200f50fb20008003200e1cf4200e6
:107e1000020032000170a00024000500810f7000f4
:107e2000010032000408050044000500810f7000c5
:107e300002003a00140005008502e900000040003d
:107e400081c04800fcff3b000170a0002400050039
:107e50000004be00e9ff07000003be000405be00e9
:107e60000200be00e5ff0700844f75000000060019
:107e70000200be006450e100050036006420e1000d
:107e8000020036000968a30001003a000800be00a5
:107e90000160a0004f0678004f05be004f04be00f1
:107ea00000000600f0ff2f00f1ff2700f9ff370068
:107eb000889fbe008a9fbe008c1f7800e4ff0700e9
:107ec000ebff330003866c006450e10024003200b5
:107ed0006420e100270032006150e10022003200fe
:107ee0006120e100210032008b854200eb07b100e8
:107ef0000134b800003ab8000804420089844a00fe
:107f0000013ab8000030b8008880400009014a00fa
:107f10000400330000004000818048000201490055
:107f20008b05e900c909dd00830170000100320002
:107f300013002000c814de004814dd004709de00ed
:107f40001200b200c808de000884700085ff070038
:107f500001f0a1000cf0a70001f0a000cdff370058
:107f60006120e100cfff32000801be000200be0028
:107f7000f7ff37006150e100fcff3a00c9ff37000e
:107f8000889fbe008a9fbe008c9fbe00820578003d
:107f90000004be0099ff07000800be006420e10055
:107fa0000700390002003a00f1ff2700f0ff2f0020
:107fb0000160a000120220000280880055003700f6
:107fc0006120e10003003a000b00a70001f8230044
:107fd0005000370001f0a10002002100936424004a
:107fe00019ff07000800be0004003500b2fd2000a4
:107ff000930c2400ec0007000004be000005eb0019
:108000000b00a6004f0dde0001f0a1000004be0031
:1080100032982f0023ea2300a5ff07000001eb00a0
:1080200003f023000b00a70003f82300f1fd070075
:1080300009ff07000000a7000a00a20042ff070096
:108040000b00e000030032000200200003f02300d8
:10805000e7fd070001f0a2000006be0002002000bc
:108060009304240092ff07000801be00e1fd070011
:10807000809fbe000c00be0022a22a00d3a72300ce
:108080008bff07004f01be00dafd07000004be00b1
:1080900001f0a1000200200003982300eafe07007f
:1080a0000800be00190035000001be0080ff070077
:1080b0000006be00b2c52900e36223007cff070072
:1080c00022222b00f3942b00cafd07000c01be00f6
:1080d00077ff0700e273280083c02300c5fd070077
:1080e0000c01be0072ff070042aa2a00a3e22b0087
:1080f000c0fd07000c01be006dff07000801be00b7
:108100006bff07000801be00bafd07000a00a700c8
:1081100001f0a2004f06be004f05be004f04be0096
:10812000000006000001eb0095ff3700889fbe00ad
:108130008a9fbe008c1f78000004be002fff07003e
:108140000478a30026003a006120e10025003200f7
:1081500009f8a30025003a006420e1002100320064
:10816000f507b1000508a30002003200000040003e
:10817000818048006044b800031020000200200005
:1081800000004000818048000805440089854c00bb
:108190000a0541008b8549000a0550008b8558006f
:1081a000030033000a00be000204740083847400dc
:1081b0008301d1000281d300830f7100f0ff3a00e8
:1081c0008904d1000884d30060014900820178004d
:1081d000c1adde00fb07b000e2fe07002dff370057
:1081e0000960a0000800be002aff3700120220002c
:1081f00002808800f0ff2f00f1ff270025ff3700e5
:108200006022b800060220000000d0008180d20069
:108210000482d2008582d2000000a0000202520037
:1082200083825a00030031000202420083824a0026
:108230000000a1000603e900f3ff3a000000060079
:10824000889fbe008a9fbe00841f780000ff070041
:108250004f00780011003300f0ff2f00838f6c0077
:1082600006003b00040565000a00a700080037006f
:1082700009f0a6001000200008003700820f54000b
:10828000838f5c00030039001000200001003e00d5
:108290000000200009f0a7000000ea004f05be0022
:1082a0004f04be000000e00000000600881f7800b8
:1082b000030478000300e00007003d0060001000a8
:1082c000e080180060011900e081190002003b0005
:1082d00001f02d00030037000400070008f0a7009c
:1082e00001f0a0004f04780000000600889fbe0047
:1082f0008a9fbe0000827000040271000482710037
:10830000260032000004be000200be006011b8006a
:108310006b092000950220000182cf000a0039007d
:108320000541b1000082cf00070039000541b100ce
:108330000982cf00040039000541b1000882cf0056
:10834000010039000541b10005425200120032001f
:108350000a003b0082817100610164008100d1004c
:108360000080d3008984d3000884d3008b05e80003
:108370000442e800f7ff3a00070037000804440011
:1083800089844c0000004800818048008b05e9008a
:108390000442e900f9ff3a0072fe07004f05be00f3
:1083a0004f04be000000060004002000000037005b
:1083b000889fbe008a9fbe008c1f78004f26dd007c
:1083c000a3fe0700aafe33006120e1004300320053
:1083d0006250e10041003e003e0039006420e100af
:1083e0003c003200058255000f003b000402e8000b
:1083f00038003a00800f5300818f5b003500340055
:108400000800be0003f0a10001f0a60003f0a000e8
:108410000cf0a700f7fc07009efe370006034300a0
:1084200087834b000c4646000005530081855b00a6
:10843000020033000a03be000c00a0000402e900a1
:10844000f6ff3b00850578000602430087824b005b
:1084500004003a006000b80009f0a70001f0a00095
:108460008cfe37000002520081825a000704e000af
:10847000040033000603430087834b008b05e900ab
:10848000faff3700090578000604be000203be00ab
:108490006011b80033fe0700e00f5200e08f5a0071
:1084a0000700350002003c000c08a3000400320065
:1084b0000601be0003f0a0000cf0a700cdfc0700f1
:1084c0000a85680001f0a1000af0a70001f0a000f1
:1084d00070fe37000800be006efe3700100220005c
:0c84e0000cf0a600008088006efe370043
:020000040000fa
:1084ec0082040000aa040000fa0400004a050000ff
:1084fc009b050000eb050000390600008606000015
:10850c00d2060000f70600001c07000063070000fd
:10851c00a8070000eb0700002c0800006a08000008
:10852c00a6080000df08000016090000470900003b
:10853c005d0900007109000092090000a909000002
:10854c00c9ff0000ceff0000d8ff0000e2ff0000d2
:10855c00ecff0000f6ff0000000000000a00000025
:10856c0014000000190000001e000000280000008c
:10857c00320000003c0000004600000050000000eb
:10858c005a000000640000006e000000780000003b
:10859c007d000000820000008c00000096000000ae
:1085ac00e50f0000da0f0000cd0f0000bb0f00003c
:1085bc00a40f0000870f0000630f0000350f0000b0
:1085cc00fd0e0000b90e0000680e0000080e000041
:1085dc009a0d00001d0d0000910c0000f70b00001f
:1085ec00520b0000a30a0000ee0900003509000040
:1085fc007c080000c5070000140700006c06000092
:10860c00cd05000038050000b00400003204000065
:10861c00c00300005a030000fd020000aa02000083
:10862c006002000020020000d8ff0000ddff000007
:10863c00e2ff0000e7ff0000ecff0000f1ff00008c
:10864c00f6ff0000fbff000000000000050000002a
:10865c000a0000000f0000001400000019000000c8
:10866c001e00000023000000280000002d00000068
:10867c0032000000370000003c0000004100000008
:10868c00460000004b0000005000000055000000a8
:10869c005a0000005f000000640000006900000048
:1086ac006e00000073000000780000007d000000e8
:1086bc000b0e0000e30d0000b30d0000790d00005f
:1086cc00350d0000e60c00008d0c0000270c00009e
:1086dc00b60b00003a0b0000b50a0000280a000097
:1086ec0095090000fd08000064080000cb0700009d
:1086fc0035070000a20600001606000090050000d9
:10870c00130500009d04000031040000cd0300009f
:10871c00710300001e030000d30200008e02000053
:10872c004f020000e2ff0000e7ff0000ecff00003a
:10873c00f1ff0000f6ff0000fbff0000000000004e
:10874c00050000000a0000000f00000014000000eb
:10875c00190000001e00000023000000280000008b
:10876c002d00000032000000370000003c0000002b
:10877c0041000000460000004b00000050000000cb
:10878c00550000005a0000005f000000640000006b
:10879c00690000006e000000740e0000640e000002
:1087ac004f0e0000350e0000130e0000e90d000006
:1087bc00b60d0000780d00002d0d0000d60c000049
:1087cc00700c0000fd0b00007d0b0000ef0a000098
:1087dc00580a0000b70900001109000068080000e1
:1087ec00bf0700001807000077060000c70500004f
:1087fc004c050000c504000048040000d60300002e
:10880c006e03000011030000bd020000770e000093
:10881c00740e0000720e00006f0e00006d0e000052
:10882c006a0e0000670e0000640e0000600e00006f
:10883c005d0e0000590e0000550e0000520e000097
:10884c004d0e0000490e0000450e0000400e0000c9
:10885c003b0e0000360e0000310e00002c0e000006
:10886c00260e0000200e00001a0e0000140e000050
:10887c000d0e0000060e0000ff0d0000f80d0000ac
:10888c00f00d0000e80d0000e00d0000d80d000018
:10889c00cf0d0000c60d0000bc0d0000b30d000094
:1088ac00a80d00009e0d0000930d0000880d000027
:1088bc007d0d0000710d0000650d0000590d0000cc
:1088cc004c0d00003f0d0000320d0000240d000087
:1088dc00160d0000070d0000f80c0000e90c00005c
:1088ec00d90c0000c90c0000b80c0000a70c00004b
:1088fc00960c0000840c0000720c0000600c000050
:10890c004d0c0000390c0000260c0000120c00006d
:10891c00fd0b0000e80b0000d30b0000bd0b0000aa
:10892c00a70b0000910b00007a0b0000630b0000fa
:10893c004c0b0000340b00001c0b0000030b000060
:10894c00eb0a0000d20a0000b90a00009f0a0000de
:10895c00850a00006b0a0000500a0000360a00006d
:10896c001b0a0000000a0000e4090000c90900000d
:10897c00ad090000910900007509000059090000bb
:10898c003d0900002009000004090000e708000070
:10899c00cb080000ae08000091080000740800002d
:1089ac00580800003c0800001f08000003080000e5
:1089bc00e7070000cb070000af070000930700009b
:1089cc00770700005c070000400700002407000048
:1089dc0009070000ee060000d3060000b8060000f0
:1089ec009d06000083060000690600004f0600008b
:1089fc00350600001c06000003060000ea05000016
:108a0c00d0050000b8050000a00500008805000096
:108a1c007105000059050000410500002b05000000
:108a2c0014050000fd040000e7040000d104000060
:108a3c00bc040000a7040000910400007d040000a9
:108a4c006804000054040000400400002e040000e0
:108a5c001a04000008040000f5030000e303000002
:108a6c00d1030000bf030000ae0300009d03000013
:108a7c008c0300007c0300006c0300005c0300000e
:108a8c004b0300003c0300002e0300001e030000fb
:108a9c001003000001030000f3020000e6020000d6
:108aac00d8020000e2ff0000e7ff0000ecff00002e
:108abc00f1ff0000f6ff0000fbff000000000000cb
:108acc00050000000a0000000f0000001400000068
:108adc00190000001e000000230000002800000008
:108aec002d00000032000000370000003c000000a8
:108afc0041000000460000004b0000005000000048
:108b0c00550000005a0000005f00000064000000e7
:108b1c00690000006e000000d8ff0000d9ff0000c3
:108b2c00daff0000dbff0000dcff0000ddff0000cf
:108b3c00deff0000dfff0000e0ff0000e1ff0000af
:108b4c00e2ff0000e3ff0000e4ff0000e5ff00008f
:108b5c00e6ff0000e7ff0000e8ff0000e9ff00006f
:108b6c00eaff0000ebff0000ecff0000edff00004f
:108b7c00eeff0000efff0000f0ff0000f1ff00002f
:108b8c00f2ff0000f3ff0000f4ff0000f5ff00000f
:108b9c00f6ff0000f7ff0000f8ff0000f9ff0000ef
:108bac00faff0000fbff0000fcff0000fdff0000cf
:108bbc00feff0000ffff00000000000001000000ad
:108bcc00020000000300000004000000050000008b
:108bdc00060000000700000008000000090000006b
:108bec000a0000000b0000000c0000000d0000004b
:108bfc000e0000000f00000010000000110000002b
:108c0c00120000001300000014000000150000000a
:108c1c0016000000170000001800000019000000ea
:108c2c001a0000001b0000001c0000001d000000ca
:108c3c001e0000001f0000002000000021000000aa
:108c4c00220000002300000024000000250000008a
:108c5c00260000002700000028000000290000006a
:108c6c002a0000002b0000002c0000002d0000004a
:108c7c002e0000002f00000030000000310000002a
:108c8c00320000003300000034000000350000000a
:108c9c0036000000370000003800000039000000ea
:108cac003a0000003b0000003c0000003d000000ca
:108cbc003e0000003f0000004000000041000000aa
:108ccc00420000004300000044000000450000008a
:108cdc00460000004700000048000000490000006a
:108cec004a0000004b0000004c0000004d0000004a
:108cfc004e0000004f00000050000000510000002a
:108d0c005200000053000000540000005500000009
:108d1c0056000000570000005800000059000000e9
:108d2c005a0000005b0000005c0000005d000000c9
:108d3c005e0000005f0000006000000061000000a9
:108d4c006200000063000000640000006500000089
:108d5c006600000067000000680000006900000069
:108d6c006a0000006b0000006c0000006d00000049
:108d7c006e0000006f000000700000007100000029
:108d8c007200000073000000740000007500000009
:108d9c0076000000770000007800000079000000e9
:108dac007a0000007b0000007c0000007d000000c9
:108dbc00b5020000d10200000a03000043030000ca
:108dcc007f030000bb030000f80300003504000023
:108ddc007304000092040000b1040000ed040000d4
:108dec002b05000066050000a2050000dd05000053
:108dfc00170600005006000087060000be060000a3
:108e0c00d9060000f4060000280700005b070000ec
:108e1c008c070000bd070000d4070000bb02000057
:108e2c00d7020000100300004a0300008603000074
:108e3c00c3030000000400003d0400007b0400009c
:108e4c009a040000b9040000f60400003305000089
:108e5c006f050000ab050000e605000020060000d1
:108e6c005906000091060000c7060000e30600004a
:108e7c00fc060000310700006407000096070000a4
:108e8c00c6070000de070000c9ff0000ceff00008f
:108e9c00d8ff0000e2ff0000ecff0000f6ff00002e
:108eac00000000000a00000014000000190000007f
:108ebc001e00000028000000320000003c000000f2
:108ecc0046000000500000005a0000006400000042
:108edc006e000000780000007d00000082000000a1
:108eec008c00000096000000a0000000aa0000000a
:108efc00af0000000d020000350200005d02000012
:108f0c0087020000b3020000df0200000e03000025
:108f1c00250300003d0300006c0300009d030000ce
:108f2c00cd030000fe0300002f04000061040000cc
:108f3c0092040000c3040000f404000025050000a6
:108f4c005505000085050000b4050000e305000090
:108f5c00110600003f0600006c0600009806000099
:108f6c00c4060000ee0600001807000041070000d0
:108f7c006a07000091070000b5070000d707000042
:108f8c00f5070000d8ff0000e2ff0000ecff000036
:108f9c00f6ff0000000000000a00000014000000b2
:108fac00190000001e000000280000003200000024
:108fbc003c00000046000000500000005a00000079
:108fcc00640000006e0000007800000082000000c9
:108fdc008c00000096000000a0000000aa00000019
:108fec00b4000000be000000c8000000d200000069
:108ffc00dc000000e6000000f0000000fa000000b9
:10900c00040100000e010000180100002201000004
:10901c002c010000bb0200001a05000071050000c5
:10902c00c90500002106000079060000cf060000eb
:10903c0023070000750700009e070000c60700000c
:10904c001408000060080000a9080000f0080000e7
:10905c003409000075090000b4090000f009000093
:10906c00260a00003e0a0000540a0000780a00009c
:10907c00910a0000c9ff0000ceff0000d8ff0000dd
:10908c00e2ff0000ecff0000f6ff00000000000013
:10909c000a00000014000000190000001e0000006f
:1090ac0028000000320000003c00000046000000d8
:1090bc00500000005a000000640000006e00000028
:1090cc00780000007d000000820000008c00000091
:1090dc0096000000020600000a0f000013170000a3
:1090ec001b1f0000232700002c3000003438000028
:1090fc003c400000444800004c5000005458000014
:10910c005c600000636700006b6f0000737600000a
:10911c00797c00007f830000878a00008e9100001c
:10912c00959800009b9f0000a2a50000a8ab000032
:10913c00aeb10000b4b70000babd0000c0c2000060
:10914c00c5c80000cacd0000cfd20000d4d60000a4
:10915c00d9db0000dddf0000e1e30000e5e7000003
:10916c00e8ea0000eced0000eff00000f2f3000084
:10917c00f4f50000f7f80000f9fa0000fafb000023
:10918c00fcfd0000fdfe0000feff0000ffff0000e4
:10919c00ffff0000ffff0000ffff0000ffff0000cb
:1091ac00fefe0000fdfd0000fcfc0000fbfa0000d0
:1091bc00f9f80000f7f60000f5f40000f2f10000f9
:1091cc00f0ee0000edeb0000e9e80000e6e4000042
:1091dc00e2e00000dede0000e1e20000e4e6000078
:1091ec00e8ea0000ebed0000eef00000f1f3000007
:1091fc00f4f50000f6f70000f8f90000fafb0000a7
:10920c00fcfc0000fdfe0000fefe0000ffff000065
:10921c00ffff0000ffff0000ffff0000ffff00004a
:10922c00fefe0000fefd0000fcfc0000fbfa00004e
:10923c00f9f80000f7f60000f5f40000f3f1000077
:10924c00f0ee0000edeb0000eae80000e6e40000c0
:10925c00e3e10000dfdc0000dad80000d6d4000027
:10926c00d1cf0000ccca0000c7c50000c2bf0000af
:10927c00bcb90000b7b40000b1ae0000aba7000051
:10928c00a4a100009e9a000097940000908d00000d
:10929c0089860000827f00007b77000074700000dc
:1092ac006c680000656100005d59000055510000bc
:1092bc004d490000454100003d39000035310000aa
:1092cc002d290000242000001c18000014100000a0
:1092dc000c0700000000000000000000000000006f
:1092ec000000000000000000000000000000000072
:1092fc000000000000000000000000000000000062
:10930c000000000000000000000000000000000051
:10931c000000000000000000000000000000000041
:10932c000000000000000000000000000000000031
:10933c000000000000000000000000000000000021
:10934c000000000000000000000000000000000011
:10935c000000000000000000000000000000000001
:10936c0000000000000000000000000000000000f1
:10937c0000000000000000000000000000000000e1
:10938c0000000000000000000000000000000000d1
:10939c0000000000000000000000000000000000c1
:1093ac0000000000000000000000000000000000b1
:1093bc0000000000000000000000000000000000a1
:1093cc000000000000000000000000000000000091
:1093dc0000000000a0a30000a5a70000a9ab00009e
:1093ec00aeb00000b3b50000b8ba0000bdc00000bc
:1093fc00c3c60000c8cb0000ced10000d4d80000fa
:10940c00dbde0000e1e50000e8eb0000eff200001d
:10941c00f6f90000ff030000070a00000e1100001f
:10942c00151800001b1f000022250000282b00002f
:10943c002e310000343700003a3d0000404200005d
:10944c00454800004a4d00004f52000054560000a1
:10945c00595b00005d5f0000616300006567000000
:10946c00686a00006c6d00006f7000007273000081
:10947c007475000077780000797a00007a7b000020
:10948c007c7d00007d7e00007e7f00007f7f0000e1
:10949c007f7f00007f7f00007f7f00007f7f0000c8
:1094ac007e7e00007d7d00007c7c00007b7a0000cd
:1094bc0079780000777600007574000072710000f6
:1094cc00706e00006d6b000069680000666400003f
:1094dc00626000005e5e0000616200006466000075
:1094ec00686a00006b6d00006e7000007173000004
:1094fc007475000076770000787900007a7b0000a4
:10950c007c7c00007d7e00007e7e00007f7f000062
:10951c007f7f00007f7f00007f7f00007f7f000047
:10952c007e7e00007e7d00007c7c00007b7a00004b
:10953c007978000077760000757400007371000074
:10954c00706e00006d6b00006a68000066640000bd
:10955c00636100005f5c00005a5800005654000024
:10956c00514f00004c4a000047450000423f0000ac
:10957c003c39000037340000312e00002b2700004e
:10958c00242100001e1a000017140000100d00000a
:10959c0009060000fffc0000f8f50000f1ee0000e9
:1095ac00eae70000e4e00000ddda0000d7d40000b8
:1095bc00d1ce0000cbc80000c5c20000bfbd00006a
:1095cc00bab70000b5b20000b0ad0000aba9000006
:1095dc00a6a40000a2a000009e9c00009a98000087
:1095ec009795000093920000908f00008d8c0000e6
:1095fc008b8a000088870000868500008584000027
:10960c008382000082810000818000008080000045
:10961c00808000008080000080800000808000003e
:10962c008181000082820000838300008485000019
:10963c0086870000888900008a8b00008d8e0000d0
:10964c008f9100009294000096970000999b000067
:10965c009d9f0000a1a100009e9d00009b99000011
:10966c009795000094920000918f00008e8c000062
:10967c008b8a0000898800008786000085840000a2
:10968c0083830000828100008181000080800000c3
:10969c0080800000808000008080000080800000be
:1096ac00818100008182000083830000848500009a
:1096bc0086870000888900008a8b00008c8e000051
:1096cc008f9100009294000095970000999b0000e8
:1096dc009c9e000000010000020100000404000038
:1096ec00020000000204000004010000020100005e
:1096fc00295c000041420000415400002b55000041
:10970c0041520000543f000000410000542b000067
:10971c0055410000525400003d3300003834000025
:10972c00303000002c3100002c30000000410000d3
:10973c00542b00004e4100004d4500003f0000003e
:020000040000fa
:10974c000000fa0064eea90060eea900003a800067
:10975c00a0908a0000000000000000000000000043
:10976c004027ef00431c0700401f2000201d8a00eb
:10977c0000000000201d82000000e000fdff3a0008
:10978c0064eea800000000000000000000000000d3
:10979c00f097800000a0a100f097880060222000c4
:1097ac00201d8a00f097800000e0a000f097880050
:1097bc009100200020b82c00f216020002000000dc
:1097cc0000000000f1978000004020000080600045
:1097dc000000e00003003a00201d82000000e000c1
:1097ec00f8ff3a00f097800000e0a100f0978800a5
:1097fc0064eea900b09880000060a100b0988800c9
:10980c00601b240010407800e14f400003003a0038
:10981c00601b24008040eb0001487800b098800069
:10982c000060a000b09888000000000086af020025
:10983c000100000048ae0200010000006f7e07002e
:10984c00ae59070088650700aa650700461f070088
:10985c00857a0700d4a30200010000006e7b07008c
:10986c006a7c07006c7c0700ab7c07006ea30200cf
